{"contracts/ExpenseManager.sol":{"ExpenseManager":{"abi":[{"inputs":[{"internalType":"address","name":"trustedForwarder","type":"address"}],"stateMutability":"nonpayable","type":"constructor"},{"inputs":[],"name":"ReentrancyGuardReentrantCall","type":"error"},{"anonymous":false,"inputs":[{"indexed":true,"internalType":"string","name":"groupId","type":"string"},{"indexed":true,"internalType":"address","name":"from","type":"address"},{"indexed":true,"internalType":"address","name":"to","type":"address"},{"indexed":false,"internalType":"uint256","name":"newAmount","type":"uint256"}],"name":"DebtUpdated","type":"event"},{"anonymous":false,"inputs":[{"indexed":true,"internalType":"uint256","name":"expenseId","type":"uint256"},{"indexed":true,"internalType":"string","name":"groupId","type":"string"},{"indexed":true,"internalType":"address","name":"payer","type":"address"},{"indexed":false,"internalType":"uint256","name":"totalAmount","type":"uint256"},{"indexed":false,"internalType":"uint256","name":"perPersonAmount","type":"uint256"},{"indexed":false,"internalType":"string","name":"currency","type":"string"},{"indexed":false,"internalType":"string","name":"ipfsHash","type":"string"},{"indexed":false,"internalType":"uint256","name":"timestamp","type":"uint256"}],"name":"ExpenseAdded","type":"event"},{"anonymous":false,"inputs":[{"indexed":true,"internalType":"string","name":"groupId","type":"string"},{"indexed":false,"internalType":"address[]","name":"members","type":"address[]"},{"indexed":false,"internalType":"uint256","name":"timestamp","type":"uint256"}],"name":"GroupCreated","type":"event"},{"anonymous":false,"inputs":[{"indexed":true,"internalType":"string","name":"groupId","type":"string"},{"indexed":false,"internalType":"address","name":"member","type":"address"},{"indexed":false,"internalType":"uint256","name":"timestamp","type":"uint256"}],"name":"MemberAdded","type":"event"},{"anonymous":false,"inputs":[{"indexed":true,"internalType":"uint256","name":"paymentId","type":"uint256"},{"indexed":true,"internalType":"uint256","name":"expenseId","type":"uint256"},{"indexed":true,"internalType":"address","name":"from","type":"address"},{"indexed":false,"internalType":"address","name":"to","type":"address"},{"indexed":false,"internalType":"uint256","name":"amount","type":"uint256"},{"indexed":false,"internalType":"bool","name":"gasless","type":"bool"},{"indexed":false,"internalType":"uint256","name":"timestamp","type":"uint256"}],"name":"PaymentMarked","type":"event"},{"inputs":[{"internalType":"string","name":"groupId","type":"string"},{"internalType":"address","name":"payer","type":"address"},{"internalType":"string","name":"merchant","type":"string"},{"internalType":"uint256","name":"totalAmount","type":"uint256"},{"internalType":"uint256","name":"perPersonAmount","type":"uint256"},{"internalType":"string","name":"currency","type":"string"},{"internalType":"string","name":"ipfsHash","type":"string"},{"internalType":"string","name":"metadata","type":"string"}],"name":"addExpense","outputs":[],"stateMutability":"nonpayable","type":"function"},{"inputs":[{"internalType":"string","name":"groupId","type":"string"},{"internalType":"address","name":"newMember","type":"address"}],"name":"addMember","outputs":[],"stateMutability":"nonpayable","type":"function"},{"inputs":[{"internalType":"string","name":"groupId","type":"string"},{"internalType":"address[]","name":"members","type":"address[]"}],"name":"createGroup","outputs":[],"stateMutability":"nonpayable","type":"function"},{"inputs":[{"internalType":"string","name":"","type":"string"},{"internalType":"address","name":"","type":"address"},{"internalType":"address","name":"","type":"address"}],"name":"debts","outputs":[{"internalType":"uint256","name":"","type":"uint256"}],"stateMutability":"view","type":"function"},{"inputs":[],"name":"expenseCounter","outputs":[{"internalType":"uint256","name":"","type":"uint256"}],"stateMutability":"view","type":"function"},{"inputs":[{"internalType":"uint256","name":"","type":"uint256"}],"name":"expenses","outputs":[{"internalType":"uint256","name":"id","type":"uint256"},{"internalType":"string","name":"groupId","type":"string"},{"internalType":"address","name":"payer","type":"address"},{"internalType":"string","name":"merchant","type":"string"},{"internalType":"uint256","name":"totalAmount","type":"uint256"},{"internalType":"uint256","name":"perPersonAmount","type":"uint256"},{"internalType":"string","name":"currency","type":"string"},{"internalType":"string","name":"ipfsHash","type":"string"},{"internalType":"uint256","name":"timestamp","type":"uint256"},{"internalType":"string","name":"metadata","type":"string"}],"stateMutability":"view","type":"function"},{"inputs":[{"internalType":"string","name":"groupId","type":"string"},{"internalType":"address","name":"debtor","type":"address"},{"internalType":"address","name":"creditor","type":"address"}],"name":"getDebt","outputs":[{"internalType":"uint256","name":"","type":"uint256"}],"stateMutability":"view","type":"function"},{"inputs":[{"internalType":"uint256","name":"expenseId","type":"uint256"}],"name":"getExpense","outputs":[{"components":[{"internalType":"uint256","name":"id","type":"uint256"},{"internalType":"string","name":"groupId","type":"string"},{"internalType":"address","name":"payer","type":"address"},{"internalType":"string","name":"merchant","type":"string"},{"internalType":"uint256","name":"totalAmount","type":"uint256"},{"internalType":"uint256","name":"perPersonAmount","type":"uint256"},{"internalType":"string","name":"currency","type":"string"},{"internalType":"string","name":"ipfsHash","type":"string"},{"internalType":"uint256","name":"timestamp","type":"uint256"},{"internalType":"address[]","name":"participants","type":"address[]"},{"internalType":"string","name":"metadata","type":"string"}],"internalType":"struct ExpenseManager.Expense","name":"","type":"tuple"}],"stateMutability":"view","type":"function"},{"inputs":[],"name":"getGroupCount","outputs":[{"internalType":"uint256","name":"","type":"uint256"}],"stateMutability":"view","type":"function"},{"inputs":[{"internalType":"string","name":"groupId","type":"string"}],"name":"getGroupExpenses","outputs":[{"internalType":"uint256[]","name":"","type":"uint256[]"}],"stateMutability":"view","type":"function"},{"inputs":[{"internalType":"string","name":"groupId","type":"string"}],"name":"getGroupMembers","outputs":[{"internalType":"address[]","name":"","type":"address[]"}],"stateMutability":"view","type":"function"},{"inputs":[{"internalType":"string","name":"groupId","type":"string"},{"internalType":"address","name":"user","type":"address"}],"name":"getUserCredits","outputs":[{"internalType":"address[]","name":"debtors","type":"address[]"},{"internalType":"uint256[]","name":"amounts","type":"uint256[]"}],"stateMutability":"view","type":"function"},{"inputs":[{"internalType":"string","name":"groupId","type":"string"},{"internalType":"address","name":"user","type":"address"}],"name":"getUserDebts","outputs":[{"internalType":"address[]","name":"creditors","type":"address[]"},{"internalType":"uint256[]","name":"amounts","type":"uint256[]"}],"stateMutability":"view","type":"function"},{"inputs":[{"internalType":"address","name":"user","type":"address"}],"name":"getUserGroups","outputs":[{"internalType":"string[]","name":"","type":"string[]"}],"stateMutability":"view","type":"function"},{"inputs":[{"internalType":"string","name":"","type":"string"},{"internalType":"uint256","name":"","type":"uint256"}],"name":"groupExpenses","outputs":[{"internalType":"uint256","name":"","type":"uint256"}],"stateMutability":"view","type":"function"},{"inputs":[{"internalType":"uint256","name":"","type":"uint256"}],"name":"groupIds","outputs":[{"internalType":"string","name":"","type":"string"}],"stateMutability":"view","type":"function"},{"inputs":[{"internalType":"string","name":"","type":"string"}],"name":"groups","outputs":[{"internalType":"string","name":"groupId","type":"string"},{"internalType":"uint256","name":"createdAt","type":"uint256"},{"internalType":"bool","name":"exists","type":"bool"}],"stateMutability":"view","type":"function"},{"inputs":[{"internalType":"string","name":"groupId","type":"string"},{"internalType":"address","name":"user","type":"address"}],"name":"isGroupMember","outputs":[{"internalType":"bool","name":"","type":"bool"}],"stateMutability":"view","type":"function"},{"inputs":[{"internalType":"address","name":"forwarder","type":"address"}],"name":"isTrustedForwarder","outputs":[{"internalType":"bool","name":"","type":"bool"}],"stateMutability":"view","type":"function"},{"inputs":[{"internalType":"uint256","name":"expenseId","type":"uint256"},{"internalType":"address","name":"creditor","type":"address"}],"name":"markAsPaid","outputs":[],"stateMutability":"nonpayable","type":"function"},{"inputs":[],"name":"paymentCounter","outputs":[{"internalType":"uint256","name":"","type":"uint256"}],"stateMutability":"view","type":"function"},{"inputs":[{"internalType":"uint256","name":"","type":"uint256"}],"name":"payments","outputs":[{"internalType":"uint256","name":"expenseId","type":"uint256"},{"internalType":"address","name":"from","type":"address"},{"internalType":"address","name":"to","type":"address"},{"internalType":"uint256","name":"amount","type":"uint256"},{"internalType":"uint256","name":"timestamp","type":"uint256"},{"internalType":"bool","name":"gasless","type":"bool"}],"stateMutability":"view","type":"function"},{"inputs":[],"name":"trustedForwarder","outputs":[{"internalType":"address","name":"","type":"address"}],"stateMutability":"view","type":"function"},{"inputs":[{"internalType":"address","name":"","type":"address"},{"internalType":"uint256","name":"","type":"uint256"}],"name":"userGroups","outputs":[{"internalType":"string","name":"","type":"string"}],"stateMutability":"view","type":"function"}],"evm":{"bytecode":{"linkReferences":{},"object":"60a03461008757601f6127ba38819003918201601f19168301916001600160401b0383118484101761008c5780849260209460405283398101031261008757516001600160a01b03811681036100875760805260016000556001600455600160075560405161271790816100a38239608051818181611084015281816114a701526126730152f35b600080fd5b634e487b7160e01b600052604160045260246000fdfe6080604052600436101561001257600080fd5b60003560e01c80630245d03614611b005780630275020114611a7057806306545a9314611a5257806307edffe01461189d57806315b3671d1461187a5780633da04e4a146117915780634093d7a11461171f57806340be33e8146116e857806345e39705146115a65780634bd4622c146114db578063572b6c05146114875780635768a3151461141f57806360a9e097146113b85780636b52230b14611327578063735e5db6146110d157806376840b60146110b35780637da0a8771461106e57806387d8178914610ff65780638a6120a61461087d57806393537dd814610803578063af4afe0a14610700578063cdc88e02146104f5578063cfbe575c146101475763ddcad2ae1461012457600080fd5b34610142576000366003190112610142576020600454604051908152f35b600080fd5b34610142576040366003190112610142576004356001600160401b03811161014257610177903690600401611f9f565b602435906001600160401b03821161014257366023830112156101425781600401356101a281612286565b926101b06040519485611f7e565b8184526024602085019260051b8201019036821161014257602401915b8183106104d55750505060405160ff6003835192602081818701956101f38183896120cf565b81016001815203019020015416610499578251156104485761021c610216612648565b846126a1565b15610403576040519061022e82611f63565b8282526020820184815260408301904282526102746102626020606087019560018752604051809381928b519283916120cf565b810160018152030190209451856124f9565b5180519060018501906001600160401b0383116103b357600160401b83116103b35760209082548484558085106103e6575b500190600052602060002060005b8381106103c95788886102e18960038a8a51600284015551151591019060ff801983541691151516179055565b600254600160401b8110156103b35780600161030292016002556002612117565b61039d5781610310916124f9565b60005b825181101561034f576001906001600160a01b0361033182866123e9565b511660005260096020526103498360406000206125f9565b01610313565b5061039261037d7f3599f24e25095535210b1b8ca48fba46c30fcd53bdb6cef3a68a38a4ad26533792612386565b92604051918291604083526040830190611ff5565b4260208301520390a2005b634e487b7160e01b600052600060045260246000fd5b634e487b7160e01b600052604160045260246000fd5b82516001600160a01b0316818301556020909201916001016102b4565b6103fd9084600052858460002091820191016124e2565b896102a6565b60405162461bcd60e51b815260206004820152601860248201527f43726561746f72206d7573742062652061206d656d62657200000000000000006044820152606490fd5b60405162461bcd60e51b815260206004820152602360248201527f47726f7570206d7573742068617665206174206c65617374206f6e65206d656d6044820152623132b960e91b6064820152608490fd5b60405162461bcd60e51b815260206004820152601460248201527347726f757020616c72656164792065786973747360601b6044820152606490fd5b82356001600160a01b0381168103610142578152602092830192016101cd565b346101425761050336612032565b9060405161053560ff60038451936020818188019661052381838a6120cf565b810160018152030190200154166123a6565b60405160208184516105488183876120cf565b8101600181520301902060405161055e81611f63565b6105678261217f565b8152606060ff600361057b600186016122e2565b946020850195865260028101546040860152015416151591015260009160005b82515181101561062157604080805160208189516105ba81838a6120cf565b8101600881520301902060009060018060a01b038a1682526020522060018060a01b036105e88487516123e9565b51166001600160a01b03166000908152602091909152205461060d575b60010161059b565b92610619600191612377565b939050610605565b509061063561062f846123fd565b936123fd565b9260009260005b8351518110156106ed5760408080516020818b5161065b81838a6120cf565b8101600881520301902060009060018060a01b038c1682526020522060018060a01b036106898488516123e9565b51166001600160a01b031660009081526020919091522054806106b0575b5060010161063c565b600191956106e691838060a01b036106c98989516123e9565b51166106d583886123e9565b526106e0828a6123e9565b52612377565b94906106a7565b604051806106fc8886836120a7565b0390f35b3461014257602036600319011261014257600435600052600360205260406000208054600182016107309061217f565b600283015490926001600160a01b039091169061074f6003820161217f565b60048201546005830154906107666006850161217f565b916107736007860161217f565b93600886015495600a016107869061217f565b96604051998a998a5260208a0161014090526101408a016107a6916120f2565b9060408a015288810360608a01526107bd916120f2565b91608088015260a087015285810360c08701526107d9916120f2565b84810360e08601526107ea916120f2565b906101008401528281036101208401526106fc916120f2565b34610142576040366003190112610142576004356001600160401b03811161014257610833903690600401611f9f565b61084f60206024359281604051938285809451938492016120cf565b8101600581520301902080548210156101425760209161086e91612117565b90549060031b1c604051908152f35b3461014257610100366003190112610142576004356001600160401b038111610142576108ae903690600401611f9f565b6108b6611f1b565b906044356001600160401b038111610142576108d6903690600401611f9f565b91606435926084359260a4356001600160401b038111610142576108fe903690600401611f9f565b9260c4356001600160401b0381116101425761091e903690600401611f9f565b60e4356001600160401b0381116101425761093d903690600401611f9f565b956040519584519680602087019861095681838c6120cf565b8101600181520360200190206003015460ff16610972906123a6565b61097a612648565b610984908661242f565b61098d90612336565b610995612626565b8815610fa5578115610f4f57855115610f1157825115610ed7576001600160a01b038416938415610e9a576109ca908661242f565b15610e55576004546109db81612377565b6004556001604051602081806109f58d8c519283916120cf565b81018481520301902001546000198101908111610d9357610a15906123fd565b996000978b896001610a3660208e5b8d6040519384928392519283916120cf565b8101848152030190200154811015610aec57908189610a758e9460018e6020604051809251610a6681838d6120cf565b81018481520301902001612117565b905460039190911b1c6001600160a01b031603610a9e575b610a36602060018093019394610a24565b9a610a3660206001610ae18f948f839684610a66878c610ac9956040519384928392519283916120cf565b848060a01b0391549060031b1c166106e082896123e9565b9e9350505050610a8d565b509996979598508a8a60405192610b0284611f47565b8584528b60208501918a835260408601908d8252606087019081526080870188815260a08801918c835260c08901938c855260e08a019586526101008a01964288526101208b019889526101408b01998a528c600052600360205260406000209a518b555160018b0190610b75916124f9565b5160028a0180546001600160a01b0319166001600160a01b039290921691909117905551610ba69060038a016124f9565b51600488015551600587015551610bc090600687016124f9565b51610bce90600786016124f9565b5160088401555180519060098401906001600160401b0383116103b357600160401b83116103b3576020908254848455808510610e38575b500190600052602060002060005b838110610e1b575050505090600a610c2e925191016124f9565b6040516020818751610c4181838c6120cf565b810160058152030190208054600160401b8110156103b357610c6891600182018155612117565b81549060031b9084821b91600019901b191617905560005b8951811015610da957604080805160208180610ca08d8d519283916120cf565b6008908201908152030190206001600160a01b03610cbe858f6123e9565b51169060009160018060a01b03168252602052206000908a825260205220908154868101809111610d935790915560019088876040808e610d2060208e6001600160a01b03610d0d8a866123e9565b51169685519384928392519283916120cf565b8101600881520301902090610d3b87898060a01b03926123e9565b511690600091888060a01b031682526020522060009084825260205220547fc247df220fd28f38c52084b08c97414ffcb3c5f5a3a6c1bbb17745bb3e8cfb0a6020610d858c612386565b92604051908152a401610c80565b634e487b7160e01b600052601160045260246000fd5b5086937fcc762af87a9e4b178c686ac9675008ff8324a12ceb2e2a23052e2186bb184c1491610e0b8a610dfd610dde8a612386565b976040519586958652602086015260a0604086015260a08501906120f2565b9083820360608501526120f2565b4260808301520390a46001600055005b82516001600160a01b031681830155602090920191600101610c14565b610e4f9084600052858460002091820191016124e2565b8f610c06565b60405162461bcd60e51b815260206004820152601c60248201527f5061796572206d75737420626520612067726f7570206d656d626572000000006044820152606490fd5b60405162461bcd60e51b8152602060048201526015602482015274496e76616c6964207061796572206164647265737360581b6044820152606490fd5b60405162461bcd60e51b815260206004820152601260248201527112541194c81a185cda081c995c5d5a5c995960721b6044820152606490fd5b60405162461bcd60e51b815260206004820152601660248201527513595c98da185b9d081b985b59481c995c5d5a5c995960521b6044820152606490fd5b60405162461bcd60e51b815260206004820152602860248201527f50657220706572736f6e20616d6f756e74206d75737420626520677265617465604482015267072207468616e20360c41b6064820152608490fd5b60405162461bcd60e51b815260206004820152602360248201527f546f74616c20616d6f756e74206d75737420626520677265617465722074686160448201526206e20360ec1b6064820152608490fd5b3461014257602036600319011261014257600435600052600660205260c0604060002080549060018060a01b036001820154169060018060a01b0360028201541660038201549060ff6005600485015494015416936040519586526020860152604085015260608401526080830152151560a0820152f35b34610142576000366003190112610142576040517f00000000000000000000000000000000000000000000000000000000000000006001600160a01b03168152602090f35b34610142576000366003190112610142576020600754604051908152f35b34610142576020366003190112610142576004356040516110f181611f47565b60008152602081016060905260408101600090526060810160609052608081016000905260a081016000905260c081016060905260e0810160609052610100810160009052610120810160609052610140016060905280600052600360205280604060002054146111619061229d565b6000526003602052604060002060405161117a81611f47565b8154815261118a6001830161217f565b6020820190815260028301546001600160a01b031660408301908152926111b36003820161217f565b9360608401948552600482015460808501908152600583015460a08601908152600684016111e09061217f565b60c08701908152906111f46007860161217f565b9360e088019485526008860154986101008901998a5260098701611217906122e2565b966101208a01978852600a0161122c9061217f565b976101408a019889526040519960208b525160208b01525160408a0161016090526101808a0161125b916120f2565b91516001600160a01b031660608a015251888203601f190160808a015261128291906120f2565b925160a08801525160c087015251858203601f190160e08701526112a691906120f2565b9051848203601f19016101008601526112bf91906120f2565b93516101208401525192601f1983820301610140840152835190818152602001936020019060005b8181106113085784806106fc888751601f19848303016101608501526120f2565b82516001600160a01b03168652602095860195909201916001016112e7565b34610142576020366003190112610142576004356001600160401b03811161014257611372602061135f6113a7933690600401611f9f565b81604051938285809451938492016120cf565b810160018152030190206113858161217f565b9060ff60036002830154920154166040519384936060855260608501906120f2565b916020840152151560408301520390f35b34610142576040366003190112610142576113d1611f31565b6001600160a01b031660009081526009602052604090208054602435908110156101425761140561140b916106fc93612117565b90612223565b6040519182916020835260208301906120f2565b346101425761144a602061143236612231565b939183604094929451938285809451938492016120cf565b810160088152030190209060018060a01b031660005260205260406000209060018060a01b03166000526020526020604060002054604051908152f35b346101425760203660031901126101425760206114a2611f31565b6040517f00000000000000000000000000000000000000000000000000000000000000006001600160a01b039081169216919091148152f35b34610142576020366003190112610142576004356001600160401b038111610142576020611510611540923690600401611f9f565b6040519061152f60ff600383519486818187019761052381838b6120cf565b6040519384928392519283916120cf565b8101600581520301902060405190816020825491828152019160005260206000209060005b818110611590576106fc8561157c81870382611f7e565b604051918291602083526020830190612073565b8254845260209093019260019283019201611565565b34610142576115b436612032565b906040516115d460ff60038451936020818188019661052381838a6120cf565b6115ed6115e86115e2612648565b8461242f565b612336565b6115f7838361242f565b6116b05761161460206001926040518093819287519283916120cf565b810184815203019020018054600160401b8110156103b3577f51cfabebb274a439fc348592eb455cc20eb9d20c36329f87592dadc611a1dff3926116638260409460016116a195018155612117565b81546001600160a01b0397881660039290921b82811b98901b19169690961790556000858152600960205283902061169c9082906125f9565b612386565b928151908152426020820152a2005b60405162461bcd60e51b815260206004820152601060248201526f20b63932b0b23c90309036b2b6b132b960811b6044820152606490fd5b346101425761144a60206116fb36612231565b93916040939193519061152f60ff600383519486818187019761052381838b6120cf565b346101425760203660031901126101425760043560025481101561014257600060025482101561177d57600290527f405787fa12a823e0f2b7631cc41b3ba8828b3321ca811111fa75cd3aa3bb5ace0160006106fc61140b8361217f565b634e487b7160e01b81526032600452602490fd5b34610142576020366003190112610142576001600160a01b036117b2611f31565b16600052600960205260406000208054906117cc82612286565b916117da6040519384611f7e565b80835260208301809260005260206000206000915b83831061185d57848660405191829160208301906020845251809152604083019060408160051b85010192916000905b82821061182e57505050500390f35b9193600191939550602061184d8192603f198a820301865288516120f2565b960192019201859493919261181f565b60016020819261186c8561217f565b8152019201920191906117ef565b3461014257602061189361188d36612032565b9061242f565b6040519015158152f35b34610142576118ab36612032565b906040516118cb60ff60038451936020818188019661052381838a6120cf565b60405160208184516118de8183876120cf565b810160018152030190206040516118f481611f63565b6118fd8261217f565b8152606060ff6003611911600186016122e2565b946020850195865260028101546040860152015416151591015260009160005b8251518110156119b0576040808051602081895161195081838a6120cf565b8101600881520301902060018060a01b0361196c8588516123e9565b516001600160a01b039116811660009081526020928352928320908a1683529052205461199c575b600101611931565b926119a8600191612377565b939050611994565b50906119be61062f846123fd565b9260009260005b8351518110156106ed5760408080516020818b516119e481838a6120cf565b8101600881520301902060018060a01b03611a008589516123e9565b516001600160a01b039116811660009081526020928352928320908c1683529052205480611a32575b506001016119c5565b60019195611a4b91838060a01b036106c98989516123e9565b9490611a29565b34610142576000366003190112610142576020600254604051908152f35b34610142576020366003190112610142576004356001600160401b03811161014257611aec6001611add6020611aad6106fc953690600401611f9f565b6040519061152f60ff6003835194868181870197611acc81838b6120cf565b81018b8152030190200154166123a6565b810184815203019020016122e2565b604051918291602083526020830190611ff5565b3461014257604036600319011261014257600435611b1c611f1b565b90611b25612626565b806000526003602052611b3e816040600020541461229d565b806000526003602052604060002060405190611b5982611f47565b80548252611b696001820161217f565b6020830190815260028201546001600160a01b0316604084015291611b906003830161217f565b606082015260048201546080820152610140611bf9600a60058501549460a08501958652611bc06006820161217f565b60c0860152611bd16007820161217f565b60e08601526008810154610100860152611bed600982016122e2565b6101208601520161217f565b910152611c04612648565b915191611c146115e8828561242f565b6040519183519260208181870195611c2d8183896120cf565b8101600881520301902060018060a01b038316600052602052604060002060018060a01b03871660005260205260406000205415611ed65751936040516020818651611c7a8183896120cf565b8101600881520301902060018060a01b038316600052602052604060002060018060a01b0387166000526020528460406000205410611e9a576040516020818651611cc68183896120cf565b8101600881520301902060018060a01b038316600052602052604060002060018060a01b0387166000526020526040600020805490868203918211610d935755600754611d1281612377565b600755611d1d612648565b60405196906001600160a01b031632141560c088016001600160401b038111898210176103b35760409081528489526001600160a01b039586166020808b018281529b88168b840181815260608d018781524260808f0190815260a08f0188815260008b81526006909652969094209d518e559d5160018e018054918c166001600160a01b0319928316179055905160028e01805491909b169116179098559a5160038b0155995160048a0155516005909801805460ff191698151560ff1698909817909755929695869390604051918983526020830152604082015242606082015260807fc2fbb7f1ca94ac6e3e6a91e666986ddcf7fa936faa9ef0aa29f4403f98af09ed91a460405180809284518092611e38926120cf565b8101600881520360200190208260005260205260406000208360005260205260406000205490611e6790612386565b9060405190815260207fc247df220fd28f38c52084b08c97414ffcb3c5f5a3a6c1bbb17745bb3e8cfb0a91a46001600055005b60405162461bcd60e51b8152602060048201526014602482015273088cac4e840c2dadeeadce840dad2e6dac2e8c6d60631b6044820152606490fd5b60405162461bcd60e51b815260206004820152601860248201527f4e6f206465627420746f2074686973206372656469746f7200000000000000006044820152606490fd5b602435906001600160a01b038216820361014257565b600435906001600160a01b038216820361014257565b61016081019081106001600160401b038211176103b357604052565b608081019081106001600160401b038211176103b357604052565b90601f801991011681019081106001600160401b038211176103b357604052565b81601f82011215610142578035906001600160401b0382116103b35760405192611fd3601f8401601f191660200185611f7e565b8284526020838301011161014257816000926020809301838601378301015290565b906020808351928381520192019060005b8181106120135750505090565b82516001600160a01b0316845260209384019390920191600101612006565b604060031982011261014257600435906001600160401b0382116101425761205c91600401611f9f565b906024356001600160a01b03811681036101425790565b906020808351928381520192019060005b8181106120915750505090565b8251845260209384019390920191600101612084565b90916120be6120cc93604084526040840190611ff5565b916020818403910152612073565b90565b60005b8381106120e25750506000910152565b81810151838201526020016120d2565b9060209161210b815180928185528580860191016120cf565b601f01601f1916010190565b805482101561212f5760005260206000200190600090565b634e487b7160e01b600052603260045260246000fd5b90600182811c92168015612175575b602083101461215f57565b634e487b7160e01b600052602260045260246000fd5b91607f1691612154565b906040519182600082549261219384612145565b808452936001811690811561220157506001146121ba575b506121b892500383611f7e565b565b90506000929192526020600020906000915b8183106121e55750509060206121b892820101386121ab565b60209193508060019154838589010152019101909184926121cc565b9050602092506121b894915060ff191682840152151560051b820101386121ab565b9061039d576120cc9061217f565b606060031982011261014257600435906001600160401b0382116101425761225b91600401611f9f565b906024356001600160a01b038116810361014257906044356001600160a01b03811681036101425790565b6001600160401b0381116103b35760051b60200190565b156122a457565b60405162461bcd60e51b8152602060048201526016602482015275115e1c195b9cd948191bd95cc81b9bdd08195e1a5cdd60521b6044820152606490fd5b906040519182815491828252602082019060005260206000209260005b8181106123145750506121b892500383611f7e565b84546001600160a01b03168352600194850194879450602090930192016122ff565b1561233d57565b60405162461bcd60e51b81526020600482015260126024820152712737ba10309033b937bab81036b2b6b132b960711b6044820152606490fd5b6000198114610d935760010190565b61239e906020604051928284809451938492016120cf565b810103902090565b156123ad57565b60405162461bcd60e51b815260206004820152601460248201527311dc9bdd5c08191bd95cc81b9bdd08195e1a5cdd60621b6044820152606490fd5b805182101561212f5760209160051b010190565b9061240782612286565b6124146040519182611f7e565b8281528092612425601f1991612286565b0190602036910137565b60206124489181604051938285809451938492016120cf565b810160018152030190209060405161245f81611f63565b6124688361217f565b8152606060ff600361247c600187016122e2565b956020850196875260028101546040860152015416151591015260005b825180518210156124d9576001600160a01b03906124b89083906123e9565b51166001600160a01b038316146124d157600101612499565b505050600190565b50505050600090565b8181106124ed575050565b600081556001016124e2565b91909182516001600160401b0381116103b3576125168254612145565b601f81116125bc575b506020601f821160011461255a578192939460009261254f575b50508160011b916000199060031b1c1916179055565b015190503880612539565b601f1982169083600052806000209160005b8181106125a45750958360019596971061258b575b505050811b019055565b015160001960f88460031b161c19169055388080612581565b9192602060018192868b01518155019401920161256c565b6125e990836000526020600020601f840160051c810191602085106125ef575b601f0160051c01906124e2565b3861251f565b90915081906125dc565b8054600160401b8110156103b35761261691600182018155612117565b91909161039d576121b8916124f9565b600260005414612637576002600055565b633ee5aeb560e01b60005260046000fd5b60143610158061266f575b1561266b576013193601368111610142573560601c90565b3390565b50337f00000000000000000000000000000000000000000000000000000000000000006001600160a01b031614612653565b9060005b82518110156126d9576001600160a01b036126c082856123e9565b51166001600160a01b038316146124d1576001016126a5565b50505060009056fea264697066735822122012732701bde86d35fe1ed3c8362d31b26e58991e5a43cd72d7085e4fa99ec6ce64736f6c634300081b0033","opcodes":"PUSH1 0xA0 CALLVALUE PUSH2 0x87 JUMPI PUSH1 0x1F PUSH2 0x27BA CODESIZE DUP2 SWAP1 SUB SWAP2 DUP3 ADD PUSH1 0x1F NOT AND DUP4 ADD SWAP2 PUSH1 0x1 PUSH1 0x1 PUSH1 0x40 SHL SUB DUP4 GT DUP5 DUP5 LT OR PUSH2 0x8C JUMPI DUP1 DUP5 SWAP3 PUSH1 0x20 SWAP5 PUSH1 0x40 MSTORE DUP4 CODECOPY DUP2 ADD SUB SLT PUSH2 0x87 JUMPI MLOAD PUSH1 0x1 PUSH1 0x1 PUSH1 0xA0 SHL SUB DUP2 AND DUP2 SUB PUSH2 0x87 JUMPI PUSH1 0x80 MSTORE PUSH1 0x1 PUSH1 0x0 SSTORE PUSH1 0x1 PUSH1 0x4 SSTORE PUSH1 0x1 PUSH1 0x7 SSTORE PUSH1 0x40 MLOAD PUSH2 0x2717 SWAP1 DUP2 PUSH2 0xA3 DUP3 CODECOPY PUSH1 0x80 MLOAD DUP2 DUP2 DUP2 PUSH2 0x1084 ADD MSTORE DUP2 DUP2 PUSH2 0x14A7 ADD MSTORE PUSH2 0x2673 ADD MSTORE RETURN JUMPDEST PUSH1 0x0 DUP1 REVERT JUMPDEST PUSH4 0x4E487B71 PUSH1 0xE0 SHL PUSH1 0x0 MSTORE PUSH1 0x41 PUSH1 0x4 MSTORE PUSH1 0x24 PUSH1 0x0 REVERT INVALID PUSH1 0x80 PUSH1 0x40 MSTORE PUSH1 0x4 CALLDATASIZE LT ISZERO PUSH2 0x12 JUMPI PUSH1 0x0 DUP1 REVERT JUMPDEST PUSH1 0x0 CALLDATALOAD PUSH1 0xE0 SHR DUP1 PUSH4 0x245D036 EQ PUSH2 0x1B00 JUMPI DUP1 PUSH4 0x2750201 EQ PUSH2 0x1A70 JUMPI DUP1 PUSH4 0x6545A93 EQ PUSH2 0x1A52 JUMPI DUP1 PUSH4 0x7EDFFE0 EQ PUSH2 0x189D JUMPI DUP1 PUSH4 0x15B3671D EQ PUSH2 0x187A JUMPI DUP1 PUSH4 0x3DA04E4A EQ PUSH2 0x1791 JUMPI DUP1 PUSH4 0x4093D7A1 EQ PUSH2 0x171F JUMPI DUP1 PUSH4 0x40BE33E8 EQ PUSH2 0x16E8 JUMPI DUP1 PUSH4 0x45E39705 EQ PUSH2 0x15A6 JUMPI DUP1 PUSH4 0x4BD4622C EQ PUSH2 0x14DB JUMPI DUP1 PUSH4 0x572B6C05 EQ PUSH2 0x1487 JUMPI DUP1 PUSH4 0x5768A315 EQ PUSH2 0x141F JUMPI DUP1 PUSH4 0x60A9E097 EQ PUSH2 0x13B8 JUMPI DUP1 PUSH4 0x6B52230B EQ PUSH2 0x1327 JUMPI DUP1 PUSH4 0x735E5DB6 EQ PUSH2 0x10D1 JUMPI DUP1 PUSH4 0x76840B60 EQ PUSH2 0x10B3 JUMPI DUP1 PUSH4 0x7DA0A877 EQ PUSH2 0x106E JUMPI DUP1 PUSH4 0x87D81789 EQ PUSH2 0xFF6 JUMPI DUP1 PUSH4 0x8A6120A6 EQ PUSH2 0x87D JUMPI DUP1 PUSH4 0x93537DD8 EQ PUSH2 0x803 JUMPI DUP1 PUSH4 0xAF4AFE0A EQ PUSH2 0x700 JUMPI DUP1 PUSH4 0xCDC88E02 EQ PUSH2 0x4F5 JUMPI DUP1 PUSH4 0xCFBE575C EQ PUSH2 0x147 JUMPI PUSH4 0xDDCAD2AE EQ PUSH2 0x124 JUMPI PUSH1 0x0 DUP1 REVERT JUMPDEST CALLVALUE PUSH2 0x142 JUMPI PUSH1 0x0 CALLDATASIZE PUSH1 0x3 NOT ADD SLT PUSH2 0x142 JUMPI PUSH1 0x20 PUSH1 0x4 SLOAD PUSH1 0x40 MLOAD SWAP1 DUP2 MSTORE RETURN JUMPDEST PUSH1 0x0 DUP1 REVERT JUMPDEST CALLVALUE PUSH2 0x142 JUMPI PUSH1 0x40 CALLDATASIZE PUSH1 0x3 NOT ADD SLT PUSH2 0x142 JUMPI PUSH1 0x4 CALLDATALOAD PUSH1 0x1 PUSH1 0x1 PUSH1 0x40 SHL SUB DUP2 GT PUSH2 0x142 JUMPI PUSH2 0x177 SWAP1 CALLDATASIZE SWAP1 PUSH1 0x4 ADD PUSH2 0x1F9F JUMP JUMPDEST PUSH1 0x24 CALLDATALOAD SWAP1 PUSH1 0x1 PUSH1 0x1 PUSH1 0x40 SHL SUB DUP3 GT PUSH2 0x142 JUMPI CALLDATASIZE PUSH1 0x23 DUP4 ADD SLT ISZERO PUSH2 0x142 JUMPI DUP2 PUSH1 0x4 ADD CALLDATALOAD PUSH2 0x1A2 DUP2 PUSH2 0x2286 JUMP JUMPDEST SWAP3 PUSH2 0x1B0 PUSH1 0x40 MLOAD SWAP5 DUP6 PUSH2 0x1F7E JUMP JUMPDEST DUP2 DUP5 MSTORE PUSH1 0x24 PUSH1 0x20 DUP6 ADD SWAP3 PUSH1 0x5 SHL DUP3 ADD ADD SWAP1 CALLDATASIZE DUP3 GT PUSH2 0x142 JUMPI PUSH1 0x24 ADD SWAP2 JUMPDEST DUP2 DUP4 LT PUSH2 0x4D5 JUMPI POP POP POP PUSH1 0x40 MLOAD PUSH1 0xFF PUSH1 0x3 DUP4 MLOAD SWAP3 PUSH1 0x20 DUP2 DUP2 DUP8 ADD SWAP6 PUSH2 0x1F3 DUP2 DUP4 DUP10 PUSH2 0x20CF JUMP JUMPDEST DUP2 ADD PUSH1 0x1 DUP2 MSTORE SUB ADD SWAP1 KECCAK256 ADD SLOAD AND PUSH2 0x499 JUMPI DUP3 MLOAD ISZERO PUSH2 0x448 JUMPI PUSH2 0x21C PUSH2 0x216 PUSH2 0x2648 JUMP JUMPDEST DUP5 PUSH2 0x26A1 JUMP JUMPDEST ISZERO PUSH2 0x403 JUMPI PUSH1 0x40 MLOAD SWAP1 PUSH2 0x22E DUP3 PUSH2 0x1F63 JUMP JUMPDEST DUP3 DUP3 MSTORE PUSH1 0x20 DUP3 ADD DUP5 DUP2 MSTORE PUSH1 0x40 DUP4 ADD SWAP1 TIMESTAMP DUP3 MSTORE PUSH2 0x274 PUSH2 0x262 PUSH1 0x20 PUSH1 0x60 DUP8 ADD SWAP6 PUSH1 0x1 DUP8 MSTORE PUSH1 0x40 MLOAD DUP1 SWAP4 DUP2 SWAP3 DUP12 MLOAD SWAP3 DUP4 SWAP2 PUSH2 0x20CF JUMP JUMPDEST DUP2 ADD PUSH1 0x1 DUP2 MSTORE SUB ADD SWAP1 KECCAK256 SWAP5 MLOAD DUP6 PUSH2 0x24F9 JUMP JUMPDEST MLOAD DUP1 MLOAD SWAP1 PUSH1 0x1 DUP6 ADD SWAP1 PUSH1 0x1 PUSH1 0x1 PUSH1 0x40 SHL SUB DUP4 GT PUSH2 0x3B3 JUMPI PUSH1 0x1 PUSH1 0x40 SHL DUP4 GT PUSH2 0x3B3 JUMPI PUSH1 0x20 SWAP1 DUP3 SLOAD DUP5 DUP5 SSTORE DUP1 DUP6 LT PUSH2 0x3E6 JUMPI JUMPDEST POP ADD SWAP1 PUSH1 0x0 MSTORE PUSH1 0x20 PUSH1 0x0 KECCAK256 PUSH1 0x0 JUMPDEST DUP4 DUP2 LT PUSH2 0x3C9 JUMPI DUP9 DUP9 PUSH2 0x2E1 DUP10 PUSH1 0x3 DUP11 DUP11 MLOAD PUSH1 0x2 DUP5 ADD SSTORE MLOAD ISZERO ISZERO SWAP2 ADD SWAP1 PUSH1 0xFF DUP1 NOT DUP4 SLOAD AND SWAP2 ISZERO ISZERO AND OR SWAP1 SSTORE JUMP JUMPDEST PUSH1 0x2 SLOAD PUSH1 0x1 PUSH1 0x40 SHL DUP2 LT ISZERO PUSH2 0x3B3 JUMPI DUP1 PUSH1 0x1 PUSH2 0x302 SWAP3 ADD PUSH1 0x2 SSTORE PUSH1 0x2 PUSH2 0x2117 JUMP JUMPDEST PUSH2 0x39D JUMPI DUP2 PUSH2 0x310 SWAP2 PUSH2 0x24F9 JUMP JUMPDEST PUSH1 0x0 JUMPDEST DUP3 MLOAD DUP2 LT ISZERO PUSH2 0x34F JUMPI PUSH1 0x1 SWAP1 PUSH1 0x1 PUSH1 0x1 PUSH1 0xA0 SHL SUB PUSH2 0x331 DUP3 DUP7 PUSH2 0x23E9 JUMP JUMPDEST MLOAD AND PUSH1 0x0 MSTORE PUSH1 0x9 PUSH1 0x20 MSTORE PUSH2 0x349 DUP4 PUSH1 0x40 PUSH1 0x0 KECCAK256 PUSH2 0x25F9 JUMP JUMPDEST ADD PUSH2 0x313 JUMP JUMPDEST POP PUSH2 0x392 PUSH2 0x37D PUSH32 0x3599F24E25095535210B1B8CA48FBA46C30FCD53BDB6CEF3A68A38A4AD265337 SWAP3 PUSH2 0x2386 JUMP JUMPDEST SWAP3 PUSH1 0x40 MLOAD SWAP2 DUP3 SWAP2 PUSH1 0x40 DUP4 MSTORE PUSH1 0x40 DUP4 ADD SWAP1 PUSH2 0x1FF5 JUMP JUMPDEST TIMESTAMP PUSH1 0x20 DUP4 ADD MSTORE SUB SWAP1 LOG2 STOP JUMPDEST PUSH4 0x4E487B71 PUSH1 0xE0 SHL PUSH1 0x0 MSTORE PUSH1 0x0 PUSH1 0x4 MSTORE PUSH1 0x24 PUSH1 0x0 REVERT JUMPDEST PUSH4 0x4E487B71 PUSH1 0xE0 SHL PUSH1 0x0 MSTORE PUSH1 0x41 PUSH1 0x4 MSTORE PUSH1 0x24 PUSH1 0x0 REVERT JUMPDEST DUP3 MLOAD PUSH1 0x1 PUSH1 0x1 PUSH1 0xA0 SHL SUB AND DUP2 DUP4 ADD SSTORE PUSH1 0x20 SWAP1 SWAP3 ADD SWAP2 PUSH1 0x1 ADD PUSH2 0x2B4 JUMP JUMPDEST PUSH2 0x3FD SWAP1 DUP5 PUSH1 0x0 MSTORE DUP6 DUP5 PUSH1 0x0 KECCAK256 SWAP2 DUP3 ADD SWAP2 ADD PUSH2 0x24E2 JUMP JUMPDEST DUP10 PUSH2 0x2A6 JUMP JUMPDEST PUSH1 0x40 MLOAD PUSH3 0x461BCD PUSH1 0xE5 SHL DUP2 MSTORE PUSH1 0x20 PUSH1 0x4 DUP3 ADD MSTORE PUSH1 0x18 PUSH1 0x24 DUP3 ADD MSTORE PUSH32 0x43726561746F72206D7573742062652061206D656D6265720000000000000000 PUSH1 0x44 DUP3 ADD MSTORE PUSH1 0x64 SWAP1 REVERT JUMPDEST PUSH1 0x40 MLOAD PUSH3 0x461BCD PUSH1 0xE5 SHL DUP2 MSTORE PUSH1 0x20 PUSH1 0x4 DUP3 ADD MSTORE PUSH1 0x23 PUSH1 0x24 DUP3 ADD MSTORE PUSH32 0x47726F7570206D7573742068617665206174206C65617374206F6E65206D656D PUSH1 0x44 DUP3 ADD MSTORE PUSH3 0x3132B9 PUSH1 0xE9 SHL PUSH1 0x64 DUP3 ADD MSTORE PUSH1 0x84 SWAP1 REVERT JUMPDEST PUSH1 0x40 MLOAD PUSH3 0x461BCD PUSH1 0xE5 SHL DUP2 MSTORE PUSH1 0x20 PUSH1 0x4 DUP3 ADD MSTORE PUSH1 0x14 PUSH1 0x24 DUP3 ADD MSTORE PUSH20 0x47726F757020616C726561647920657869737473 PUSH1 0x60 SHL PUSH1 0x44 DUP3 ADD MSTORE PUSH1 0x64 SWAP1 REVERT JUMPDEST DUP3 CALLDATALOAD PUSH1 0x1 PUSH1 0x1 PUSH1 0xA0 SHL SUB DUP2 AND DUP2 SUB PUSH2 0x142 JUMPI DUP2 MSTORE PUSH1 0x20 SWAP3 DUP4 ADD SWAP3 ADD PUSH2 0x1CD JUMP JUMPDEST CALLVALUE PUSH2 0x142 JUMPI PUSH2 0x503 CALLDATASIZE PUSH2 0x2032 JUMP JUMPDEST SWAP1 PUSH1 0x40 MLOAD PUSH2 0x535 PUSH1 0xFF PUSH1 0x3 DUP5 MLOAD SWAP4 PUSH1 0x20 DUP2 DUP2 DUP9 ADD SWAP7 PUSH2 0x523 DUP2 DUP4 DUP11 PUSH2 0x20CF JUMP JUMPDEST DUP2 ADD PUSH1 0x1 DUP2 MSTORE SUB ADD SWAP1 KECCAK256 ADD SLOAD AND PUSH2 0x23A6 JUMP JUMPDEST PUSH1 0x40 MLOAD PUSH1 0x20 DUP2 DUP5 MLOAD PUSH2 0x548 DUP2 DUP4 DUP8 PUSH2 0x20CF JUMP JUMPDEST DUP2 ADD PUSH1 0x1 DUP2 MSTORE SUB ADD SWAP1 KECCAK256 PUSH1 0x40 MLOAD PUSH2 0x55E DUP2 PUSH2 0x1F63 JUMP JUMPDEST PUSH2 0x567 DUP3 PUSH2 0x217F JUMP JUMPDEST DUP2 MSTORE PUSH1 0x60 PUSH1 0xFF PUSH1 0x3 PUSH2 0x57B PUSH1 0x1 DUP7 ADD PUSH2 0x22E2 JUMP JUMPDEST SWAP5 PUSH1 0x20 DUP6 ADD SWAP6 DUP7 MSTORE PUSH1 0x2 DUP2 ADD SLOAD PUSH1 0x40 DUP7 ADD MSTORE ADD SLOAD AND ISZERO ISZERO SWAP2 ADD MSTORE PUSH1 0x0 SWAP2 PUSH1 0x0 JUMPDEST DUP3 MLOAD MLOAD DUP2 LT ISZERO PUSH2 0x621 JUMPI PUSH1 0x40 DUP1 DUP1 MLOAD PUSH1 0x20 DUP2 DUP10 MLOAD PUSH2 0x5BA DUP2 DUP4 DUP11 PUSH2 0x20CF JUMP JUMPDEST DUP2 ADD PUSH1 0x8 DUP2 MSTORE SUB ADD SWAP1 KECCAK256 PUSH1 0x0 SWAP1 PUSH1 0x1 DUP1 PUSH1 0xA0 SHL SUB DUP11 AND DUP3 MSTORE PUSH1 0x20 MSTORE KECCAK256 PUSH1 0x1 DUP1 PUSH1 0xA0 SHL SUB PUSH2 0x5E8 DUP5 DUP8 MLOAD PUSH2 0x23E9 JUMP JUMPDEST MLOAD AND PUSH1 0x1 PUSH1 0x1 PUSH1 0xA0 SHL SUB AND PUSH1 0x0 SWAP1 DUP2 MSTORE PUSH1 0x20 SWAP2 SWAP1 SWAP2 MSTORE KECCAK256 SLOAD PUSH2 0x60D JUMPI JUMPDEST PUSH1 0x1 ADD PUSH2 0x59B JUMP JUMPDEST SWAP3 PUSH2 0x619 PUSH1 0x1 SWAP2 PUSH2 0x2377 JUMP JUMPDEST SWAP4 SWAP1 POP PUSH2 0x605 JUMP JUMPDEST POP SWAP1 PUSH2 0x635 PUSH2 0x62F DUP5 PUSH2 0x23FD JUMP JUMPDEST SWAP4 PUSH2 0x23FD JUMP JUMPDEST SWAP3 PUSH1 0x0 SWAP3 PUSH1 0x0 JUMPDEST DUP4 MLOAD MLOAD DUP2 LT ISZERO PUSH2 0x6ED JUMPI PUSH1 0x40 DUP1 DUP1 MLOAD PUSH1 0x20 DUP2 DUP12 MLOAD PUSH2 0x65B DUP2 DUP4 DUP11 PUSH2 0x20CF JUMP JUMPDEST DUP2 ADD PUSH1 0x8 DUP2 MSTORE SUB ADD SWAP1 KECCAK256 PUSH1 0x0 SWAP1 PUSH1 0x1 DUP1 PUSH1 0xA0 SHL SUB DUP13 AND DUP3 MSTORE PUSH1 0x20 MSTORE KECCAK256 PUSH1 0x1 DUP1 PUSH1 0xA0 SHL SUB PUSH2 0x689 DUP5 DUP9 MLOAD PUSH2 0x23E9 JUMP JUMPDEST MLOAD AND PUSH1 0x1 PUSH1 0x1 PUSH1 0xA0 SHL SUB AND PUSH1 0x0 SWAP1 DUP2 MSTORE PUSH1 0x20 SWAP2 SWAP1 SWAP2 MSTORE KECCAK256 SLOAD DUP1 PUSH2 0x6B0 JUMPI JUMPDEST POP PUSH1 0x1 ADD PUSH2 0x63C JUMP JUMPDEST PUSH1 0x1 SWAP2 SWAP6 PUSH2 0x6E6 SWAP2 DUP4 DUP1 PUSH1 0xA0 SHL SUB PUSH2 0x6C9 DUP10 DUP10 MLOAD PUSH2 0x23E9 JUMP JUMPDEST MLOAD AND PUSH2 0x6D5 DUP4 DUP9 PUSH2 0x23E9 JUMP JUMPDEST MSTORE PUSH2 0x6E0 DUP3 DUP11 PUSH2 0x23E9 JUMP JUMPDEST MSTORE PUSH2 0x2377 JUMP JUMPDEST SWAP5 SWAP1 PUSH2 0x6A7 JUMP JUMPDEST PUSH1 0x40 MLOAD DUP1 PUSH2 0x6FC DUP9 DUP7 DUP4 PUSH2 0x20A7 JUMP JUMPDEST SUB SWAP1 RETURN JUMPDEST CALLVALUE PUSH2 0x142 JUMPI PUSH1 0x20 CALLDATASIZE PUSH1 0x3 NOT ADD SLT PUSH2 0x142 JUMPI PUSH1 0x4 CALLDATALOAD PUSH1 0x0 MSTORE PUSH1 0x3 PUSH1 0x20 MSTORE PUSH1 0x40 PUSH1 0x0 KECCAK256 DUP1 SLOAD PUSH1 0x1 DUP3 ADD PUSH2 0x730 SWAP1 PUSH2 0x217F JUMP JUMPDEST PUSH1 0x2 DUP4 ADD SLOAD SWAP1 SWAP3 PUSH1 0x1 PUSH1 0x1 PUSH1 0xA0 SHL SUB SWAP1 SWAP2 AND SWAP1 PUSH2 0x74F PUSH1 0x3 DUP3 ADD PUSH2 0x217F JUMP JUMPDEST PUSH1 0x4 DUP3 ADD SLOAD PUSH1 0x5 DUP4 ADD SLOAD SWAP1 PUSH2 0x766 PUSH1 0x6 DUP6 ADD PUSH2 0x217F JUMP JUMPDEST SWAP2 PUSH2 0x773 PUSH1 0x7 DUP7 ADD PUSH2 0x217F JUMP JUMPDEST SWAP4 PUSH1 0x8 DUP7 ADD SLOAD SWAP6 PUSH1 0xA ADD PUSH2 0x786 SWAP1 PUSH2 0x217F JUMP JUMPDEST SWAP7 PUSH1 0x40 MLOAD SWAP10 DUP11 SWAP10 DUP11 MSTORE PUSH1 0x20 DUP11 ADD PUSH2 0x140 SWAP1 MSTORE PUSH2 0x140 DUP11 ADD PUSH2 0x7A6 SWAP2 PUSH2 0x20F2 JUMP JUMPDEST SWAP1 PUSH1 0x40 DUP11 ADD MSTORE DUP9 DUP2 SUB PUSH1 0x60 DUP11 ADD MSTORE PUSH2 0x7BD SWAP2 PUSH2 0x20F2 JUMP JUMPDEST SWAP2 PUSH1 0x80 DUP9 ADD MSTORE PUSH1 0xA0 DUP8 ADD MSTORE DUP6 DUP2 SUB PUSH1 0xC0 DUP8 ADD MSTORE PUSH2 0x7D9 SWAP2 PUSH2 0x20F2 JUMP JUMPDEST DUP5 DUP2 SUB PUSH1 0xE0 DUP7 ADD MSTORE PUSH2 0x7EA SWAP2 PUSH2 0x20F2 JUMP JUMPDEST SWAP1 PUSH2 0x100 DUP5 ADD MSTORE DUP3 DUP2 SUB PUSH2 0x120 DUP5 ADD MSTORE PUSH2 0x6FC SWAP2 PUSH2 0x20F2 JUMP JUMPDEST CALLVALUE PUSH2 0x142 JUMPI PUSH1 0x40 CALLDATASIZE PUSH1 0x3 NOT ADD SLT PUSH2 0x142 JUMPI PUSH1 0x4 CALLDATALOAD PUSH1 0x1 PUSH1 0x1 PUSH1 0x40 SHL SUB DUP2 GT PUSH2 0x142 JUMPI PUSH2 0x833 SWAP1 CALLDATASIZE SWAP1 PUSH1 0x4 ADD PUSH2 0x1F9F JUMP JUMPDEST PUSH2 0x84F PUSH1 0x20 PUSH1 0x24 CALLDATALOAD SWAP3 DUP2 PUSH1 0x40 MLOAD SWAP4 DUP3 DUP6 DUP1 SWAP5 MLOAD SWAP4 DUP5 SWAP3 ADD PUSH2 0x20CF JUMP JUMPDEST DUP2 ADD PUSH1 0x5 DUP2 MSTORE SUB ADD SWAP1 KECCAK256 DUP1 SLOAD DUP3 LT ISZERO PUSH2 0x142 JUMPI PUSH1 0x20 SWAP2 PUSH2 0x86E SWAP2 PUSH2 0x2117 JUMP JUMPDEST SWAP1 SLOAD SWAP1 PUSH1 0x3 SHL SHR PUSH1 0x40 MLOAD SWAP1 DUP2 MSTORE RETURN JUMPDEST CALLVALUE PUSH2 0x142 JUMPI PUSH2 0x100 CALLDATASIZE PUSH1 0x3 NOT ADD SLT PUSH2 0x142 JUMPI PUSH1 0x4 CALLDATALOAD PUSH1 0x1 PUSH1 0x1 PUSH1 0x40 SHL SUB DUP2 GT PUSH2 0x142 JUMPI PUSH2 0x8AE SWAP1 CALLDATASIZE SWAP1 PUSH1 0x4 ADD PUSH2 0x1F9F JUMP JUMPDEST PUSH2 0x8B6 PUSH2 0x1F1B JUMP JUMPDEST SWAP1 PUSH1 0x44 CALLDATALOAD PUSH1 0x1 PUSH1 0x1 PUSH1 0x40 SHL SUB DUP2 GT PUSH2 0x142 JUMPI PUSH2 0x8D6 SWAP1 CALLDATASIZE SWAP1 PUSH1 0x4 ADD PUSH2 0x1F9F JUMP JUMPDEST SWAP2 PUSH1 0x64 CALLDATALOAD SWAP3 PUSH1 0x84 CALLDATALOAD SWAP3 PUSH1 0xA4 CALLDATALOAD PUSH1 0x1 PUSH1 0x1 PUSH1 0x40 SHL SUB DUP2 GT PUSH2 0x142 JUMPI PUSH2 0x8FE SWAP1 CALLDATASIZE SWAP1 PUSH1 0x4 ADD PUSH2 0x1F9F JUMP JUMPDEST SWAP3 PUSH1 0xC4 CALLDATALOAD PUSH1 0x1 PUSH1 0x1 PUSH1 0x40 SHL SUB DUP2 GT PUSH2 0x142 JUMPI PUSH2 0x91E SWAP1 CALLDATASIZE SWAP1 PUSH1 0x4 ADD PUSH2 0x1F9F JUMP JUMPDEST PUSH1 0xE4 CALLDATALOAD PUSH1 0x1 PUSH1 0x1 PUSH1 0x40 SHL SUB DUP2 GT PUSH2 0x142 JUMPI PUSH2 0x93D SWAP1 CALLDATASIZE SWAP1 PUSH1 0x4 ADD PUSH2 0x1F9F JUMP JUMPDEST SWAP6 PUSH1 0x40 MLOAD SWAP6 DUP5 MLOAD SWAP7 DUP1 PUSH1 0x20 DUP8 ADD SWAP9 PUSH2 0x956 DUP2 DUP4 DUP13 PUSH2 0x20CF JUMP JUMPDEST DUP2 ADD PUSH1 0x1 DUP2 MSTORE SUB PUSH1 0x20 ADD SWAP1 KECCAK256 PUSH1 0x3 ADD SLOAD PUSH1 0xFF AND PUSH2 0x972 SWAP1 PUSH2 0x23A6 JUMP JUMPDEST PUSH2 0x97A PUSH2 0x2648 JUMP JUMPDEST PUSH2 0x984 SWAP1 DUP7 PUSH2 0x242F JUMP JUMPDEST PUSH2 0x98D SWAP1 PUSH2 0x2336 JUMP JUMPDEST PUSH2 0x995 PUSH2 0x2626 JUMP JUMPDEST DUP9 ISZERO PUSH2 0xFA5 JUMPI DUP2 ISZERO PUSH2 0xF4F JUMPI DUP6 MLOAD ISZERO PUSH2 0xF11 JUMPI DUP3 MLOAD ISZERO PUSH2 0xED7 JUMPI PUSH1 0x1 PUSH1 0x1 PUSH1 0xA0 SHL SUB DUP5 AND SWAP4 DUP5 ISZERO PUSH2 0xE9A JUMPI PUSH2 0x9CA SWAP1 DUP7 PUSH2 0x242F JUMP JUMPDEST ISZERO PUSH2 0xE55 JUMPI PUSH1 0x4 SLOAD PUSH2 0x9DB DUP2 PUSH2 0x2377 JUMP JUMPDEST PUSH1 0x4 SSTORE PUSH1 0x1 PUSH1 0x40 MLOAD PUSH1 0x20 DUP2 DUP1 PUSH2 0x9F5 DUP14 DUP13 MLOAD SWAP3 DUP4 SWAP2 PUSH2 0x20CF JUMP JUMPDEST DUP2 ADD DUP5 DUP2 MSTORE SUB ADD SWAP1 KECCAK256 ADD SLOAD PUSH1 0x0 NOT DUP2 ADD SWAP1 DUP2 GT PUSH2 0xD93 JUMPI PUSH2 0xA15 SWAP1 PUSH2 0x23FD JUMP JUMPDEST SWAP10 PUSH1 0x0 SWAP8 DUP12 DUP10 PUSH1 0x1 PUSH2 0xA36 PUSH1 0x20 DUP15 JUMPDEST DUP14 PUSH1 0x40 MLOAD SWAP4 DUP5 SWAP3 DUP4 SWAP3 MLOAD SWAP3 DUP4 SWAP2 PUSH2 0x20CF JUMP JUMPDEST DUP2 ADD DUP5 DUP2 MSTORE SUB ADD SWAP1 KECCAK256 ADD SLOAD DUP2 LT ISZERO PUSH2 0xAEC JUMPI SWAP1 DUP2 DUP10 PUSH2 0xA75 DUP15 SWAP5 PUSH1 0x1 DUP15 PUSH1 0x20 PUSH1 0x40 MLOAD DUP1 SWAP3 MLOAD PUSH2 0xA66 DUP2 DUP4 DUP14 PUSH2 0x20CF JUMP JUMPDEST DUP2 ADD DUP5 DUP2 MSTORE SUB ADD SWAP1 KECCAK256 ADD PUSH2 0x2117 JUMP JUMPDEST SWAP1 SLOAD PUSH1 0x3 SWAP2 SWAP1 SWAP2 SHL SHR PUSH1 0x1 PUSH1 0x1 PUSH1 0xA0 SHL SUB AND SUB PUSH2 0xA9E JUMPI JUMPDEST PUSH2 0xA36 PUSH1 0x20 PUSH1 0x1 DUP1 SWAP4 ADD SWAP4 SWAP5 PUSH2 0xA24 JUMP JUMPDEST SWAP11 PUSH2 0xA36 PUSH1 0x20 PUSH1 0x1 PUSH2 0xAE1 DUP16 SWAP5 DUP16 DUP4 SWAP7 DUP5 PUSH2 0xA66 DUP8 DUP13 PUSH2 0xAC9 SWAP6 PUSH1 0x40 MLOAD SWAP4 DUP5 SWAP3 DUP4 SWAP3 MLOAD SWAP3 DUP4 SWAP2 PUSH2 0x20CF JUMP JUMPDEST DUP5 DUP1 PUSH1 0xA0 SHL SUB SWAP2 SLOAD SWAP1 PUSH1 0x3 SHL SHR AND PUSH2 0x6E0 DUP3 DUP10 PUSH2 0x23E9 JUMP JUMPDEST SWAP15 SWAP4 POP POP POP POP PUSH2 0xA8D JUMP JUMPDEST POP SWAP10 SWAP7 SWAP8 SWAP6 SWAP9 POP DUP11 DUP11 PUSH1 0x40 MLOAD SWAP3 PUSH2 0xB02 DUP5 PUSH2 0x1F47 JUMP JUMPDEST DUP6 DUP5 MSTORE DUP12 PUSH1 0x20 DUP6 ADD SWAP2 DUP11 DUP4 MSTORE PUSH1 0x40 DUP7 ADD SWAP1 DUP14 DUP3 MSTORE PUSH1 0x60 DUP8 ADD SWAP1 DUP2 MSTORE PUSH1 0x80 DUP8 ADD DUP9 DUP2 MSTORE PUSH1 0xA0 DUP9 ADD SWAP2 DUP13 DUP4 MSTORE PUSH1 0xC0 DUP10 ADD SWAP4 DUP13 DUP6 MSTORE PUSH1 0xE0 DUP11 ADD SWAP6 DUP7 MSTORE PUSH2 0x100 DUP11 ADD SWAP7 TIMESTAMP DUP9 MSTORE PUSH2 0x120 DUP12 ADD SWAP9 DUP10 MSTORE PUSH2 0x140 DUP12 ADD SWAP10 DUP11 MSTORE DUP13 PUSH1 0x0 MSTORE PUSH1 0x3 PUSH1 0x20 MSTORE PUSH1 0x40 PUSH1 0x0 KECCAK256 SWAP11 MLOAD DUP12 SSTORE MLOAD PUSH1 0x1 DUP12 ADD SWAP1 PUSH2 0xB75 SWAP2 PUSH2 0x24F9 JUMP JUMPDEST MLOAD PUSH1 0x2 DUP11 ADD DUP1 SLOAD PUSH1 0x1 PUSH1 0x1 PUSH1 0xA0 SHL SUB NOT AND PUSH1 0x1 PUSH1 0x1 PUSH1 0xA0 SHL SUB SWAP3 SWAP1 SWAP3 AND SWAP2 SWAP1 SWAP2 OR SWAP1 SSTORE MLOAD PUSH2 0xBA6 SWAP1 PUSH1 0x3 DUP11 ADD PUSH2 0x24F9 JUMP JUMPDEST MLOAD PUSH1 0x4 DUP9 ADD SSTORE MLOAD PUSH1 0x5 DUP8 ADD SSTORE MLOAD PUSH2 0xBC0 SWAP1 PUSH1 0x6 DUP8 ADD PUSH2 0x24F9 JUMP JUMPDEST MLOAD PUSH2 0xBCE SWAP1 PUSH1 0x7 DUP7 ADD PUSH2 0x24F9 JUMP JUMPDEST MLOAD PUSH1 0x8 DUP5 ADD SSTORE MLOAD DUP1 MLOAD SWAP1 PUSH1 0x9 DUP5 ADD SWAP1 PUSH1 0x1 PUSH1 0x1 PUSH1 0x40 SHL SUB DUP4 GT PUSH2 0x3B3 JUMPI PUSH1 0x1 PUSH1 0x40 SHL DUP4 GT PUSH2 0x3B3 JUMPI PUSH1 0x20 SWAP1 DUP3 SLOAD DUP5 DUP5 SSTORE DUP1 DUP6 LT PUSH2 0xE38 JUMPI JUMPDEST POP ADD SWAP1 PUSH1 0x0 MSTORE PUSH1 0x20 PUSH1 0x0 KECCAK256 PUSH1 0x0 JUMPDEST DUP4 DUP2 LT PUSH2 0xE1B JUMPI POP POP POP POP SWAP1 PUSH1 0xA PUSH2 0xC2E SWAP3 MLOAD SWAP2 ADD PUSH2 0x24F9 JUMP JUMPDEST PUSH1 0x40 MLOAD PUSH1 0x20 DUP2 DUP8 MLOAD PUSH2 0xC41 DUP2 DUP4 DUP13 PUSH2 0x20CF JUMP JUMPDEST DUP2 ADD PUSH1 0x5 DUP2 MSTORE SUB ADD SWAP1 KECCAK256 DUP1 SLOAD PUSH1 0x1 PUSH1 0x40 SHL DUP2 LT ISZERO PUSH2 0x3B3 JUMPI PUSH2 0xC68 SWAP2 PUSH1 0x1 DUP3 ADD DUP2 SSTORE PUSH2 0x2117 JUMP JUMPDEST DUP2 SLOAD SWAP1 PUSH1 0x3 SHL SWAP1 DUP5 DUP3 SHL SWAP2 PUSH1 0x0 NOT SWAP1 SHL NOT AND OR SWAP1 SSTORE PUSH1 0x0 JUMPDEST DUP10 MLOAD DUP2 LT ISZERO PUSH2 0xDA9 JUMPI PUSH1 0x40 DUP1 DUP1 MLOAD PUSH1 0x20 DUP2 DUP1 PUSH2 0xCA0 DUP14 DUP14 MLOAD SWAP3 DUP4 SWAP2 PUSH2 0x20CF JUMP JUMPDEST PUSH1 0x8 SWAP1 DUP3 ADD SWAP1 DUP2 MSTORE SUB ADD SWAP1 KECCAK256 PUSH1 0x1 PUSH1 0x1 PUSH1 0xA0 SHL SUB PUSH2 0xCBE DUP6 DUP16 PUSH2 0x23E9 JUMP JUMPDEST MLOAD AND SWAP1 PUSH1 0x0 SWAP2 PUSH1 0x1 DUP1 PUSH1 0xA0 SHL SUB AND DUP3 MSTORE PUSH1 0x20 MSTORE KECCAK256 PUSH1 0x0 SWAP1 DUP11 DUP3 MSTORE PUSH1 0x20 MSTORE KECCAK256 SWAP1 DUP2 SLOAD DUP7 DUP2 ADD DUP1 SWAP2 GT PUSH2 0xD93 JUMPI SWAP1 SWAP2 SSTORE PUSH1 0x1 SWAP1 DUP9 DUP8 PUSH1 0x40 DUP1 DUP15 PUSH2 0xD20 PUSH1 0x20 DUP15 PUSH1 0x1 PUSH1 0x1 PUSH1 0xA0 SHL SUB PUSH2 0xD0D DUP11 DUP7 PUSH2 0x23E9 JUMP JUMPDEST MLOAD AND SWAP7 DUP6 MLOAD SWAP4 DUP5 SWAP3 DUP4 SWAP3 MLOAD SWAP3 DUP4 SWAP2 PUSH2 0x20CF JUMP JUMPDEST DUP2 ADD PUSH1 0x8 DUP2 MSTORE SUB ADD SWAP1 KECCAK256 SWAP1 PUSH2 0xD3B DUP8 DUP10 DUP1 PUSH1 0xA0 SHL SUB SWAP3 PUSH2 0x23E9 JUMP JUMPDEST MLOAD AND SWAP1 PUSH1 0x0 SWAP2 DUP9 DUP1 PUSH1 0xA0 SHL SUB AND DUP3 MSTORE PUSH1 0x20 MSTORE KECCAK256 PUSH1 0x0 SWAP1 DUP5 DUP3 MSTORE PUSH1 0x20 MSTORE KECCAK256 SLOAD PUSH32 0xC247DF220FD28F38C52084B08C97414FFCB3C5F5A3A6C1BBB17745BB3E8CFB0A PUSH1 0x20 PUSH2 0xD85 DUP13 PUSH2 0x2386 JUMP JUMPDEST SWAP3 PUSH1 0x40 MLOAD SWAP1 DUP2 MSTORE LOG4 ADD PUSH2 0xC80 JUMP JUMPDEST PUSH4 0x4E487B71 PUSH1 0xE0 SHL PUSH1 0x0 MSTORE PUSH1 0x11 PUSH1 0x4 MSTORE PUSH1 0x24 PUSH1 0x0 REVERT JUMPDEST POP DUP7 SWAP4 PUSH32 0xCC762AF87A9E4B178C686AC9675008FF8324A12CEB2E2A23052E2186BB184C14 SWAP2 PUSH2 0xE0B DUP11 PUSH2 0xDFD PUSH2 0xDDE DUP11 PUSH2 0x2386 JUMP JUMPDEST SWAP8 PUSH1 0x40 MLOAD SWAP6 DUP7 SWAP6 DUP7 MSTORE PUSH1 0x20 DUP7 ADD MSTORE PUSH1 0xA0 PUSH1 0x40 DUP7 ADD MSTORE PUSH1 0xA0 DUP6 ADD SWAP1 PUSH2 0x20F2 JUMP JUMPDEST SWAP1 DUP4 DUP3 SUB PUSH1 0x60 DUP6 ADD MSTORE PUSH2 0x20F2 JUMP JUMPDEST TIMESTAMP PUSH1 0x80 DUP4 ADD MSTORE SUB SWAP1 LOG4 PUSH1 0x1 PUSH1 0x0 SSTORE STOP JUMPDEST DUP3 MLOAD PUSH1 0x1 PUSH1 0x1 PUSH1 0xA0 SHL SUB AND DUP2 DUP4 ADD SSTORE PUSH1 0x20 SWAP1 SWAP3 ADD SWAP2 PUSH1 0x1 ADD PUSH2 0xC14 JUMP JUMPDEST PUSH2 0xE4F SWAP1 DUP5 PUSH1 0x0 MSTORE DUP6 DUP5 PUSH1 0x0 KECCAK256 SWAP2 DUP3 ADD SWAP2 ADD PUSH2 0x24E2 JUMP JUMPDEST DUP16 PUSH2 0xC06 JUMP JUMPDEST PUSH1 0x40 MLOAD PUSH3 0x461BCD PUSH1 0xE5 SHL DUP2 MSTORE PUSH1 0x20 PUSH1 0x4 DUP3 ADD MSTORE PUSH1 0x1C PUSH1 0x24 DUP3 ADD MSTORE PUSH32 0x5061796572206D75737420626520612067726F7570206D656D62657200000000 PUSH1 0x44 DUP3 ADD MSTORE PUSH1 0x64 SWAP1 REVERT JUMPDEST PUSH1 0x40 MLOAD PUSH3 0x461BCD PUSH1 0xE5 SHL DUP2 MSTORE PUSH1 0x20 PUSH1 0x4 DUP3 ADD MSTORE PUSH1 0x15 PUSH1 0x24 DUP3 ADD MSTORE PUSH21 0x496E76616C69642070617965722061646472657373 PUSH1 0x58 SHL PUSH1 0x44 DUP3 ADD MSTORE PUSH1 0x64 SWAP1 REVERT JUMPDEST PUSH1 0x40 MLOAD PUSH3 0x461BCD PUSH1 0xE5 SHL DUP2 MSTORE PUSH1 0x20 PUSH1 0x4 DUP3 ADD MSTORE PUSH1 0x12 PUSH1 0x24 DUP3 ADD MSTORE PUSH18 0x12541194C81A185CDA081C995C5D5A5C9959 PUSH1 0x72 SHL PUSH1 0x44 DUP3 ADD MSTORE PUSH1 0x64 SWAP1 REVERT JUMPDEST PUSH1 0x40 MLOAD PUSH3 0x461BCD PUSH1 0xE5 SHL DUP2 MSTORE PUSH1 0x20 PUSH1 0x4 DUP3 ADD MSTORE PUSH1 0x16 PUSH1 0x24 DUP3 ADD MSTORE PUSH22 0x13595C98DA185B9D081B985B59481C995C5D5A5C9959 PUSH1 0x52 SHL PUSH1 0x44 DUP3 ADD MSTORE PUSH1 0x64 SWAP1 REVERT JUMPDEST PUSH1 0x40 MLOAD PUSH3 0x461BCD PUSH1 0xE5 SHL DUP2 MSTORE PUSH1 0x20 PUSH1 0x4 DUP3 ADD MSTORE PUSH1 0x28 PUSH1 0x24 DUP3 ADD MSTORE PUSH32 0x50657220706572736F6E20616D6F756E74206D75737420626520677265617465 PUSH1 0x44 DUP3 ADD MSTORE PUSH8 0x72207468616E203 PUSH1 0xC4 SHL PUSH1 0x64 DUP3 ADD MSTORE PUSH1 0x84 SWAP1 REVERT JUMPDEST PUSH1 0x40 MLOAD PUSH3 0x461BCD PUSH1 0xE5 SHL DUP2 MSTORE PUSH1 0x20 PUSH1 0x4 DUP3 ADD MSTORE PUSH1 0x23 PUSH1 0x24 DUP3 ADD MSTORE PUSH32 0x546F74616C20616D6F756E74206D757374206265206772656174657220746861 PUSH1 0x44 DUP3 ADD MSTORE PUSH3 0x6E203 PUSH1 0xEC SHL PUSH1 0x64 DUP3 ADD MSTORE PUSH1 0x84 SWAP1 REVERT JUMPDEST CALLVALUE PUSH2 0x142 JUMPI PUSH1 0x20 CALLDATASIZE PUSH1 0x3 NOT ADD SLT PUSH2 0x142 JUMPI PUSH1 0x4 CALLDATALOAD PUSH1 0x0 MSTORE PUSH1 0x6 PUSH1 0x20 MSTORE PUSH1 0xC0 PUSH1 0x40 PUSH1 0x0 KECCAK256 DUP1 SLOAD SWAP1 PUSH1 0x1 DUP1 PUSH1 0xA0 SHL SUB PUSH1 0x1 DUP3 ADD SLOAD AND SWAP1 PUSH1 0x1 DUP1 PUSH1 0xA0 SHL SUB PUSH1 0x2 DUP3 ADD SLOAD AND PUSH1 0x3 DUP3 ADD SLOAD SWAP1 PUSH1 0xFF PUSH1 0x5 PUSH1 0x4 DUP6 ADD SLOAD SWAP5 ADD SLOAD AND SWAP4 PUSH1 0x40 MLOAD SWAP6 DUP7 MSTORE PUSH1 0x20 DUP7 ADD MSTORE PUSH1 0x40 DUP6 ADD MSTORE PUSH1 0x60 DUP5 ADD MSTORE PUSH1 0x80 DUP4 ADD MSTORE ISZERO ISZERO PUSH1 0xA0 DUP3 ADD MSTORE RETURN JUMPDEST CALLVALUE PUSH2 0x142 JUMPI PUSH1 0x0 CALLDATASIZE PUSH1 0x3 NOT ADD SLT PUSH2 0x142 JUMPI PUSH1 0x40 MLOAD PUSH32 0x0 PUSH1 0x1 PUSH1 0x1 PUSH1 0xA0 SHL SUB AND DUP2 MSTORE PUSH1 0x20 SWAP1 RETURN JUMPDEST CALLVALUE PUSH2 0x142 JUMPI PUSH1 0x0 CALLDATASIZE PUSH1 0x3 NOT ADD SLT PUSH2 0x142 JUMPI PUSH1 0x20 PUSH1 0x7 SLOAD PUSH1 0x40 MLOAD SWAP1 DUP2 MSTORE RETURN JUMPDEST CALLVALUE PUSH2 0x142 JUMPI PUSH1 0x20 CALLDATASIZE PUSH1 0x3 NOT ADD SLT PUSH2 0x142 JUMPI PUSH1 0x4 CALLDATALOAD PUSH1 0x40 MLOAD PUSH2 0x10F1 DUP2 PUSH2 0x1F47 JUMP JUMPDEST PUSH1 0x0 DUP2 MSTORE PUSH1 0x20 DUP2 ADD PUSH1 0x60 SWAP1 MSTORE PUSH1 0x40 DUP2 ADD PUSH1 0x0 SWAP1 MSTORE PUSH1 0x60 DUP2 ADD PUSH1 0x60 SWAP1 MSTORE PUSH1 0x80 DUP2 ADD PUSH1 0x0 SWAP1 MSTORE PUSH1 0xA0 DUP2 ADD PUSH1 0x0 SWAP1 MSTORE PUSH1 0xC0 DUP2 ADD PUSH1 0x60 SWAP1 MSTORE PUSH1 0xE0 DUP2 ADD PUSH1 0x60 SWAP1 MSTORE PUSH2 0x100 DUP2 ADD PUSH1 0x0 SWAP1 MSTORE PUSH2 0x120 DUP2 ADD PUSH1 0x60 SWAP1 MSTORE PUSH2 0x140 ADD PUSH1 0x60 SWAP1 MSTORE DUP1 PUSH1 0x0 MSTORE PUSH1 0x3 PUSH1 0x20 MSTORE DUP1 PUSH1 0x40 PUSH1 0x0 KECCAK256 SLOAD EQ PUSH2 0x1161 SWAP1 PUSH2 0x229D JUMP JUMPDEST PUSH1 0x0 MSTORE PUSH1 0x3 PUSH1 0x20 MSTORE PUSH1 0x40 PUSH1 0x0 KECCAK256 PUSH1 0x40 MLOAD PUSH2 0x117A DUP2 PUSH2 0x1F47 JUMP JUMPDEST DUP2 SLOAD DUP2 MSTORE PUSH2 0x118A PUSH1 0x1 DUP4 ADD PUSH2 0x217F JUMP JUMPDEST PUSH1 0x20 DUP3 ADD SWAP1 DUP2 MSTORE PUSH1 0x2 DUP4 ADD SLOAD PUSH1 0x1 PUSH1 0x1 PUSH1 0xA0 SHL SUB AND PUSH1 0x40 DUP4 ADD SWAP1 DUP2 MSTORE SWAP3 PUSH2 0x11B3 PUSH1 0x3 DUP3 ADD PUSH2 0x217F JUMP JUMPDEST SWAP4 PUSH1 0x60 DUP5 ADD SWAP5 DUP6 MSTORE PUSH1 0x4 DUP3 ADD SLOAD PUSH1 0x80 DUP6 ADD SWAP1 DUP2 MSTORE PUSH1 0x5 DUP4 ADD SLOAD PUSH1 0xA0 DUP7 ADD SWAP1 DUP2 MSTORE PUSH1 0x6 DUP5 ADD PUSH2 0x11E0 SWAP1 PUSH2 0x217F JUMP JUMPDEST PUSH1 0xC0 DUP8 ADD SWAP1 DUP2 MSTORE SWAP1 PUSH2 0x11F4 PUSH1 0x7 DUP7 ADD PUSH2 0x217F JUMP JUMPDEST SWAP4 PUSH1 0xE0 DUP9 ADD SWAP5 DUP6 MSTORE PUSH1 0x8 DUP7 ADD SLOAD SWAP9 PUSH2 0x100 DUP10 ADD SWAP10 DUP11 MSTORE PUSH1 0x9 DUP8 ADD PUSH2 0x1217 SWAP1 PUSH2 0x22E2 JUMP JUMPDEST SWAP7 PUSH2 0x120 DUP11 ADD SWAP8 DUP9 MSTORE PUSH1 0xA ADD PUSH2 0x122C SWAP1 PUSH2 0x217F JUMP JUMPDEST SWAP8 PUSH2 0x140 DUP11 ADD SWAP9 DUP10 MSTORE PUSH1 0x40 MLOAD SWAP10 PUSH1 0x20 DUP12 MSTORE MLOAD PUSH1 0x20 DUP12 ADD MSTORE MLOAD PUSH1 0x40 DUP11 ADD PUSH2 0x160 SWAP1 MSTORE PUSH2 0x180 DUP11 ADD PUSH2 0x125B SWAP2 PUSH2 0x20F2 JUMP JUMPDEST SWAP2 MLOAD PUSH1 0x1 PUSH1 0x1 PUSH1 0xA0 SHL SUB AND PUSH1 0x60 DUP11 ADD MSTORE MLOAD DUP9 DUP3 SUB PUSH1 0x1F NOT ADD PUSH1 0x80 DUP11 ADD MSTORE PUSH2 0x1282 SWAP2 SWAP1 PUSH2 0x20F2 JUMP JUMPDEST SWAP3 MLOAD PUSH1 0xA0 DUP9 ADD MSTORE MLOAD PUSH1 0xC0 DUP8 ADD MSTORE MLOAD DUP6 DUP3 SUB PUSH1 0x1F NOT ADD PUSH1 0xE0 DUP8 ADD MSTORE PUSH2 0x12A6 SWAP2 SWAP1 PUSH2 0x20F2 JUMP JUMPDEST SWAP1 MLOAD DUP5 DUP3 SUB PUSH1 0x1F NOT ADD PUSH2 0x100 DUP7 ADD MSTORE PUSH2 0x12BF SWAP2 SWAP1 PUSH2 0x20F2 JUMP JUMPDEST SWAP4 MLOAD PUSH2 0x120 DUP5 ADD MSTORE MLOAD SWAP3 PUSH1 0x1F NOT DUP4 DUP3 SUB ADD PUSH2 0x140 DUP5 ADD MSTORE DUP4 MLOAD SWAP1 DUP2 DUP2 MSTORE PUSH1 0x20 ADD SWAP4 PUSH1 0x20 ADD SWAP1 PUSH1 0x0 JUMPDEST DUP2 DUP2 LT PUSH2 0x1308 JUMPI DUP5 DUP1 PUSH2 0x6FC DUP9 DUP8 MLOAD PUSH1 0x1F NOT DUP5 DUP4 SUB ADD PUSH2 0x160 DUP6 ADD MSTORE PUSH2 0x20F2 JUMP JUMPDEST DUP3 MLOAD PUSH1 0x1 PUSH1 0x1 PUSH1 0xA0 SHL SUB AND DUP7 MSTORE PUSH1 0x20 SWAP6 DUP7 ADD SWAP6 SWAP1 SWAP3 ADD SWAP2 PUSH1 0x1 ADD PUSH2 0x12E7 JUMP JUMPDEST CALLVALUE PUSH2 0x142 JUMPI PUSH1 0x20 CALLDATASIZE PUSH1 0x3 NOT ADD SLT PUSH2 0x142 JUMPI PUSH1 0x4 CALLDATALOAD PUSH1 0x1 PUSH1 0x1 PUSH1 0x40 SHL SUB DUP2 GT PUSH2 0x142 JUMPI PUSH2 0x1372 PUSH1 0x20 PUSH2 0x135F PUSH2 0x13A7 SWAP4 CALLDATASIZE SWAP1 PUSH1 0x4 ADD PUSH2 0x1F9F JUMP JUMPDEST DUP2 PUSH1 0x40 MLOAD SWAP4 DUP3 DUP6 DUP1 SWAP5 MLOAD SWAP4 DUP5 SWAP3 ADD PUSH2 0x20CF JUMP JUMPDEST DUP2 ADD PUSH1 0x1 DUP2 MSTORE SUB ADD SWAP1 KECCAK256 PUSH2 0x1385 DUP2 PUSH2 0x217F JUMP JUMPDEST SWAP1 PUSH1 0xFF PUSH1 0x3 PUSH1 0x2 DUP4 ADD SLOAD SWAP3 ADD SLOAD AND PUSH1 0x40 MLOAD SWAP4 DUP5 SWAP4 PUSH1 0x60 DUP6 MSTORE PUSH1 0x60 DUP6 ADD SWAP1 PUSH2 0x20F2 JUMP JUMPDEST SWAP2 PUSH1 0x20 DUP5 ADD MSTORE ISZERO ISZERO PUSH1 0x40 DUP4 ADD MSTORE SUB SWAP1 RETURN JUMPDEST CALLVALUE PUSH2 0x142 JUMPI PUSH1 0x40 CALLDATASIZE PUSH1 0x3 NOT ADD SLT PUSH2 0x142 JUMPI PUSH2 0x13D1 PUSH2 0x1F31 JUMP JUMPDEST PUSH1 0x1 PUSH1 0x1 PUSH1 0xA0 SHL SUB AND PUSH1 0x0 SWAP1 DUP2 MSTORE PUSH1 0x9 PUSH1 0x20 MSTORE PUSH1 0x40 SWAP1 KECCAK256 DUP1 SLOAD PUSH1 0x24 CALLDATALOAD SWAP1 DUP2 LT ISZERO PUSH2 0x142 JUMPI PUSH2 0x1405 PUSH2 0x140B SWAP2 PUSH2 0x6FC SWAP4 PUSH2 0x2117 JUMP JUMPDEST SWAP1 PUSH2 0x2223 JUMP JUMPDEST PUSH1 0x40 MLOAD SWAP2 DUP3 SWAP2 PUSH1 0x20 DUP4 MSTORE PUSH1 0x20 DUP4 ADD SWAP1 PUSH2 0x20F2 JUMP JUMPDEST CALLVALUE PUSH2 0x142 JUMPI PUSH2 0x144A PUSH1 0x20 PUSH2 0x1432 CALLDATASIZE PUSH2 0x2231 JUMP JUMPDEST SWAP4 SWAP2 DUP4 PUSH1 0x40 SWAP5 SWAP3 SWAP5 MLOAD SWAP4 DUP3 DUP6 DUP1 SWAP5 MLOAD SWAP4 DUP5 SWAP3 ADD PUSH2 0x20CF JUMP JUMPDEST DUP2 ADD PUSH1 0x8 DUP2 MSTORE SUB ADD SWAP1 KECCAK256 SWAP1 PUSH1 0x1 DUP1 PUSH1 0xA0 SHL SUB AND PUSH1 0x0 MSTORE PUSH1 0x20 MSTORE PUSH1 0x40 PUSH1 0x0 KECCAK256 SWAP1 PUSH1 0x1 DUP1 PUSH1 0xA0 SHL SUB AND PUSH1 0x0 MSTORE PUSH1 0x20 MSTORE PUSH1 0x20 PUSH1 0x40 PUSH1 0x0 KECCAK256 SLOAD PUSH1 0x40 MLOAD SWAP1 DUP2 MSTORE RETURN JUMPDEST CALLVALUE PUSH2 0x142 JUMPI PUSH1 0x20 CALLDATASIZE PUSH1 0x3 NOT ADD SLT PUSH2 0x142 JUMPI PUSH1 0x20 PUSH2 0x14A2 PUSH2 0x1F31 JUMP JUMPDEST PUSH1 0x40 MLOAD PUSH32 0x0 PUSH1 0x1 PUSH1 0x1 PUSH1 0xA0 SHL SUB SWAP1 DUP2 AND SWAP3 AND SWAP2 SWAP1 SWAP2 EQ DUP2 MSTORE RETURN JUMPDEST CALLVALUE PUSH2 0x142 JUMPI PUSH1 0x20 CALLDATASIZE PUSH1 0x3 NOT ADD SLT PUSH2 0x142 JUMPI PUSH1 0x4 CALLDATALOAD PUSH1 0x1 PUSH1 0x1 PUSH1 0x40 SHL SUB DUP2 GT PUSH2 0x142 JUMPI PUSH1 0x20 PUSH2 0x1510 PUSH2 0x1540 SWAP3 CALLDATASIZE SWAP1 PUSH1 0x4 ADD PUSH2 0x1F9F JUMP JUMPDEST PUSH1 0x40 MLOAD SWAP1 PUSH2 0x152F PUSH1 0xFF PUSH1 0x3 DUP4 MLOAD SWAP5 DUP7 DUP2 DUP2 DUP8 ADD SWAP8 PUSH2 0x523 DUP2 DUP4 DUP12 PUSH2 0x20CF JUMP JUMPDEST PUSH1 0x40 MLOAD SWAP4 DUP5 SWAP3 DUP4 SWAP3 MLOAD SWAP3 DUP4 SWAP2 PUSH2 0x20CF JUMP JUMPDEST DUP2 ADD PUSH1 0x5 DUP2 MSTORE SUB ADD SWAP1 KECCAK256 PUSH1 0x40 MLOAD SWAP1 DUP2 PUSH1 0x20 DUP3 SLOAD SWAP2 DUP3 DUP2 MSTORE ADD SWAP2 PUSH1 0x0 MSTORE PUSH1 0x20 PUSH1 0x0 KECCAK256 SWAP1 PUSH1 0x0 JUMPDEST DUP2 DUP2 LT PUSH2 0x1590 JUMPI PUSH2 0x6FC DUP6 PUSH2 0x157C DUP2 DUP8 SUB DUP3 PUSH2 0x1F7E JUMP JUMPDEST PUSH1 0x40 MLOAD SWAP2 DUP3 SWAP2 PUSH1 0x20 DUP4 MSTORE PUSH1 0x20 DUP4 ADD SWAP1 PUSH2 0x2073 JUMP JUMPDEST DUP3 SLOAD DUP5 MSTORE PUSH1 0x20 SWAP1 SWAP4 ADD SWAP3 PUSH1 0x1 SWAP3 DUP4 ADD SWAP3 ADD PUSH2 0x1565 JUMP JUMPDEST CALLVALUE PUSH2 0x142 JUMPI PUSH2 0x15B4 CALLDATASIZE PUSH2 0x2032 JUMP JUMPDEST SWAP1 PUSH1 0x40 MLOAD PUSH2 0x15D4 PUSH1 0xFF PUSH1 0x3 DUP5 MLOAD SWAP4 PUSH1 0x20 DUP2 DUP2 DUP9 ADD SWAP7 PUSH2 0x523 DUP2 DUP4 DUP11 PUSH2 0x20CF JUMP JUMPDEST PUSH2 0x15ED PUSH2 0x15E8 PUSH2 0x15E2 PUSH2 0x2648 JUMP JUMPDEST DUP5 PUSH2 0x242F JUMP JUMPDEST PUSH2 0x2336 JUMP JUMPDEST PUSH2 0x15F7 DUP4 DUP4 PUSH2 0x242F JUMP JUMPDEST PUSH2 0x16B0 JUMPI PUSH2 0x1614 PUSH1 0x20 PUSH1 0x1 SWAP3 PUSH1 0x40 MLOAD DUP1 SWAP4 DUP2 SWAP3 DUP8 MLOAD SWAP3 DUP4 SWAP2 PUSH2 0x20CF JUMP JUMPDEST DUP2 ADD DUP5 DUP2 MSTORE SUB ADD SWAP1 KECCAK256 ADD DUP1 SLOAD PUSH1 0x1 PUSH1 0x40 SHL DUP2 LT ISZERO PUSH2 0x3B3 JUMPI PUSH32 0x51CFABEBB274A439FC348592EB455CC20EB9D20C36329F87592DADC611A1DFF3 SWAP3 PUSH2 0x1663 DUP3 PUSH1 0x40 SWAP5 PUSH1 0x1 PUSH2 0x16A1 SWAP6 ADD DUP2 SSTORE PUSH2 0x2117 JUMP JUMPDEST DUP2 SLOAD PUSH1 0x1 PUSH1 0x1 PUSH1 0xA0 SHL SUB SWAP8 DUP9 AND PUSH1 0x3 SWAP3 SWAP1 SWAP3 SHL DUP3 DUP2 SHL SWAP9 SWAP1 SHL NOT AND SWAP7 SWAP1 SWAP7 OR SWAP1 SSTORE PUSH1 0x0 DUP6 DUP2 MSTORE PUSH1 0x9 PUSH1 0x20 MSTORE DUP4 SWAP1 KECCAK256 PUSH2 0x169C SWAP1 DUP3 SWAP1 PUSH2 0x25F9 JUMP JUMPDEST PUSH2 0x2386 JUMP JUMPDEST SWAP3 DUP2 MLOAD SWAP1 DUP2 MSTORE TIMESTAMP PUSH1 0x20 DUP3 ADD MSTORE LOG2 STOP JUMPDEST PUSH1 0x40 MLOAD PUSH3 0x461BCD PUSH1 0xE5 SHL DUP2 MSTORE PUSH1 0x20 PUSH1 0x4 DUP3 ADD MSTORE PUSH1 0x10 PUSH1 0x24 DUP3 ADD MSTORE PUSH16 0x20B63932B0B23C90309036B2B6B132B9 PUSH1 0x81 SHL PUSH1 0x44 DUP3 ADD MSTORE PUSH1 0x64 SWAP1 REVERT JUMPDEST CALLVALUE PUSH2 0x142 JUMPI PUSH2 0x144A PUSH1 0x20 PUSH2 0x16FB CALLDATASIZE PUSH2 0x2231 JUMP JUMPDEST SWAP4 SWAP2 PUSH1 0x40 SWAP4 SWAP2 SWAP4 MLOAD SWAP1 PUSH2 0x152F PUSH1 0xFF PUSH1 0x3 DUP4 MLOAD SWAP5 DUP7 DUP2 DUP2 DUP8 ADD SWAP8 PUSH2 0x523 DUP2 DUP4 DUP12 PUSH2 0x20CF JUMP JUMPDEST CALLVALUE PUSH2 0x142 JUMPI PUSH1 0x20 CALLDATASIZE PUSH1 0x3 NOT ADD SLT PUSH2 0x142 JUMPI PUSH1 0x4 CALLDATALOAD PUSH1 0x2 SLOAD DUP2 LT ISZERO PUSH2 0x142 JUMPI PUSH1 0x0 PUSH1 0x2 SLOAD DUP3 LT ISZERO PUSH2 0x177D JUMPI PUSH1 0x2 SWAP1 MSTORE PUSH32 0x405787FA12A823E0F2B7631CC41B3BA8828B3321CA811111FA75CD3AA3BB5ACE ADD PUSH1 0x0 PUSH2 0x6FC PUSH2 0x140B DUP4 PUSH2 0x217F JUMP JUMPDEST PUSH4 0x4E487B71 PUSH1 0xE0 SHL DUP2 MSTORE PUSH1 0x32 PUSH1 0x4 MSTORE PUSH1 0x24 SWAP1 REVERT JUMPDEST CALLVALUE PUSH2 0x142 JUMPI PUSH1 0x20 CALLDATASIZE PUSH1 0x3 NOT ADD SLT PUSH2 0x142 JUMPI PUSH1 0x1 PUSH1 0x1 PUSH1 0xA0 SHL SUB PUSH2 0x17B2 PUSH2 0x1F31 JUMP JUMPDEST AND PUSH1 0x0 MSTORE PUSH1 0x9 PUSH1 0x20 MSTORE PUSH1 0x40 PUSH1 0x0 KECCAK256 DUP1 SLOAD SWAP1 PUSH2 0x17CC DUP3 PUSH2 0x2286 JUMP JUMPDEST SWAP2 PUSH2 0x17DA PUSH1 0x40 MLOAD SWAP4 DUP5 PUSH2 0x1F7E JUMP JUMPDEST DUP1 DUP4 MSTORE PUSH1 0x20 DUP4 ADD DUP1 SWAP3 PUSH1 0x0 MSTORE PUSH1 0x20 PUSH1 0x0 KECCAK256 PUSH1 0x0 SWAP2 JUMPDEST DUP4 DUP4 LT PUSH2 0x185D JUMPI DUP5 DUP7 PUSH1 0x40 MLOAD SWAP2 DUP3 SWAP2 PUSH1 0x20 DUP4 ADD SWAP1 PUSH1 0x20 DUP5 MSTORE MLOAD DUP1 SWAP2 MSTORE PUSH1 0x40 DUP4 ADD SWAP1 PUSH1 0x40 DUP2 PUSH1 0x5 SHL DUP6 ADD ADD SWAP3 SWAP2 PUSH1 0x0 SWAP1 JUMPDEST DUP3 DUP3 LT PUSH2 0x182E JUMPI POP POP POP POP SUB SWAP1 RETURN JUMPDEST SWAP2 SWAP4 PUSH1 0x1 SWAP2 SWAP4 SWAP6 POP PUSH1 0x20 PUSH2 0x184D DUP2 SWAP3 PUSH1 0x3F NOT DUP11 DUP3 SUB ADD DUP7 MSTORE DUP9 MLOAD PUSH2 0x20F2 JUMP JUMPDEST SWAP7 ADD SWAP3 ADD SWAP3 ADD DUP6 SWAP5 SWAP4 SWAP2 SWAP3 PUSH2 0x181F JUMP JUMPDEST PUSH1 0x1 PUSH1 0x20 DUP2 SWAP3 PUSH2 0x186C DUP6 PUSH2 0x217F JUMP JUMPDEST DUP2 MSTORE ADD SWAP3 ADD SWAP3 ADD SWAP2 SWAP1 PUSH2 0x17EF JUMP JUMPDEST CALLVALUE PUSH2 0x142 JUMPI PUSH1 0x20 PUSH2 0x1893 PUSH2 0x188D CALLDATASIZE PUSH2 0x2032 JUMP JUMPDEST SWAP1 PUSH2 0x242F JUMP JUMPDEST PUSH1 0x40 MLOAD SWAP1 ISZERO ISZERO DUP2 MSTORE RETURN JUMPDEST CALLVALUE PUSH2 0x142 JUMPI PUSH2 0x18AB CALLDATASIZE PUSH2 0x2032 JUMP JUMPDEST SWAP1 PUSH1 0x40 MLOAD PUSH2 0x18CB PUSH1 0xFF PUSH1 0x3 DUP5 MLOAD SWAP4 PUSH1 0x20 DUP2 DUP2 DUP9 ADD SWAP7 PUSH2 0x523 DUP2 DUP4 DUP11 PUSH2 0x20CF JUMP JUMPDEST PUSH1 0x40 MLOAD PUSH1 0x20 DUP2 DUP5 MLOAD PUSH2 0x18DE DUP2 DUP4 DUP8 PUSH2 0x20CF JUMP JUMPDEST DUP2 ADD PUSH1 0x1 DUP2 MSTORE SUB ADD SWAP1 KECCAK256 PUSH1 0x40 MLOAD PUSH2 0x18F4 DUP2 PUSH2 0x1F63 JUMP JUMPDEST PUSH2 0x18FD DUP3 PUSH2 0x217F JUMP JUMPDEST DUP2 MSTORE PUSH1 0x60 PUSH1 0xFF PUSH1 0x3 PUSH2 0x1911 PUSH1 0x1 DUP7 ADD PUSH2 0x22E2 JUMP JUMPDEST SWAP5 PUSH1 0x20 DUP6 ADD SWAP6 DUP7 MSTORE PUSH1 0x2 DUP2 ADD SLOAD PUSH1 0x40 DUP7 ADD MSTORE ADD SLOAD AND ISZERO ISZERO SWAP2 ADD MSTORE PUSH1 0x0 SWAP2 PUSH1 0x0 JUMPDEST DUP3 MLOAD MLOAD DUP2 LT ISZERO PUSH2 0x19B0 JUMPI PUSH1 0x40 DUP1 DUP1 MLOAD PUSH1 0x20 DUP2 DUP10 MLOAD PUSH2 0x1950 DUP2 DUP4 DUP11 PUSH2 0x20CF JUMP JUMPDEST DUP2 ADD PUSH1 0x8 DUP2 MSTORE SUB ADD SWAP1 KECCAK256 PUSH1 0x1 DUP1 PUSH1 0xA0 SHL SUB PUSH2 0x196C DUP6 DUP9 MLOAD PUSH2 0x23E9 JUMP JUMPDEST MLOAD PUSH1 0x1 PUSH1 0x1 PUSH1 0xA0 SHL SUB SWAP2 AND DUP2 AND PUSH1 0x0 SWAP1 DUP2 MSTORE PUSH1 0x20 SWAP3 DUP4 MSTORE SWAP3 DUP4 KECCAK256 SWAP1 DUP11 AND DUP4 MSTORE SWAP1 MSTORE KECCAK256 SLOAD PUSH2 0x199C JUMPI JUMPDEST PUSH1 0x1 ADD PUSH2 0x1931 JUMP JUMPDEST SWAP3 PUSH2 0x19A8 PUSH1 0x1 SWAP2 PUSH2 0x2377 JUMP JUMPDEST SWAP4 SWAP1 POP PUSH2 0x1994 JUMP JUMPDEST POP SWAP1 PUSH2 0x19BE PUSH2 0x62F DUP5 PUSH2 0x23FD JUMP JUMPDEST SWAP3 PUSH1 0x0 SWAP3 PUSH1 0x0 JUMPDEST DUP4 MLOAD MLOAD DUP2 LT ISZERO PUSH2 0x6ED JUMPI PUSH1 0x40 DUP1 DUP1 MLOAD PUSH1 0x20 DUP2 DUP12 MLOAD PUSH2 0x19E4 DUP2 DUP4 DUP11 PUSH2 0x20CF JUMP JUMPDEST DUP2 ADD PUSH1 0x8 DUP2 MSTORE SUB ADD SWAP1 KECCAK256 PUSH1 0x1 DUP1 PUSH1 0xA0 SHL SUB PUSH2 0x1A00 DUP6 DUP10 MLOAD PUSH2 0x23E9 JUMP JUMPDEST MLOAD PUSH1 0x1 PUSH1 0x1 PUSH1 0xA0 SHL SUB SWAP2 AND DUP2 AND PUSH1 0x0 SWAP1 DUP2 MSTORE PUSH1 0x20 SWAP3 DUP4 MSTORE SWAP3 DUP4 KECCAK256 SWAP1 DUP13 AND DUP4 MSTORE SWAP1 MSTORE KECCAK256 SLOAD DUP1 PUSH2 0x1A32 JUMPI JUMPDEST POP PUSH1 0x1 ADD PUSH2 0x19C5 JUMP JUMPDEST PUSH1 0x1 SWAP2 SWAP6 PUSH2 0x1A4B SWAP2 DUP4 DUP1 PUSH1 0xA0 SHL SUB PUSH2 0x6C9 DUP10 DUP10 MLOAD PUSH2 0x23E9 JUMP JUMPDEST SWAP5 SWAP1 PUSH2 0x1A29 JUMP JUMPDEST CALLVALUE PUSH2 0x142 JUMPI PUSH1 0x0 CALLDATASIZE PUSH1 0x3 NOT ADD SLT PUSH2 0x142 JUMPI PUSH1 0x20 PUSH1 0x2 SLOAD PUSH1 0x40 MLOAD SWAP1 DUP2 MSTORE RETURN JUMPDEST CALLVALUE PUSH2 0x142 JUMPI PUSH1 0x20 CALLDATASIZE PUSH1 0x3 NOT ADD SLT PUSH2 0x142 JUMPI PUSH1 0x4 CALLDATALOAD PUSH1 0x1 PUSH1 0x1 PUSH1 0x40 SHL SUB DUP2 GT PUSH2 0x142 JUMPI PUSH2 0x1AEC PUSH1 0x1 PUSH2 0x1ADD PUSH1 0x20 PUSH2 0x1AAD PUSH2 0x6FC SWAP6 CALLDATASIZE SWAP1 PUSH1 0x4 ADD PUSH2 0x1F9F JUMP JUMPDEST PUSH1 0x40 MLOAD SWAP1 PUSH2 0x152F PUSH1 0xFF PUSH1 0x3 DUP4 MLOAD SWAP5 DUP7 DUP2 DUP2 DUP8 ADD SWAP8 PUSH2 0x1ACC DUP2 DUP4 DUP12 PUSH2 0x20CF JUMP JUMPDEST DUP2 ADD DUP12 DUP2 MSTORE SUB ADD SWAP1 KECCAK256 ADD SLOAD AND PUSH2 0x23A6 JUMP JUMPDEST DUP2 ADD DUP5 DUP2 MSTORE SUB ADD SWAP1 KECCAK256 ADD PUSH2 0x22E2 JUMP JUMPDEST PUSH1 0x40 MLOAD SWAP2 DUP3 SWAP2 PUSH1 0x20 DUP4 MSTORE PUSH1 0x20 DUP4 ADD SWAP1 PUSH2 0x1FF5 JUMP JUMPDEST CALLVALUE PUSH2 0x142 JUMPI PUSH1 0x40 CALLDATASIZE PUSH1 0x3 NOT ADD SLT PUSH2 0x142 JUMPI PUSH1 0x4 CALLDATALOAD PUSH2 0x1B1C PUSH2 0x1F1B JUMP JUMPDEST SWAP1 PUSH2 0x1B25 PUSH2 0x2626 JUMP JUMPDEST DUP1 PUSH1 0x0 MSTORE PUSH1 0x3 PUSH1 0x20 MSTORE PUSH2 0x1B3E DUP2 PUSH1 0x40 PUSH1 0x0 KECCAK256 SLOAD EQ PUSH2 0x229D JUMP JUMPDEST DUP1 PUSH1 0x0 MSTORE PUSH1 0x3 PUSH1 0x20 MSTORE PUSH1 0x40 PUSH1 0x0 KECCAK256 PUSH1 0x40 MLOAD SWAP1 PUSH2 0x1B59 DUP3 PUSH2 0x1F47 JUMP JUMPDEST DUP1 SLOAD DUP3 MSTORE PUSH2 0x1B69 PUSH1 0x1 DUP3 ADD PUSH2 0x217F JUMP JUMPDEST PUSH1 0x20 DUP4 ADD SWAP1 DUP2 MSTORE PUSH1 0x2 DUP3 ADD SLOAD PUSH1 0x1 PUSH1 0x1 PUSH1 0xA0 SHL SUB AND PUSH1 0x40 DUP5 ADD MSTORE SWAP2 PUSH2 0x1B90 PUSH1 0x3 DUP4 ADD PUSH2 0x217F JUMP JUMPDEST PUSH1 0x60 DUP3 ADD MSTORE PUSH1 0x4 DUP3 ADD SLOAD PUSH1 0x80 DUP3 ADD MSTORE PUSH2 0x140 PUSH2 0x1BF9 PUSH1 0xA PUSH1 0x5 DUP6 ADD SLOAD SWAP5 PUSH1 0xA0 DUP6 ADD SWAP6 DUP7 MSTORE PUSH2 0x1BC0 PUSH1 0x6 DUP3 ADD PUSH2 0x217F JUMP JUMPDEST PUSH1 0xC0 DUP7 ADD MSTORE PUSH2 0x1BD1 PUSH1 0x7 DUP3 ADD PUSH2 0x217F JUMP JUMPDEST PUSH1 0xE0 DUP7 ADD MSTORE PUSH1 0x8 DUP2 ADD SLOAD PUSH2 0x100 DUP7 ADD MSTORE PUSH2 0x1BED PUSH1 0x9 DUP3 ADD PUSH2 0x22E2 JUMP JUMPDEST PUSH2 0x120 DUP7 ADD MSTORE ADD PUSH2 0x217F JUMP JUMPDEST SWAP2 ADD MSTORE PUSH2 0x1C04 PUSH2 0x2648 JUMP JUMPDEST SWAP2 MLOAD SWAP2 PUSH2 0x1C14 PUSH2 0x15E8 DUP3 DUP6 PUSH2 0x242F JUMP JUMPDEST PUSH1 0x40 MLOAD SWAP2 DUP4 MLOAD SWAP3 PUSH1 0x20 DUP2 DUP2 DUP8 ADD SWAP6 PUSH2 0x1C2D DUP2 DUP4 DUP10 PUSH2 0x20CF JUMP JUMPDEST DUP2 ADD PUSH1 0x8 DUP2 MSTORE SUB ADD SWAP1 KECCAK256 PUSH1 0x1 DUP1 PUSH1 0xA0 SHL SUB DUP4 AND PUSH1 0x0 MSTORE PUSH1 0x20 MSTORE PUSH1 0x40 PUSH1 0x0 KECCAK256 PUSH1 0x1 DUP1 PUSH1 0xA0 SHL SUB DUP8 AND PUSH1 0x0 MSTORE PUSH1 0x20 MSTORE PUSH1 0x40 PUSH1 0x0 KECCAK256 SLOAD ISZERO PUSH2 0x1ED6 JUMPI MLOAD SWAP4 PUSH1 0x40 MLOAD PUSH1 0x20 DUP2 DUP7 MLOAD PUSH2 0x1C7A DUP2 DUP4 DUP10 PUSH2 0x20CF JUMP JUMPDEST DUP2 ADD PUSH1 0x8 DUP2 MSTORE SUB ADD SWAP1 KECCAK256 PUSH1 0x1 DUP1 PUSH1 0xA0 SHL SUB DUP4 AND PUSH1 0x0 MSTORE PUSH1 0x20 MSTORE PUSH1 0x40 PUSH1 0x0 KECCAK256 PUSH1 0x1 DUP1 PUSH1 0xA0 SHL SUB DUP8 AND PUSH1 0x0 MSTORE PUSH1 0x20 MSTORE DUP5 PUSH1 0x40 PUSH1 0x0 KECCAK256 SLOAD LT PUSH2 0x1E9A JUMPI PUSH1 0x40 MLOAD PUSH1 0x20 DUP2 DUP7 MLOAD PUSH2 0x1CC6 DUP2 DUP4 DUP10 PUSH2 0x20CF JUMP JUMPDEST DUP2 ADD PUSH1 0x8 DUP2 MSTORE SUB ADD SWAP1 KECCAK256 PUSH1 0x1 DUP1 PUSH1 0xA0 SHL SUB DUP4 AND PUSH1 0x0 MSTORE PUSH1 0x20 MSTORE PUSH1 0x40 PUSH1 0x0 KECCAK256 PUSH1 0x1 DUP1 PUSH1 0xA0 SHL SUB DUP8 AND PUSH1 0x0 MSTORE PUSH1 0x20 MSTORE PUSH1 0x40 PUSH1 0x0 KECCAK256 DUP1 SLOAD SWAP1 DUP7 DUP3 SUB SWAP2 DUP3 GT PUSH2 0xD93 JUMPI SSTORE PUSH1 0x7 SLOAD PUSH2 0x1D12 DUP2 PUSH2 0x2377 JUMP JUMPDEST PUSH1 0x7 SSTORE PUSH2 0x1D1D PUSH2 0x2648 JUMP JUMPDEST PUSH1 0x40 MLOAD SWAP7 SWAP1 PUSH1 0x1 PUSH1 0x1 PUSH1 0xA0 SHL SUB AND ORIGIN EQ ISZERO PUSH1 0xC0 DUP9 ADD PUSH1 0x1 PUSH1 0x1 PUSH1 0x40 SHL SUB DUP2 GT DUP10 DUP3 LT OR PUSH2 0x3B3 JUMPI PUSH1 0x40 SWAP1 DUP2 MSTORE DUP5 DUP10 MSTORE PUSH1 0x1 PUSH1 0x1 PUSH1 0xA0 SHL SUB SWAP6 DUP7 AND PUSH1 0x20 DUP1 DUP12 ADD DUP3 DUP2 MSTORE SWAP12 DUP9 AND DUP12 DUP5 ADD DUP2 DUP2 MSTORE PUSH1 0x60 DUP14 ADD DUP8 DUP2 MSTORE TIMESTAMP PUSH1 0x80 DUP16 ADD SWAP1 DUP2 MSTORE PUSH1 0xA0 DUP16 ADD DUP9 DUP2 MSTORE PUSH1 0x0 DUP12 DUP2 MSTORE PUSH1 0x6 SWAP1 SWAP7 MSTORE SWAP7 SWAP1 SWAP5 KECCAK256 SWAP14 MLOAD DUP15 SSTORE SWAP14 MLOAD PUSH1 0x1 DUP15 ADD DUP1 SLOAD SWAP2 DUP13 AND PUSH1 0x1 PUSH1 0x1 PUSH1 0xA0 SHL SUB NOT SWAP3 DUP4 AND OR SWAP1 SSTORE SWAP1 MLOAD PUSH1 0x2 DUP15 ADD DUP1 SLOAD SWAP2 SWAP1 SWAP12 AND SWAP2 AND OR SWAP1 SWAP9 SSTORE SWAP11 MLOAD PUSH1 0x3 DUP12 ADD SSTORE SWAP10 MLOAD PUSH1 0x4 DUP11 ADD SSTORE MLOAD PUSH1 0x5 SWAP1 SWAP9 ADD DUP1 SLOAD PUSH1 0xFF NOT AND SWAP9 ISZERO ISZERO PUSH1 0xFF AND SWAP9 SWAP1 SWAP9 OR SWAP1 SWAP8 SSTORE SWAP3 SWAP7 SWAP6 DUP7 SWAP4 SWAP1 PUSH1 0x40 MLOAD SWAP2 DUP10 DUP4 MSTORE PUSH1 0x20 DUP4 ADD MSTORE PUSH1 0x40 DUP3 ADD MSTORE TIMESTAMP PUSH1 0x60 DUP3 ADD MSTORE PUSH1 0x80 PUSH32 0xC2FBB7F1CA94AC6E3E6A91E666986DDCF7FA936FAA9EF0AA29F4403F98AF09ED SWAP2 LOG4 PUSH1 0x40 MLOAD DUP1 DUP1 SWAP3 DUP5 MLOAD DUP1 SWAP3 PUSH2 0x1E38 SWAP3 PUSH2 0x20CF JUMP JUMPDEST DUP2 ADD PUSH1 0x8 DUP2 MSTORE SUB PUSH1 0x20 ADD SWAP1 KECCAK256 DUP3 PUSH1 0x0 MSTORE PUSH1 0x20 MSTORE PUSH1 0x40 PUSH1 0x0 KECCAK256 DUP4 PUSH1 0x0 MSTORE PUSH1 0x20 MSTORE PUSH1 0x40 PUSH1 0x0 KECCAK256 SLOAD SWAP1 PUSH2 0x1E67 SWAP1 PUSH2 0x2386 JUMP JUMPDEST SWAP1 PUSH1 0x40 MLOAD SWAP1 DUP2 MSTORE PUSH1 0x20 PUSH32 0xC247DF220FD28F38C52084B08C97414FFCB3C5F5A3A6C1BBB17745BB3E8CFB0A SWAP2 LOG4 PUSH1 0x1 PUSH1 0x0 SSTORE STOP JUMPDEST PUSH1 0x40 MLOAD PUSH3 0x461BCD PUSH1 0xE5 SHL DUP2 MSTORE PUSH1 0x20 PUSH1 0x4 DUP3 ADD MSTORE PUSH1 0x14 PUSH1 0x24 DUP3 ADD MSTORE PUSH20 0x88CAC4E840C2DADEEADCE840DAD2E6DAC2E8C6D PUSH1 0x63 SHL PUSH1 0x44 DUP3 ADD MSTORE PUSH1 0x64 SWAP1 REVERT JUMPDEST PUSH1 0x40 MLOAD PUSH3 0x461BCD PUSH1 0xE5 SHL DUP2 MSTORE PUSH1 0x20 PUSH1 0x4 DUP3 ADD MSTORE PUSH1 0x18 PUSH1 0x24 DUP3 ADD MSTORE PUSH32 0x4E6F206465627420746F2074686973206372656469746F720000000000000000 PUSH1 0x44 DUP3 ADD MSTORE PUSH1 0x64 SWAP1 REVERT JUMPDEST PUSH1 0x24 CALLDATALOAD SWAP1 PUSH1 0x1 PUSH1 0x1 PUSH1 0xA0 SHL SUB DUP3 AND DUP3 SUB PUSH2 0x142 JUMPI JUMP JUMPDEST PUSH1 0x4 CALLDATALOAD SWAP1 PUSH1 0x1 PUSH1 0x1 PUSH1 0xA0 SHL SUB DUP3 AND DUP3 SUB PUSH2 0x142 JUMPI JUMP JUMPDEST PUSH2 0x160 DUP2 ADD SWAP1 DUP2 LT PUSH1 0x1 PUSH1 0x1 PUSH1 0x40 SHL SUB DUP3 GT OR PUSH2 0x3B3 JUMPI PUSH1 0x40 MSTORE JUMP JUMPDEST PUSH1 0x80 DUP2 ADD SWAP1 DUP2 LT PUSH1 0x1 PUSH1 0x1 PUSH1 0x40 SHL SUB DUP3 GT OR PUSH2 0x3B3 JUMPI PUSH1 0x40 MSTORE JUMP JUMPDEST SWAP1 PUSH1 0x1F DUP1 NOT SWAP2 ADD AND DUP2 ADD SWAP1 DUP2 LT PUSH1 0x1 PUSH1 0x1 PUSH1 0x40 SHL SUB DUP3 GT OR PUSH2 0x3B3 JUMPI PUSH1 0x40 MSTORE JUMP JUMPDEST DUP2 PUSH1 0x1F DUP3 ADD SLT ISZERO PUSH2 0x142 JUMPI DUP1 CALLDATALOAD SWAP1 PUSH1 0x1 PUSH1 0x1 PUSH1 0x40 SHL SUB DUP3 GT PUSH2 0x3B3 JUMPI PUSH1 0x40 MLOAD SWAP3 PUSH2 0x1FD3 PUSH1 0x1F DUP5 ADD PUSH1 0x1F NOT AND PUSH1 0x20 ADD DUP6 PUSH2 0x1F7E JUMP JUMPDEST DUP3 DUP5 MSTORE PUSH1 0x20 DUP4 DUP4 ADD ADD GT PUSH2 0x142 JUMPI DUP2 PUSH1 0x0 SWAP3 PUSH1 0x20 DUP1 SWAP4 ADD DUP4 DUP7 ADD CALLDATACOPY DUP4 ADD ADD MSTORE SWAP1 JUMP JUMPDEST SWAP1 PUSH1 0x20 DUP1 DUP4 MLOAD SWAP3 DUP4 DUP2 MSTORE ADD SWAP3 ADD SWAP1 PUSH1 0x0 JUMPDEST DUP2 DUP2 LT PUSH2 0x2013 JUMPI POP POP POP SWAP1 JUMP JUMPDEST DUP3 MLOAD PUSH1 0x1 PUSH1 0x1 PUSH1 0xA0 SHL SUB AND DUP5 MSTORE PUSH1 0x20 SWAP4 DUP5 ADD SWAP4 SWAP1 SWAP3 ADD SWAP2 PUSH1 0x1 ADD PUSH2 0x2006 JUMP JUMPDEST PUSH1 0x40 PUSH1 0x3 NOT DUP3 ADD SLT PUSH2 0x142 JUMPI PUSH1 0x4 CALLDATALOAD SWAP1 PUSH1 0x1 PUSH1 0x1 PUSH1 0x40 SHL SUB DUP3 GT PUSH2 0x142 JUMPI PUSH2 0x205C SWAP2 PUSH1 0x4 ADD PUSH2 0x1F9F JUMP JUMPDEST SWAP1 PUSH1 0x24 CALLDATALOAD PUSH1 0x1 PUSH1 0x1 PUSH1 0xA0 SHL SUB DUP2 AND DUP2 SUB PUSH2 0x142 JUMPI SWAP1 JUMP JUMPDEST SWAP1 PUSH1 0x20 DUP1 DUP4 MLOAD SWAP3 DUP4 DUP2 MSTORE ADD SWAP3 ADD SWAP1 PUSH1 0x0 JUMPDEST DUP2 DUP2 LT PUSH2 0x2091 JUMPI POP POP POP SWAP1 JUMP JUMPDEST DUP3 MLOAD DUP5 MSTORE PUSH1 0x20 SWAP4 DUP5 ADD SWAP4 SWAP1 SWAP3 ADD SWAP2 PUSH1 0x1 ADD PUSH2 0x2084 JUMP JUMPDEST SWAP1 SWAP2 PUSH2 0x20BE PUSH2 0x20CC SWAP4 PUSH1 0x40 DUP5 MSTORE PUSH1 0x40 DUP5 ADD SWAP1 PUSH2 0x1FF5 JUMP JUMPDEST SWAP2 PUSH1 0x20 DUP2 DUP5 SUB SWAP2 ADD MSTORE PUSH2 0x2073 JUMP JUMPDEST SWAP1 JUMP JUMPDEST PUSH1 0x0 JUMPDEST DUP4 DUP2 LT PUSH2 0x20E2 JUMPI POP POP PUSH1 0x0 SWAP2 ADD MSTORE JUMP JUMPDEST DUP2 DUP2 ADD MLOAD DUP4 DUP3 ADD MSTORE PUSH1 0x20 ADD PUSH2 0x20D2 JUMP JUMPDEST SWAP1 PUSH1 0x20 SWAP2 PUSH2 0x210B DUP2 MLOAD DUP1 SWAP3 DUP2 DUP6 MSTORE DUP6 DUP1 DUP7 ADD SWAP2 ADD PUSH2 0x20CF JUMP JUMPDEST PUSH1 0x1F ADD PUSH1 0x1F NOT AND ADD ADD SWAP1 JUMP JUMPDEST DUP1 SLOAD DUP3 LT ISZERO PUSH2 0x212F JUMPI PUSH1 0x0 MSTORE PUSH1 0x20 PUSH1 0x0 KECCAK256 ADD SWAP1 PUSH1 0x0 SWAP1 JUMP JUMPDEST PUSH4 0x4E487B71 PUSH1 0xE0 SHL PUSH1 0x0 MSTORE PUSH1 0x32 PUSH1 0x4 MSTORE PUSH1 0x24 PUSH1 0x0 REVERT JUMPDEST SWAP1 PUSH1 0x1 DUP3 DUP2 SHR SWAP3 AND DUP1 ISZERO PUSH2 0x2175 JUMPI JUMPDEST PUSH1 0x20 DUP4 LT EQ PUSH2 0x215F JUMPI JUMP JUMPDEST PUSH4 0x4E487B71 PUSH1 0xE0 SHL PUSH1 0x0 MSTORE PUSH1 0x22 PUSH1 0x4 MSTORE PUSH1 0x24 PUSH1 0x0 REVERT JUMPDEST SWAP2 PUSH1 0x7F AND SWAP2 PUSH2 0x2154 JUMP JUMPDEST SWAP1 PUSH1 0x40 MLOAD SWAP2 DUP3 PUSH1 0x0 DUP3 SLOAD SWAP3 PUSH2 0x2193 DUP5 PUSH2 0x2145 JUMP JUMPDEST DUP1 DUP5 MSTORE SWAP4 PUSH1 0x1 DUP2 AND SWAP1 DUP2 ISZERO PUSH2 0x2201 JUMPI POP PUSH1 0x1 EQ PUSH2 0x21BA JUMPI JUMPDEST POP PUSH2 0x21B8 SWAP3 POP SUB DUP4 PUSH2 0x1F7E JUMP JUMPDEST JUMP JUMPDEST SWAP1 POP PUSH1 0x0 SWAP3 SWAP2 SWAP3 MSTORE PUSH1 0x20 PUSH1 0x0 KECCAK256 SWAP1 PUSH1 0x0 SWAP2 JUMPDEST DUP2 DUP4 LT PUSH2 0x21E5 JUMPI POP POP SWAP1 PUSH1 0x20 PUSH2 0x21B8 SWAP3 DUP3 ADD ADD CODESIZE PUSH2 0x21AB JUMP JUMPDEST PUSH1 0x20 SWAP2 SWAP4 POP DUP1 PUSH1 0x1 SWAP2 SLOAD DUP4 DUP6 DUP10 ADD ADD MSTORE ADD SWAP2 ADD SWAP1 SWAP2 DUP5 SWAP3 PUSH2 0x21CC JUMP JUMPDEST SWAP1 POP PUSH1 0x20 SWAP3 POP PUSH2 0x21B8 SWAP5 SWAP2 POP PUSH1 0xFF NOT AND DUP3 DUP5 ADD MSTORE ISZERO ISZERO PUSH1 0x5 SHL DUP3 ADD ADD CODESIZE PUSH2 0x21AB JUMP JUMPDEST SWAP1 PUSH2 0x39D JUMPI PUSH2 0x20CC SWAP1 PUSH2 0x217F JUMP JUMPDEST PUSH1 0x60 PUSH1 0x3 NOT DUP3 ADD SLT PUSH2 0x142 JUMPI PUSH1 0x4 CALLDATALOAD SWAP1 PUSH1 0x1 PUSH1 0x1 PUSH1 0x40 SHL SUB DUP3 GT PUSH2 0x142 JUMPI PUSH2 0x225B SWAP2 PUSH1 0x4 ADD PUSH2 0x1F9F JUMP JUMPDEST SWAP1 PUSH1 0x24 CALLDATALOAD PUSH1 0x1 PUSH1 0x1 PUSH1 0xA0 SHL SUB DUP2 AND DUP2 SUB PUSH2 0x142 JUMPI SWAP1 PUSH1 0x44 CALLDATALOAD PUSH1 0x1 PUSH1 0x1 PUSH1 0xA0 SHL SUB DUP2 AND DUP2 SUB PUSH2 0x142 JUMPI SWAP1 JUMP JUMPDEST PUSH1 0x1 PUSH1 0x1 PUSH1 0x40 SHL SUB DUP2 GT PUSH2 0x3B3 JUMPI PUSH1 0x5 SHL PUSH1 0x20 ADD SWAP1 JUMP JUMPDEST ISZERO PUSH2 0x22A4 JUMPI JUMP JUMPDEST PUSH1 0x40 MLOAD PUSH3 0x461BCD PUSH1 0xE5 SHL DUP2 MSTORE PUSH1 0x20 PUSH1 0x4 DUP3 ADD MSTORE PUSH1 0x16 PUSH1 0x24 DUP3 ADD MSTORE PUSH22 0x115E1C195B9CD948191BD95CC81B9BDD08195E1A5CDD PUSH1 0x52 SHL PUSH1 0x44 DUP3 ADD MSTORE PUSH1 0x64 SWAP1 REVERT JUMPDEST SWAP1 PUSH1 0x40 MLOAD SWAP2 DUP3 DUP2 SLOAD SWAP2 DUP3 DUP3 MSTORE PUSH1 0x20 DUP3 ADD SWAP1 PUSH1 0x0 MSTORE PUSH1 0x20 PUSH1 0x0 KECCAK256 SWAP3 PUSH1 0x0 JUMPDEST DUP2 DUP2 LT PUSH2 0x2314 JUMPI POP POP PUSH2 0x21B8 SWAP3 POP SUB DUP4 PUSH2 0x1F7E JUMP JUMPDEST DUP5 SLOAD PUSH1 0x1 PUSH1 0x1 PUSH1 0xA0 SHL SUB AND DUP4 MSTORE PUSH1 0x1 SWAP5 DUP6 ADD SWAP5 DUP8 SWAP5 POP PUSH1 0x20 SWAP1 SWAP4 ADD SWAP3 ADD PUSH2 0x22FF JUMP JUMPDEST ISZERO PUSH2 0x233D JUMPI JUMP JUMPDEST PUSH1 0x40 MLOAD PUSH3 0x461BCD PUSH1 0xE5 SHL DUP2 MSTORE PUSH1 0x20 PUSH1 0x4 DUP3 ADD MSTORE PUSH1 0x12 PUSH1 0x24 DUP3 ADD MSTORE PUSH18 0x2737BA10309033B937BAB81036B2B6B132B9 PUSH1 0x71 SHL PUSH1 0x44 DUP3 ADD MSTORE PUSH1 0x64 SWAP1 REVERT JUMPDEST PUSH1 0x0 NOT DUP2 EQ PUSH2 0xD93 JUMPI PUSH1 0x1 ADD SWAP1 JUMP JUMPDEST PUSH2 0x239E SWAP1 PUSH1 0x20 PUSH1 0x40 MLOAD SWAP3 DUP3 DUP5 DUP1 SWAP5 MLOAD SWAP4 DUP5 SWAP3 ADD PUSH2 0x20CF JUMP JUMPDEST DUP2 ADD SUB SWAP1 KECCAK256 SWAP1 JUMP JUMPDEST ISZERO PUSH2 0x23AD JUMPI JUMP JUMPDEST PUSH1 0x40 MLOAD PUSH3 0x461BCD PUSH1 0xE5 SHL DUP2 MSTORE PUSH1 0x20 PUSH1 0x4 DUP3 ADD MSTORE PUSH1 0x14 PUSH1 0x24 DUP3 ADD MSTORE PUSH20 0x11DC9BDD5C08191BD95CC81B9BDD08195E1A5CDD PUSH1 0x62 SHL PUSH1 0x44 DUP3 ADD MSTORE PUSH1 0x64 SWAP1 REVERT JUMPDEST DUP1 MLOAD DUP3 LT ISZERO PUSH2 0x212F JUMPI PUSH1 0x20 SWAP2 PUSH1 0x5 SHL ADD ADD SWAP1 JUMP JUMPDEST SWAP1 PUSH2 0x2407 DUP3 PUSH2 0x2286 JUMP JUMPDEST PUSH2 0x2414 PUSH1 0x40 MLOAD SWAP2 DUP3 PUSH2 0x1F7E JUMP JUMPDEST DUP3 DUP2 MSTORE DUP1 SWAP3 PUSH2 0x2425 PUSH1 0x1F NOT SWAP2 PUSH2 0x2286 JUMP JUMPDEST ADD SWAP1 PUSH1 0x20 CALLDATASIZE SWAP2 ADD CALLDATACOPY JUMP JUMPDEST PUSH1 0x20 PUSH2 0x2448 SWAP2 DUP2 PUSH1 0x40 MLOAD SWAP4 DUP3 DUP6 DUP1 SWAP5 MLOAD SWAP4 DUP5 SWAP3 ADD PUSH2 0x20CF JUMP JUMPDEST DUP2 ADD PUSH1 0x1 DUP2 MSTORE SUB ADD SWAP1 KECCAK256 SWAP1 PUSH1 0x40 MLOAD PUSH2 0x245F DUP2 PUSH2 0x1F63 JUMP JUMPDEST PUSH2 0x2468 DUP4 PUSH2 0x217F JUMP JUMPDEST DUP2 MSTORE PUSH1 0x60 PUSH1 0xFF PUSH1 0x3 PUSH2 0x247C PUSH1 0x1 DUP8 ADD PUSH2 0x22E2 JUMP JUMPDEST SWAP6 PUSH1 0x20 DUP6 ADD SWAP7 DUP8 MSTORE PUSH1 0x2 DUP2 ADD SLOAD PUSH1 0x40 DUP7 ADD MSTORE ADD SLOAD AND ISZERO ISZERO SWAP2 ADD MSTORE PUSH1 0x0 JUMPDEST DUP3 MLOAD DUP1 MLOAD DUP3 LT ISZERO PUSH2 0x24D9 JUMPI PUSH1 0x1 PUSH1 0x1 PUSH1 0xA0 SHL SUB SWAP1 PUSH2 0x24B8 SWAP1 DUP4 SWAP1 PUSH2 0x23E9 JUMP JUMPDEST MLOAD AND PUSH1 0x1 PUSH1 0x1 PUSH1 0xA0 SHL SUB DUP4 AND EQ PUSH2 0x24D1 JUMPI PUSH1 0x1 ADD PUSH2 0x2499 JUMP JUMPDEST POP POP POP PUSH1 0x1 SWAP1 JUMP JUMPDEST POP POP POP POP PUSH1 0x0 SWAP1 JUMP JUMPDEST DUP2 DUP2 LT PUSH2 0x24ED JUMPI POP POP JUMP JUMPDEST PUSH1 0x0 DUP2 SSTORE PUSH1 0x1 ADD PUSH2 0x24E2 JUMP JUMPDEST SWAP2 SWAP1 SWAP2 DUP3 MLOAD PUSH1 0x1 PUSH1 0x1 PUSH1 0x40 SHL SUB DUP2 GT PUSH2 0x3B3 JUMPI PUSH2 0x2516 DUP3 SLOAD PUSH2 0x2145 JUMP JUMPDEST PUSH1 0x1F DUP2 GT PUSH2 0x25BC JUMPI JUMPDEST POP PUSH1 0x20 PUSH1 0x1F DUP3 GT PUSH1 0x1 EQ PUSH2 0x255A JUMPI DUP2 SWAP3 SWAP4 SWAP5 PUSH1 0x0 SWAP3 PUSH2 0x254F JUMPI JUMPDEST POP POP DUP2 PUSH1 0x1 SHL SWAP2 PUSH1 0x0 NOT SWAP1 PUSH1 0x3 SHL SHR NOT AND OR SWAP1 SSTORE JUMP JUMPDEST ADD MLOAD SWAP1 POP CODESIZE DUP1 PUSH2 0x2539 JUMP JUMPDEST PUSH1 0x1F NOT DUP3 AND SWAP1 DUP4 PUSH1 0x0 MSTORE DUP1 PUSH1 0x0 KECCAK256 SWAP2 PUSH1 0x0 JUMPDEST DUP2 DUP2 LT PUSH2 0x25A4 JUMPI POP SWAP6 DUP4 PUSH1 0x1 SWAP6 SWAP7 SWAP8 LT PUSH2 0x258B JUMPI JUMPDEST POP POP POP DUP2 SHL ADD SWAP1 SSTORE JUMP JUMPDEST ADD MLOAD PUSH1 0x0 NOT PUSH1 0xF8 DUP5 PUSH1 0x3 SHL AND SHR NOT AND SWAP1 SSTORE CODESIZE DUP1 DUP1 PUSH2 0x2581 JUMP JUMPDEST SWAP2 SWAP3 PUSH1 0x20 PUSH1 0x1 DUP2 SWAP3 DUP7 DUP12 ADD MLOAD DUP2 SSTORE ADD SWAP5 ADD SWAP3 ADD PUSH2 0x256C JUMP JUMPDEST PUSH2 0x25E9 SWAP1 DUP4 PUSH1 0x0 MSTORE PUSH1 0x20 PUSH1 0x0 KECCAK256 PUSH1 0x1F DUP5 ADD PUSH1 0x5 SHR DUP2 ADD SWAP2 PUSH1 0x20 DUP6 LT PUSH2 0x25EF JUMPI JUMPDEST PUSH1 0x1F ADD PUSH1 0x5 SHR ADD SWAP1 PUSH2 0x24E2 JUMP JUMPDEST CODESIZE PUSH2 0x251F JUMP JUMPDEST SWAP1 SWAP2 POP DUP2 SWAP1 PUSH2 0x25DC JUMP JUMPDEST DUP1 SLOAD PUSH1 0x1 PUSH1 0x40 SHL DUP2 LT ISZERO PUSH2 0x3B3 JUMPI PUSH2 0x2616 SWAP2 PUSH1 0x1 DUP3 ADD DUP2 SSTORE PUSH2 0x2117 JUMP JUMPDEST SWAP2 SWAP1 SWAP2 PUSH2 0x39D JUMPI PUSH2 0x21B8 SWAP2 PUSH2 0x24F9 JUMP JUMPDEST PUSH1 0x2 PUSH1 0x0 SLOAD EQ PUSH2 0x2637 JUMPI PUSH1 0x2 PUSH1 0x0 SSTORE JUMP JUMPDEST PUSH4 0x3EE5AEB5 PUSH1 0xE0 SHL PUSH1 0x0 MSTORE PUSH1 0x4 PUSH1 0x0 REVERT JUMPDEST PUSH1 0x14 CALLDATASIZE LT ISZERO DUP1 PUSH2 0x266F JUMPI JUMPDEST ISZERO PUSH2 0x266B JUMPI PUSH1 0x13 NOT CALLDATASIZE ADD CALLDATASIZE DUP2 GT PUSH2 0x142 JUMPI CALLDATALOAD PUSH1 0x60 SHR SWAP1 JUMP JUMPDEST CALLER SWAP1 JUMP JUMPDEST POP CALLER PUSH32 0x0 PUSH1 0x1 PUSH1 0x1 PUSH1 0xA0 SHL SUB AND EQ PUSH2 0x2653 JUMP JUMPDEST SWAP1 PUSH1 0x0 JUMPDEST DUP3 MLOAD DUP2 LT ISZERO PUSH2 0x26D9 JUMPI PUSH1 0x1 PUSH1 0x1 PUSH1 0xA0 SHL SUB PUSH2 0x26C0 DUP3 DUP6 PUSH2 0x23E9 JUMP JUMPDEST MLOAD AND PUSH1 0x1 PUSH1 0x1 PUSH1 0xA0 SHL SUB DUP4 AND EQ PUSH2 0x24D1 JUMPI PUSH1 0x1 ADD PUSH2 0x26A5 JUMP JUMPDEST POP POP POP PUSH1 0x0 SWAP1 JUMP INVALID LOG2 PUSH5 0x6970667358 0x22 SLT KECCAK256 SLT PUSH20 0x2701BDE86D35FE1ED3C8362D31B26E58991E5A43 0xCD PUSH19 0xD7085E4FA99EC6CE64736F6C634300081B0033 "},"methodIdentifiers":{"addExpense(string,address,string,uint256,uint256,string,string,string)":"8a6120a6","addMember(string,address)":"45e39705","createGroup(string,address[])":"cfbe575c","debts(string,address,address)":"5768a315","expenseCounter()":"ddcad2ae","expenses(uint256)":"af4afe0a","getDebt(string,address,address)":"40be33e8","getExpense(uint256)":"735e5db6","getGroupCount()":"06545a93","getGroupExpenses(string)":"4bd4622c","getGroupMembers(string)":"02750201","getUserCredits(string,address)":"07edffe0","getUserDebts(string,address)":"cdc88e02","getUserGroups(address)":"3da04e4a","groupExpenses(string,uint256)":"93537dd8","groupIds(uint256)":"4093d7a1","groups(string)":"6b52230b","isGroupMember(string,address)":"15b3671d","isTrustedForwarder(address)":"572b6c05","markAsPaid(uint256,address)":"0245d036","paymentCounter()":"76840b60","payments(uint256)":"87d81789","trustedForwarder()":"7da0a877","userGroups(address,uint256)":"60a9e097"}}}}}