{"contracts/ExpenseManager.sol":{"ExpenseManager":{"abi":[{"inputs":[{"internalType":"address","name":"trustedForwarder","type":"address"}],"stateMutability":"nonpayable","type":"constructor"},{"inputs":[],"name":"ReentrancyGuardReentrantCall","type":"error"},{"anonymous":false,"inputs":[{"indexed":true,"internalType":"string","name":"groupId","type":"string"},{"indexed":true,"internalType":"address","name":"from","type":"address"},{"indexed":true,"internalType":"address","name":"to","type":"address"},{"indexed":false,"internalType":"uint256","name":"newAmount","type":"uint256"}],"name":"DebtUpdated","type":"event"},{"anonymous":false,"inputs":[{"indexed":true,"internalType":"uint256","name":"expenseId","type":"uint256"},{"indexed":true,"internalType":"string","name":"groupId","type":"string"},{"indexed":true,"internalType":"address","name":"payer","type":"address"},{"indexed":false,"internalType":"uint256","name":"totalAmount","type":"uint256"},{"indexed":false,"internalType":"uint256","name":"perPersonAmount","type":"uint256"},{"indexed":false,"internalType":"string","name":"currency","type":"string"},{"indexed":false,"internalType":"string","name":"ipfsHash","type":"string"},{"indexed":false,"internalType":"uint256","name":"timestamp","type":"uint256"}],"name":"ExpenseAdded","type":"event"},{"anonymous":false,"inputs":[{"indexed":true,"internalType":"string","name":"groupId","type":"string"},{"indexed":false,"internalType":"address[]","name":"members","type":"address[]"},{"indexed":false,"internalType":"uint256","name":"timestamp","type":"uint256"}],"name":"GroupCreated","type":"event"},{"anonymous":false,"inputs":[{"indexed":true,"internalType":"string","name":"groupId","type":"string"},{"indexed":false,"internalType":"address","name":"member","type":"address"},{"indexed":false,"internalType":"uint256","name":"timestamp","type":"uint256"}],"name":"MemberAdded","type":"event"},{"anonymous":false,"inputs":[{"indexed":true,"internalType":"uint256","name":"paymentId","type":"uint256"},{"indexed":true,"internalType":"uint256","name":"expenseId","type":"uint256"},{"indexed":true,"internalType":"address","name":"from","type":"address"},{"indexed":false,"internalType":"address","name":"to","type":"address"},{"indexed":false,"internalType":"uint256","name":"amount","type":"uint256"},{"indexed":false,"internalType":"bool","name":"gasless","type":"bool"},{"indexed":false,"internalType":"uint256","name":"timestamp","type":"uint256"}],"name":"PaymentMarked","type":"event"},{"inputs":[{"internalType":"string","name":"groupId","type":"string"},{"internalType":"string","name":"merchant","type":"string"},{"internalType":"uint256","name":"totalAmount","type":"uint256"},{"internalType":"uint256","name":"perPersonAmount","type":"uint256"},{"internalType":"string","name":"currency","type":"string"},{"internalType":"string","name":"ipfsHash","type":"string"},{"internalType":"string","name":"metadata","type":"string"}],"name":"addExpense","outputs":[],"stateMutability":"nonpayable","type":"function"},{"inputs":[{"internalType":"string","name":"groupId","type":"string"},{"internalType":"address","name":"newMember","type":"address"}],"name":"addMember","outputs":[],"stateMutability":"nonpayable","type":"function"},{"inputs":[{"internalType":"string","name":"groupId","type":"string"},{"internalType":"address[]","name":"members","type":"address[]"}],"name":"createGroup","outputs":[],"stateMutability":"nonpayable","type":"function"},{"inputs":[{"internalType":"string","name":"","type":"string"},{"internalType":"address","name":"","type":"address"},{"internalType":"address","name":"","type":"address"}],"name":"debts","outputs":[{"internalType":"uint256","name":"","type":"uint256"}],"stateMutability":"view","type":"function"},{"inputs":[],"name":"expenseCounter","outputs":[{"internalType":"uint256","name":"","type":"uint256"}],"stateMutability":"view","type":"function"},{"inputs":[{"internalType":"uint256","name":"","type":"uint256"}],"name":"expenses","outputs":[{"internalType":"uint256","name":"id","type":"uint256"},{"internalType":"string","name":"groupId","type":"string"},{"internalType":"address","name":"payer","type":"address"},{"internalType":"string","name":"merchant","type":"string"},{"internalType":"uint256","name":"totalAmount","type":"uint256"},{"internalType":"uint256","name":"perPersonAmount","type":"uint256"},{"internalType":"string","name":"currency","type":"string"},{"internalType":"string","name":"ipfsHash","type":"string"},{"internalType":"uint256","name":"timestamp","type":"uint256"},{"internalType":"string","name":"metadata","type":"string"}],"stateMutability":"view","type":"function"},{"inputs":[{"internalType":"string","name":"groupId","type":"string"},{"internalType":"address","name":"debtor","type":"address"},{"internalType":"address","name":"creditor","type":"address"}],"name":"getDebt","outputs":[{"internalType":"uint256","name":"","type":"uint256"}],"stateMutability":"view","type":"function"},{"inputs":[{"internalType":"uint256","name":"expenseId","type":"uint256"}],"name":"getExpense","outputs":[{"components":[{"internalType":"uint256","name":"id","type":"uint256"},{"internalType":"string","name":"groupId","type":"string"},{"internalType":"address","name":"payer","type":"address"},{"internalType":"string","name":"merchant","type":"string"},{"internalType":"uint256","name":"totalAmount","type":"uint256"},{"internalType":"uint256","name":"perPersonAmount","type":"uint256"},{"internalType":"string","name":"currency","type":"string"},{"internalType":"string","name":"ipfsHash","type":"string"},{"internalType":"uint256","name":"timestamp","type":"uint256"},{"internalType":"address[]","name":"participants","type":"address[]"},{"internalType":"string","name":"metadata","type":"string"}],"internalType":"struct ExpenseManager.Expense","name":"","type":"tuple"}],"stateMutability":"view","type":"function"},{"inputs":[],"name":"getGroupCount","outputs":[{"internalType":"uint256","name":"","type":"uint256"}],"stateMutability":"view","type":"function"},{"inputs":[{"internalType":"string","name":"groupId","type":"string"}],"name":"getGroupExpenses","outputs":[{"internalType":"uint256[]","name":"","type":"uint256[]"}],"stateMutability":"view","type":"function"},{"inputs":[{"internalType":"string","name":"groupId","type":"string"}],"name":"getGroupMembers","outputs":[{"internalType":"address[]","name":"","type":"address[]"}],"stateMutability":"view","type":"function"},{"inputs":[{"internalType":"string","name":"groupId","type":"string"},{"internalType":"address","name":"user","type":"address"}],"name":"getUserCredits","outputs":[{"internalType":"address[]","name":"debtors","type":"address[]"},{"internalType":"uint256[]","name":"amounts","type":"uint256[]"}],"stateMutability":"view","type":"function"},{"inputs":[{"internalType":"string","name":"groupId","type":"string"},{"internalType":"address","name":"user","type":"address"}],"name":"getUserDebts","outputs":[{"internalType":"address[]","name":"creditors","type":"address[]"},{"internalType":"uint256[]","name":"amounts","type":"uint256[]"}],"stateMutability":"view","type":"function"},{"inputs":[{"internalType":"address","name":"user","type":"address"}],"name":"getUserGroups","outputs":[{"internalType":"string[]","name":"","type":"string[]"}],"stateMutability":"view","type":"function"},{"inputs":[{"internalType":"string","name":"","type":"string"},{"internalType":"uint256","name":"","type":"uint256"}],"name":"groupExpenses","outputs":[{"internalType":"uint256","name":"","type":"uint256"}],"stateMutability":"view","type":"function"},{"inputs":[{"internalType":"uint256","name":"","type":"uint256"}],"name":"groupIds","outputs":[{"internalType":"string","name":"","type":"string"}],"stateMutability":"view","type":"function"},{"inputs":[{"internalType":"string","name":"","type":"string"}],"name":"groups","outputs":[{"internalType":"string","name":"groupId","type":"string"},{"internalType":"uint256","name":"createdAt","type":"uint256"},{"internalType":"bool","name":"exists","type":"bool"}],"stateMutability":"view","type":"function"},{"inputs":[{"internalType":"string","name":"groupId","type":"string"},{"internalType":"address","name":"user","type":"address"}],"name":"isGroupMember","outputs":[{"internalType":"bool","name":"","type":"bool"}],"stateMutability":"view","type":"function"},{"inputs":[{"internalType":"address","name":"forwarder","type":"address"}],"name":"isTrustedForwarder","outputs":[{"internalType":"bool","name":"","type":"bool"}],"stateMutability":"view","type":"function"},{"inputs":[{"internalType":"uint256","name":"expenseId","type":"uint256"},{"internalType":"address","name":"creditor","type":"address"}],"name":"markAsPaid","outputs":[],"stateMutability":"nonpayable","type":"function"},{"inputs":[],"name":"paymentCounter","outputs":[{"internalType":"uint256","name":"","type":"uint256"}],"stateMutability":"view","type":"function"},{"inputs":[{"internalType":"uint256","name":"","type":"uint256"}],"name":"payments","outputs":[{"internalType":"uint256","name":"expenseId","type":"uint256"},{"internalType":"address","name":"from","type":"address"},{"internalType":"address","name":"to","type":"address"},{"internalType":"uint256","name":"amount","type":"uint256"},{"internalType":"uint256","name":"timestamp","type":"uint256"},{"internalType":"bool","name":"gasless","type":"bool"}],"stateMutability":"view","type":"function"},{"inputs":[],"name":"trustedForwarder","outputs":[{"internalType":"address","name":"","type":"address"}],"stateMutability":"view","type":"function"},{"inputs":[{"internalType":"address","name":"","type":"address"},{"internalType":"uint256","name":"","type":"uint256"}],"name":"userGroups","outputs":[{"internalType":"string","name":"","type":"string"}],"stateMutability":"view","type":"function"}],"evm":{"bytecode":{"linkReferences":{},"object":"60a03461008757601f61271338819003918201601f19168301916001600160401b0383118484101761008c5780849260209460405283398101031261008757516001600160a01b03811681036100875760805260016000556001600455600160075560405161267090816100a38239608051818181610fd9015281816113fc01526125cc0152f35b600080fd5b634e487b7160e01b600052604160045260246000fdfe6080604052600436101561001257600080fd5b60003560e01c80630245d03614611a5057806302750201146119c057806306545a93146119a257806307edffe0146117ed57806315b3671d146117ca5780633da04e4a146116e15780634093d7a11461166f57806340be33e81461163857806345e39705146114fb5780634bd4622c14611430578063572b6c05146113dc5780635768a3151461137457806360a9e0971461130d5780636b52230b1461127c578063735e5db61461102657806376840b60146110085780637da0a87714610fc357806387d8178914610f4b57806393537dd814610ed1578063af4afe0a14610dce578063bef9f7a414610700578063cdc88e02146104f5578063cfbe575c146101475763ddcad2ae1461012457600080fd5b34610142576000366003190112610142576020600454604051908152f35b600080fd5b34610142576040366003190112610142576004356001600160401b03811161014257610177903690600401611ef8565b602435906001600160401b03821161014257366023830112156101425781600401356101a2816121df565b926101b06040519485611ed7565b8184526024602085019260051b8201019036821161014257602401915b8183106104d55750505060405160ff6003835192602081818701956101f3818389612028565b81016001815203019020015416610499578251156104485761021c6102166125a1565b846125fa565b15610403576040519061022e82611ebc565b8282526020820184815260408301904282526102746102626020606087019560018752604051809381928b51928391612028565b81016001815203019020945185612452565b5180519060018501906001600160401b0383116103b357600160401b83116103b35760209082548484558085106103e6575b500190600052602060002060005b8381106103c95788886102e18960038a8a51600284015551151591019060ff801983541691151516179055565b600254600160401b8110156103b35780600161030292016002556002612070565b61039d578161031091612452565b60005b825181101561034f576001906001600160a01b036103318286612342565b51166000526009602052610349836040600020612552565b01610313565b5061039261037d7f3599f24e25095535210b1b8ca48fba46c30fcd53bdb6cef3a68a38a4ad265337926122df565b92604051918291604083526040830190611f4e565b4260208301520390a2005b634e487b7160e01b600052600060045260246000fd5b634e487b7160e01b600052604160045260246000fd5b82516001600160a01b0316818301556020909201916001016102b4565b6103fd90846000528584600020918201910161243b565b896102a6565b60405162461bcd60e51b815260206004820152601860248201527f43726561746f72206d7573742062652061206d656d62657200000000000000006044820152606490fd5b60405162461bcd60e51b815260206004820152602360248201527f47726f7570206d7573742068617665206174206c65617374206f6e65206d656d6044820152623132b960e91b6064820152608490fd5b60405162461bcd60e51b815260206004820152601460248201527347726f757020616c72656164792065786973747360601b6044820152606490fd5b82356001600160a01b0381168103610142578152602092830192016101cd565b346101425761050336611f8b565b9060405161053560ff60038451936020818188019661052381838a612028565b810160018152030190200154166122ff565b6040516020818451610548818387612028565b8101600181520301902060405161055e81611ebc565b610567826120d8565b8152606060ff600361057b6001860161223b565b946020850195865260028101546040860152015416151591015260009160005b82515181101561062157604080805160208189516105ba81838a612028565b8101600881520301902060009060018060a01b038a1682526020522060018060a01b036105e8848751612342565b51166001600160a01b03166000908152602091909152205461060d575b60010161059b565b926106196001916122d0565b939050610605565b509061063561062f84612356565b93612356565b9260009260005b8351518110156106ed5760408080516020818b5161065b81838a612028565b8101600881520301902060009060018060a01b038c1682526020522060018060a01b03610689848851612342565b51166001600160a01b031660009081526020919091522054806106b0575b5060010161063c565b600191956106e691838060a01b036106c9898951612342565b51166106d58388612342565b526106e0828a612342565b526122d0565b94906106a7565b604051806106fc888683612000565b0390f35b346101425760e0366003190112610142576004356001600160401b03811161014257610730903690600401611ef8565b6024356001600160401b0381116101425761074f903690600401611ef8565b9060443591606435906084356001600160401b03811161014257610777903690600401611ef8565b9260a4356001600160401b03811161014257610797903690600401611ef8565b60c4356001600160401b038111610142576107b6903690600401611ef8565b90604051946107d660ff600388602081895161052381848d019e8f612028565b6107ef6107ea6107e46125a1565b86612388565b61228f565b6107f761257f565b8715610d7d578015610d2757845115610ce957815115610caf576004549661081e886122d0565b6004556108296125a1565b976001604051602081806108418d8c51928391612028565b81018481520301902001546000198101908111610bed579961086689969a989b612356565b9a8b60009960016108906020600093838060a01b03169b5b8d604051938492839251928391612028565b8101848152030190200154811015610946579081896108cf8e9460018e60206040518092516108c081838d612028565b81018481520301902001612070565b905460039190911b1c6001600160a01b0316036108f8575b61089060206001809301939461087e565b9a6108906020600161093b8f948f8396846108c0878c61092395604051938492839251928391612028565b848060a01b0391549060031b1c166106e08289612342565b9e93505050506108e7565b509996979598508a8a6040519261095c84611ea0565b8584528b60208501918a835260408601908d8252606087019081526080870188815260a08801918c835260c08901938c855260e08a019586526101008a01964288526101208b019889526101408b01998a528c600052600360205260406000209a518b555160018b01906109cf91612452565b5160028a0180546001600160a01b0319166001600160a01b039290921691909117905551610a009060038a01612452565b51600488015551600587015551610a1a9060068701612452565b51610a289060078601612452565b5160088401555180519060098401906001600160401b0383116103b357600160401b83116103b3576020908254848455808510610c92575b500190600052602060002060005b838110610c75575050505090600a610a8892519101612452565b6040516020818751610a9b81838c612028565b810160058152030190208054600160401b8110156103b357610ac291600182018155612070565b81549060031b9084821b91600019901b191617905560005b8951811015610c0357604080805160208180610afa8d8d51928391612028565b6008908201908152030190206001600160a01b03610b18858f612342565b51169060009160018060a01b03168252602052206000908a825260205220908154868101809111610bed5790915560019088876040808e610b7a60208e6001600160a01b03610b678a86612342565b5116968551938492839251928391612028565b8101600881520301902090610b9587898060a01b0392612342565b511690600091888060a01b031682526020522060009084825260205220547fc247df220fd28f38c52084b08c97414ffcb3c5f5a3a6c1bbb17745bb3e8cfb0a6020610bdf8c6122df565b92604051908152a401610ada565b634e487b7160e01b600052601160045260246000fd5b5086937fcc762af87a9e4b178c686ac9675008ff8324a12ceb2e2a23052e2186bb184c1491610c658a610c57610c388a6122df565b976040519586958652602086015260a0604086015260a085019061204b565b90838203606085015261204b565b4260808301520390a46001600055005b82516001600160a01b031681830155602090920191600101610a6e565b610ca990846000528584600020918201910161243b565b8f610a60565b60405162461bcd60e51b815260206004820152601260248201527112541194c81a185cda081c995c5d5a5c995960721b6044820152606490fd5b60405162461bcd60e51b815260206004820152601660248201527513595c98da185b9d081b985b59481c995c5d5a5c995960521b6044820152606490fd5b60405162461bcd60e51b815260206004820152602860248201527f50657220706572736f6e20616d6f756e74206d75737420626520677265617465604482015267072207468616e20360c41b6064820152608490fd5b60405162461bcd60e51b815260206004820152602360248201527f546f74616c20616d6f756e74206d75737420626520677265617465722074686160448201526206e20360ec1b6064820152608490fd5b346101425760203660031901126101425760043560005260036020526040600020805460018201610dfe906120d8565b600283015490926001600160a01b0390911690610e1d600382016120d8565b6004820154600583015490610e34600685016120d8565b91610e41600786016120d8565b93600886015495600a01610e54906120d8565b96604051998a998a5260208a0161014090526101408a01610e749161204b565b9060408a015288810360608a0152610e8b9161204b565b91608088015260a087015285810360c0870152610ea79161204b565b84810360e0860152610eb89161204b565b906101008401528281036101208401526106fc9161204b565b34610142576040366003190112610142576004356001600160401b03811161014257610f01903690600401611ef8565b610f1d6020602435928160405193828580945193849201612028565b81016005815203019020805482101561014257602091610f3c91612070565b90549060031b1c604051908152f35b3461014257602036600319011261014257600435600052600660205260c0604060002080549060018060a01b036001820154169060018060a01b0360028201541660038201549060ff6005600485015494015416936040519586526020860152604085015260608401526080830152151560a0820152f35b34610142576000366003190112610142576040517f00000000000000000000000000000000000000000000000000000000000000006001600160a01b03168152602090f35b34610142576000366003190112610142576020600754604051908152f35b346101425760203660031901126101425760043560405161104681611ea0565b60008152602081016060905260408101600090526060810160609052608081016000905260a081016000905260c081016060905260e0810160609052610100810160009052610120810160609052610140016060905280600052600360205280604060002054146110b6906121f6565b600052600360205260406000206040516110cf81611ea0565b815481526110df600183016120d8565b6020820190815260028301546001600160a01b03166040830190815292611108600382016120d8565b9360608401948552600482015460808501908152600583015460a0860190815260068401611135906120d8565b60c0870190815290611149600786016120d8565b9360e088019485526008860154986101008901998a526009870161116c9061223b565b966101208a01978852600a01611181906120d8565b976101408a019889526040519960208b525160208b01525160408a0161016090526101808a016111b09161204b565b91516001600160a01b031660608a015251888203601f190160808a01526111d7919061204b565b925160a08801525160c087015251858203601f190160e08701526111fb919061204b565b9051848203601f1901610100860152611214919061204b565b93516101208401525192601f1983820301610140840152835190818152602001936020019060005b81811061125d5784806106fc888751601f198483030161016085015261204b565b82516001600160a01b031686526020958601959092019160010161123c565b34610142576020366003190112610142576004356001600160401b038111610142576112c760206112b46112fc933690600401611ef8565b8160405193828580945193849201612028565b810160018152030190206112da816120d8565b9060ff600360028301549201541660405193849360608552606085019061204b565b916020840152151560408301520390f35b3461014257604036600319011261014257611326611e8a565b6001600160a01b031660009081526009602052604090208054602435908110156101425761135a611360916106fc93612070565b9061217c565b60405191829160208352602083019061204b565b346101425761139f60206113873661218a565b93918360409492945193828580945193849201612028565b810160088152030190209060018060a01b031660005260205260406000209060018060a01b03166000526020526020604060002054604051908152f35b346101425760203660031901126101425760206113f7611e8a565b6040517f00000000000000000000000000000000000000000000000000000000000000006001600160a01b039081169216919091148152f35b34610142576020366003190112610142576004356001600160401b038111610142576020611465611495923690600401611ef8565b6040519061148460ff600383519486818187019761052381838b612028565b604051938492839251928391612028565b8101600581520301902060405190816020825491828152019160005260206000209060005b8181106114e5576106fc856114d181870382611ed7565b604051918291602083526020830190611fcc565b82548452602090930192600192830192016114ba565b346101425761150936611f8b565b9060405161152960ff60038451936020818188019661052381838a612028565b61153d6107ea6115376125a1565b84612388565b6115478383612388565b611600576115646020600192604051809381928751928391612028565b810184815203019020018054600160401b8110156103b3577f51cfabebb274a439fc348592eb455cc20eb9d20c36329f87592dadc611a1dff3926115b38260409460016115f195018155612070565b81546001600160a01b0397881660039290921b82811b98901b1916969096179055600085815260096020528390206115ec908290612552565b6122df565b928151908152426020820152a2005b60405162461bcd60e51b815260206004820152601060248201526f20b63932b0b23c90309036b2b6b132b960811b6044820152606490fd5b346101425761139f602061164b3661218a565b93916040939193519061148460ff600383519486818187019761052381838b612028565b34610142576020366003190112610142576004356002548110156101425760006002548210156116cd57600290527f405787fa12a823e0f2b7631cc41b3ba8828b3321ca811111fa75cd3aa3bb5ace0160006106fc611360836120d8565b634e487b7160e01b81526032600452602490fd5b34610142576020366003190112610142576001600160a01b03611702611e8a565b166000526009602052604060002080549061171c826121df565b9161172a6040519384611ed7565b80835260208301809260005260206000206000915b8383106117ad57848660405191829160208301906020845251809152604083019060408160051b85010192916000905b82821061177e57505050500390f35b9193600191939550602061179d8192603f198a8203018652885161204b565b960192019201859493919261176f565b6001602081926117bc856120d8565b81520192019201919061173f565b346101425760206117e36117dd36611f8b565b90612388565b6040519015158152f35b34610142576117fb36611f8b565b9060405161181b60ff60038451936020818188019661052381838a612028565b604051602081845161182e818387612028565b8101600181520301902060405161184481611ebc565b61184d826120d8565b8152606060ff60036118616001860161223b565b946020850195865260028101546040860152015416151591015260009160005b82515181101561190057604080805160208189516118a081838a612028565b8101600881520301902060018060a01b036118bc858851612342565b516001600160a01b039116811660009081526020928352928320908a168352905220546118ec575b600101611881565b926118f86001916122d0565b9390506118e4565b509061190e61062f84612356565b9260009260005b8351518110156106ed5760408080516020818b5161193481838a612028565b8101600881520301902060018060a01b03611950858951612342565b516001600160a01b039116811660009081526020928352928320908c1683529052205480611982575b50600101611915565b6001919561199b91838060a01b036106c9898951612342565b9490611979565b34610142576000366003190112610142576020600254604051908152f35b34610142576020366003190112610142576004356001600160401b03811161014257611a3c6001611a2d60206119fd6106fc953690600401611ef8565b6040519061148460ff6003835194868181870197611a1c81838b612028565b81018b8152030190200154166122ff565b8101848152030190200161223b565b604051918291602083526020830190611f4e565b34610142576040366003190112610142576024356001600160a01b038116906004359082900361014257611a8261257f565b806000526003602052611a9b81604060002054146121f6565b806000526003602052604060002060405191611ab683611ea0565b81548352611ac6600183016120d8565b6020840190815260028301546001600160a01b0316604085015292611aed600384016120d8565b606082015260048301546080820152610140611b56600a60058601549560a08501968752611b1d600682016120d8565b60c0860152611b2e600782016120d8565b60e08601526008810154610100860152611b4a6009820161223b565b610120860152016120d8565b910152611b616125a1565b925191611b716107ea8585612388565b6040519083519160208181870194611b8a818388612028565b8101600881520301902060018060a01b03861660005260205260406000208660005260205260406000205415611e455751906040516020818651611bcf818387612028565b8101600881520301902060018060a01b0386166000526020526040600020866000526020528160406000205410611e09576040516020818651611c13818387612028565b8101600881520301902060018060a01b0386166000526020526040600020866000526020526040600020805490838203918211610bed575560075492611c58846122d0565b600755611c636125a1565b604051946001600160a01b03909116321415919060c086016001600160401b038111878210176103b35760806020968b95611d83611dab9a7fc2fbb7f1ca94ac6e3e6a91e666986ddcf7fa936faa9ef0aa29f4403f98af09ed9560405287815260058b82019e60018060a01b03169e8f9a8b825260408401908152606084018781528885019142835260a08601938885528c60005260206006905260406000209651875560018060a01b03905116600187019060018060a01b03166bffffffffffffffffffffffff60a01b82541617905560018060a01b03905116600286019060018060a01b03166bffffffffffffffffffffffff60a01b82541617905551600385015551600484015551151591019060ff801983541691151516179055565b604051918d8352898301526040820152426060820152a4604051809381928651928391612028565b81016008815203019020826000526020526040600020836000526020527fc247df220fd28f38c52084b08c97414ffcb3c5f5a3a6c1bbb17745bb3e8cfb0a6020611dfa604060002054936122df565b92604051908152a46001600055005b60405162461bcd60e51b8152602060048201526014602482015273088cac4e840c2dadeeadce840dad2e6dac2e8c6d60631b6044820152606490fd5b60405162461bcd60e51b815260206004820152601860248201527f4e6f206465627420746f2074686973206372656469746f7200000000000000006044820152606490fd5b600435906001600160a01b038216820361014257565b61016081019081106001600160401b038211176103b357604052565b608081019081106001600160401b038211176103b357604052565b90601f801991011681019081106001600160401b038211176103b357604052565b81601f82011215610142578035906001600160401b0382116103b35760405192611f2c601f8401601f191660200185611ed7565b8284526020838301011161014257816000926020809301838601378301015290565b906020808351928381520192019060005b818110611f6c5750505090565b82516001600160a01b0316845260209384019390920191600101611f5f565b604060031982011261014257600435906001600160401b03821161014257611fb591600401611ef8565b906024356001600160a01b03811681036101425790565b906020808351928381520192019060005b818110611fea5750505090565b8251845260209384019390920191600101611fdd565b909161201761202593604084526040840190611f4e565b916020818403910152611fcc565b90565b60005b83811061203b5750506000910152565b818101518382015260200161202b565b9060209161206481518092818552858086019101612028565b601f01601f1916010190565b80548210156120885760005260206000200190600090565b634e487b7160e01b600052603260045260246000fd5b90600182811c921680156120ce575b60208310146120b857565b634e487b7160e01b600052602260045260246000fd5b91607f16916120ad565b90604051918260008254926120ec8461209e565b808452936001811690811561215a5750600114612113575b5061211192500383611ed7565b565b90506000929192526020600020906000915b81831061213e5750509060206121119282010138612104565b6020919350806001915483858901015201910190918492612125565b90506020925061211194915060ff191682840152151560051b82010138612104565b9061039d57612025906120d8565b606060031982011261014257600435906001600160401b038211610142576121b491600401611ef8565b906024356001600160a01b038116810361014257906044356001600160a01b03811681036101425790565b6001600160401b0381116103b35760051b60200190565b156121fd57565b60405162461bcd60e51b8152602060048201526016602482015275115e1c195b9cd948191bd95cc81b9bdd08195e1a5cdd60521b6044820152606490fd5b906040519182815491828252602082019060005260206000209260005b81811061226d57505061211192500383611ed7565b84546001600160a01b0316835260019485019487945060209093019201612258565b1561229657565b60405162461bcd60e51b81526020600482015260126024820152712737ba10309033b937bab81036b2b6b132b960711b6044820152606490fd5b6000198114610bed5760010190565b6122f790602060405192828480945193849201612028565b810103902090565b1561230657565b60405162461bcd60e51b815260206004820152601460248201527311dc9bdd5c08191bd95cc81b9bdd08195e1a5cdd60621b6044820152606490fd5b80518210156120885760209160051b010190565b90612360826121df565b61236d6040519182611ed7565b828152809261237e601f19916121df565b0190602036910137565b60206123a1918160405193828580945193849201612028565b81016001815203019020906040516123b881611ebc565b6123c1836120d8565b8152606060ff60036123d56001870161223b565b956020850196875260028101546040860152015416151591015260005b82518051821015612432576001600160a01b0390612411908390612342565b51166001600160a01b0383161461242a576001016123f2565b505050600190565b50505050600090565b818110612446575050565b6000815560010161243b565b91909182516001600160401b0381116103b35761246f825461209e565b601f8111612515575b506020601f82116001146124b357819293946000926124a8575b50508160011b916000199060031b1c1916179055565b015190503880612492565b601f1982169083600052806000209160005b8181106124fd575095836001959697106124e4575b505050811b019055565b015160001960f88460031b161c191690553880806124da565b9192602060018192868b0151815501940192016124c5565b61254290836000526020600020601f840160051c81019160208510612548575b601f0160051c019061243b565b38612478565b9091508190612535565b8054600160401b8110156103b35761256f91600182018155612070565b91909161039d5761211191612452565b600260005414612590576002600055565b633ee5aeb560e01b60005260046000fd5b6014361015806125c8575b156125c4576013193601368111610142573560601c90565b3390565b50337f00000000000000000000000000000000000000000000000000000000000000006001600160a01b0316146125ac565b9060005b8251811015612632576001600160a01b036126198285612342565b51166001600160a01b0383161461242a576001016125fe565b50505060009056fea26469706673582212202403e61d006dd9dd7d4f6388a0c47e72d0a9a921ef1fcdcf533e488b8343c9c564736f6c634300081b0033","opcodes":"PUSH1 0xA0 CALLVALUE PUSH2 0x87 JUMPI PUSH1 0x1F PUSH2 0x2713 CODESIZE DUP2 SWAP1 SUB SWAP2 DUP3 ADD PUSH1 0x1F NOT AND DUP4 ADD SWAP2 PUSH1 0x1 PUSH1 0x1 PUSH1 0x40 SHL SUB DUP4 GT DUP5 DUP5 LT OR PUSH2 0x8C JUMPI DUP1 DUP5 SWAP3 PUSH1 0x20 SWAP5 PUSH1 0x40 MSTORE DUP4 CODECOPY DUP2 ADD SUB SLT PUSH2 0x87 JUMPI MLOAD PUSH1 0x1 PUSH1 0x1 PUSH1 0xA0 SHL SUB DUP2 AND DUP2 SUB PUSH2 0x87 JUMPI PUSH1 0x80 MSTORE PUSH1 0x1 PUSH1 0x0 SSTORE PUSH1 0x1 PUSH1 0x4 SSTORE PUSH1 0x1 PUSH1 0x7 SSTORE PUSH1 0x40 MLOAD PUSH2 0x2670 SWAP1 DUP2 PUSH2 0xA3 DUP3 CODECOPY PUSH1 0x80 MLOAD DUP2 DUP2 DUP2 PUSH2 0xFD9 ADD MSTORE DUP2 DUP2 PUSH2 0x13FC ADD MSTORE PUSH2 0x25CC ADD MSTORE RETURN JUMPDEST PUSH1 0x0 DUP1 REVERT JUMPDEST PUSH4 0x4E487B71 PUSH1 0xE0 SHL PUSH1 0x0 MSTORE PUSH1 0x41 PUSH1 0x4 MSTORE PUSH1 0x24 PUSH1 0x0 REVERT INVALID PUSH1 0x80 PUSH1 0x40 MSTORE PUSH1 0x4 CALLDATASIZE LT ISZERO PUSH2 0x12 JUMPI PUSH1 0x0 DUP1 REVERT JUMPDEST PUSH1 0x0 CALLDATALOAD PUSH1 0xE0 SHR DUP1 PUSH4 0x245D036 EQ PUSH2 0x1A50 JUMPI DUP1 PUSH4 0x2750201 EQ PUSH2 0x19C0 JUMPI DUP1 PUSH4 0x6545A93 EQ PUSH2 0x19A2 JUMPI DUP1 PUSH4 0x7EDFFE0 EQ PUSH2 0x17ED JUMPI DUP1 PUSH4 0x15B3671D EQ PUSH2 0x17CA JUMPI DUP1 PUSH4 0x3DA04E4A EQ PUSH2 0x16E1 JUMPI DUP1 PUSH4 0x4093D7A1 EQ PUSH2 0x166F JUMPI DUP1 PUSH4 0x40BE33E8 EQ PUSH2 0x1638 JUMPI DUP1 PUSH4 0x45E39705 EQ PUSH2 0x14FB JUMPI DUP1 PUSH4 0x4BD4622C EQ PUSH2 0x1430 JUMPI DUP1 PUSH4 0x572B6C05 EQ PUSH2 0x13DC JUMPI DUP1 PUSH4 0x5768A315 EQ PUSH2 0x1374 JUMPI DUP1 PUSH4 0x60A9E097 EQ PUSH2 0x130D JUMPI DUP1 PUSH4 0x6B52230B EQ PUSH2 0x127C JUMPI DUP1 PUSH4 0x735E5DB6 EQ PUSH2 0x1026 JUMPI DUP1 PUSH4 0x76840B60 EQ PUSH2 0x1008 JUMPI DUP1 PUSH4 0x7DA0A877 EQ PUSH2 0xFC3 JUMPI DUP1 PUSH4 0x87D81789 EQ PUSH2 0xF4B JUMPI DUP1 PUSH4 0x93537DD8 EQ PUSH2 0xED1 JUMPI DUP1 PUSH4 0xAF4AFE0A EQ PUSH2 0xDCE JUMPI DUP1 PUSH4 0xBEF9F7A4 EQ PUSH2 0x700 JUMPI DUP1 PUSH4 0xCDC88E02 EQ PUSH2 0x4F5 JUMPI DUP1 PUSH4 0xCFBE575C EQ PUSH2 0x147 JUMPI PUSH4 0xDDCAD2AE EQ PUSH2 0x124 JUMPI PUSH1 0x0 DUP1 REVERT JUMPDEST CALLVALUE PUSH2 0x142 JUMPI PUSH1 0x0 CALLDATASIZE PUSH1 0x3 NOT ADD SLT PUSH2 0x142 JUMPI PUSH1 0x20 PUSH1 0x4 SLOAD PUSH1 0x40 MLOAD SWAP1 DUP2 MSTORE RETURN JUMPDEST PUSH1 0x0 DUP1 REVERT JUMPDEST CALLVALUE PUSH2 0x142 JUMPI PUSH1 0x40 CALLDATASIZE PUSH1 0x3 NOT ADD SLT PUSH2 0x142 JUMPI PUSH1 0x4 CALLDATALOAD PUSH1 0x1 PUSH1 0x1 PUSH1 0x40 SHL SUB DUP2 GT PUSH2 0x142 JUMPI PUSH2 0x177 SWAP1 CALLDATASIZE SWAP1 PUSH1 0x4 ADD PUSH2 0x1EF8 JUMP JUMPDEST PUSH1 0x24 CALLDATALOAD SWAP1 PUSH1 0x1 PUSH1 0x1 PUSH1 0x40 SHL SUB DUP3 GT PUSH2 0x142 JUMPI CALLDATASIZE PUSH1 0x23 DUP4 ADD SLT ISZERO PUSH2 0x142 JUMPI DUP2 PUSH1 0x4 ADD CALLDATALOAD PUSH2 0x1A2 DUP2 PUSH2 0x21DF JUMP JUMPDEST SWAP3 PUSH2 0x1B0 PUSH1 0x40 MLOAD SWAP5 DUP6 PUSH2 0x1ED7 JUMP JUMPDEST DUP2 DUP5 MSTORE PUSH1 0x24 PUSH1 0x20 DUP6 ADD SWAP3 PUSH1 0x5 SHL DUP3 ADD ADD SWAP1 CALLDATASIZE DUP3 GT PUSH2 0x142 JUMPI PUSH1 0x24 ADD SWAP2 JUMPDEST DUP2 DUP4 LT PUSH2 0x4D5 JUMPI POP POP POP PUSH1 0x40 MLOAD PUSH1 0xFF PUSH1 0x3 DUP4 MLOAD SWAP3 PUSH1 0x20 DUP2 DUP2 DUP8 ADD SWAP6 PUSH2 0x1F3 DUP2 DUP4 DUP10 PUSH2 0x2028 JUMP JUMPDEST DUP2 ADD PUSH1 0x1 DUP2 MSTORE SUB ADD SWAP1 KECCAK256 ADD SLOAD AND PUSH2 0x499 JUMPI DUP3 MLOAD ISZERO PUSH2 0x448 JUMPI PUSH2 0x21C PUSH2 0x216 PUSH2 0x25A1 JUMP JUMPDEST DUP5 PUSH2 0x25FA JUMP JUMPDEST ISZERO PUSH2 0x403 JUMPI PUSH1 0x40 MLOAD SWAP1 PUSH2 0x22E DUP3 PUSH2 0x1EBC JUMP JUMPDEST DUP3 DUP3 MSTORE PUSH1 0x20 DUP3 ADD DUP5 DUP2 MSTORE PUSH1 0x40 DUP4 ADD SWAP1 TIMESTAMP DUP3 MSTORE PUSH2 0x274 PUSH2 0x262 PUSH1 0x20 PUSH1 0x60 DUP8 ADD SWAP6 PUSH1 0x1 DUP8 MSTORE PUSH1 0x40 MLOAD DUP1 SWAP4 DUP2 SWAP3 DUP12 MLOAD SWAP3 DUP4 SWAP2 PUSH2 0x2028 JUMP JUMPDEST DUP2 ADD PUSH1 0x1 DUP2 MSTORE SUB ADD SWAP1 KECCAK256 SWAP5 MLOAD DUP6 PUSH2 0x2452 JUMP JUMPDEST MLOAD DUP1 MLOAD SWAP1 PUSH1 0x1 DUP6 ADD SWAP1 PUSH1 0x1 PUSH1 0x1 PUSH1 0x40 SHL SUB DUP4 GT PUSH2 0x3B3 JUMPI PUSH1 0x1 PUSH1 0x40 SHL DUP4 GT PUSH2 0x3B3 JUMPI PUSH1 0x20 SWAP1 DUP3 SLOAD DUP5 DUP5 SSTORE DUP1 DUP6 LT PUSH2 0x3E6 JUMPI JUMPDEST POP ADD SWAP1 PUSH1 0x0 MSTORE PUSH1 0x20 PUSH1 0x0 KECCAK256 PUSH1 0x0 JUMPDEST DUP4 DUP2 LT PUSH2 0x3C9 JUMPI DUP9 DUP9 PUSH2 0x2E1 DUP10 PUSH1 0x3 DUP11 DUP11 MLOAD PUSH1 0x2 DUP5 ADD SSTORE MLOAD ISZERO ISZERO SWAP2 ADD SWAP1 PUSH1 0xFF DUP1 NOT DUP4 SLOAD AND SWAP2 ISZERO ISZERO AND OR SWAP1 SSTORE JUMP JUMPDEST PUSH1 0x2 SLOAD PUSH1 0x1 PUSH1 0x40 SHL DUP2 LT ISZERO PUSH2 0x3B3 JUMPI DUP1 PUSH1 0x1 PUSH2 0x302 SWAP3 ADD PUSH1 0x2 SSTORE PUSH1 0x2 PUSH2 0x2070 JUMP JUMPDEST PUSH2 0x39D JUMPI DUP2 PUSH2 0x310 SWAP2 PUSH2 0x2452 JUMP JUMPDEST PUSH1 0x0 JUMPDEST DUP3 MLOAD DUP2 LT ISZERO PUSH2 0x34F JUMPI PUSH1 0x1 SWAP1 PUSH1 0x1 PUSH1 0x1 PUSH1 0xA0 SHL SUB PUSH2 0x331 DUP3 DUP7 PUSH2 0x2342 JUMP JUMPDEST MLOAD AND PUSH1 0x0 MSTORE PUSH1 0x9 PUSH1 0x20 MSTORE PUSH2 0x349 DUP4 PUSH1 0x40 PUSH1 0x0 KECCAK256 PUSH2 0x2552 JUMP JUMPDEST ADD PUSH2 0x313 JUMP JUMPDEST POP PUSH2 0x392 PUSH2 0x37D PUSH32 0x3599F24E25095535210B1B8CA48FBA46C30FCD53BDB6CEF3A68A38A4AD265337 SWAP3 PUSH2 0x22DF JUMP JUMPDEST SWAP3 PUSH1 0x40 MLOAD SWAP2 DUP3 SWAP2 PUSH1 0x40 DUP4 MSTORE PUSH1 0x40 DUP4 ADD SWAP1 PUSH2 0x1F4E JUMP JUMPDEST TIMESTAMP PUSH1 0x20 DUP4 ADD MSTORE SUB SWAP1 LOG2 STOP JUMPDEST PUSH4 0x4E487B71 PUSH1 0xE0 SHL PUSH1 0x0 MSTORE PUSH1 0x0 PUSH1 0x4 MSTORE PUSH1 0x24 PUSH1 0x0 REVERT JUMPDEST PUSH4 0x4E487B71 PUSH1 0xE0 SHL PUSH1 0x0 MSTORE PUSH1 0x41 PUSH1 0x4 MSTORE PUSH1 0x24 PUSH1 0x0 REVERT JUMPDEST DUP3 MLOAD PUSH1 0x1 PUSH1 0x1 PUSH1 0xA0 SHL SUB AND DUP2 DUP4 ADD SSTORE PUSH1 0x20 SWAP1 SWAP3 ADD SWAP2 PUSH1 0x1 ADD PUSH2 0x2B4 JUMP JUMPDEST PUSH2 0x3FD SWAP1 DUP5 PUSH1 0x0 MSTORE DUP6 DUP5 PUSH1 0x0 KECCAK256 SWAP2 DUP3 ADD SWAP2 ADD PUSH2 0x243B JUMP JUMPDEST DUP10 PUSH2 0x2A6 JUMP JUMPDEST PUSH1 0x40 MLOAD PUSH3 0x461BCD PUSH1 0xE5 SHL DUP2 MSTORE PUSH1 0x20 PUSH1 0x4 DUP3 ADD MSTORE PUSH1 0x18 PUSH1 0x24 DUP3 ADD MSTORE PUSH32 0x43726561746F72206D7573742062652061206D656D6265720000000000000000 PUSH1 0x44 DUP3 ADD MSTORE PUSH1 0x64 SWAP1 REVERT JUMPDEST PUSH1 0x40 MLOAD PUSH3 0x461BCD PUSH1 0xE5 SHL DUP2 MSTORE PUSH1 0x20 PUSH1 0x4 DUP3 ADD MSTORE PUSH1 0x23 PUSH1 0x24 DUP3 ADD MSTORE PUSH32 0x47726F7570206D7573742068617665206174206C65617374206F6E65206D656D PUSH1 0x44 DUP3 ADD MSTORE PUSH3 0x3132B9 PUSH1 0xE9 SHL PUSH1 0x64 DUP3 ADD MSTORE PUSH1 0x84 SWAP1 REVERT JUMPDEST PUSH1 0x40 MLOAD PUSH3 0x461BCD PUSH1 0xE5 SHL DUP2 MSTORE PUSH1 0x20 PUSH1 0x4 DUP3 ADD MSTORE PUSH1 0x14 PUSH1 0x24 DUP3 ADD MSTORE PUSH20 0x47726F757020616C726561647920657869737473 PUSH1 0x60 SHL PUSH1 0x44 DUP3 ADD MSTORE PUSH1 0x64 SWAP1 REVERT JUMPDEST DUP3 CALLDATALOAD PUSH1 0x1 PUSH1 0x1 PUSH1 0xA0 SHL SUB DUP2 AND DUP2 SUB PUSH2 0x142 JUMPI DUP2 MSTORE PUSH1 0x20 SWAP3 DUP4 ADD SWAP3 ADD PUSH2 0x1CD JUMP JUMPDEST CALLVALUE PUSH2 0x142 JUMPI PUSH2 0x503 CALLDATASIZE PUSH2 0x1F8B JUMP JUMPDEST SWAP1 PUSH1 0x40 MLOAD PUSH2 0x535 PUSH1 0xFF PUSH1 0x3 DUP5 MLOAD SWAP4 PUSH1 0x20 DUP2 DUP2 DUP9 ADD SWAP7 PUSH2 0x523 DUP2 DUP4 DUP11 PUSH2 0x2028 JUMP JUMPDEST DUP2 ADD PUSH1 0x1 DUP2 MSTORE SUB ADD SWAP1 KECCAK256 ADD SLOAD AND PUSH2 0x22FF JUMP JUMPDEST PUSH1 0x40 MLOAD PUSH1 0x20 DUP2 DUP5 MLOAD PUSH2 0x548 DUP2 DUP4 DUP8 PUSH2 0x2028 JUMP JUMPDEST DUP2 ADD PUSH1 0x1 DUP2 MSTORE SUB ADD SWAP1 KECCAK256 PUSH1 0x40 MLOAD PUSH2 0x55E DUP2 PUSH2 0x1EBC JUMP JUMPDEST PUSH2 0x567 DUP3 PUSH2 0x20D8 JUMP JUMPDEST DUP2 MSTORE PUSH1 0x60 PUSH1 0xFF PUSH1 0x3 PUSH2 0x57B PUSH1 0x1 DUP7 ADD PUSH2 0x223B JUMP JUMPDEST SWAP5 PUSH1 0x20 DUP6 ADD SWAP6 DUP7 MSTORE PUSH1 0x2 DUP2 ADD SLOAD PUSH1 0x40 DUP7 ADD MSTORE ADD SLOAD AND ISZERO ISZERO SWAP2 ADD MSTORE PUSH1 0x0 SWAP2 PUSH1 0x0 JUMPDEST DUP3 MLOAD MLOAD DUP2 LT ISZERO PUSH2 0x621 JUMPI PUSH1 0x40 DUP1 DUP1 MLOAD PUSH1 0x20 DUP2 DUP10 MLOAD PUSH2 0x5BA DUP2 DUP4 DUP11 PUSH2 0x2028 JUMP JUMPDEST DUP2 ADD PUSH1 0x8 DUP2 MSTORE SUB ADD SWAP1 KECCAK256 PUSH1 0x0 SWAP1 PUSH1 0x1 DUP1 PUSH1 0xA0 SHL SUB DUP11 AND DUP3 MSTORE PUSH1 0x20 MSTORE KECCAK256 PUSH1 0x1 DUP1 PUSH1 0xA0 SHL SUB PUSH2 0x5E8 DUP5 DUP8 MLOAD PUSH2 0x2342 JUMP JUMPDEST MLOAD AND PUSH1 0x1 PUSH1 0x1 PUSH1 0xA0 SHL SUB AND PUSH1 0x0 SWAP1 DUP2 MSTORE PUSH1 0x20 SWAP2 SWAP1 SWAP2 MSTORE KECCAK256 SLOAD PUSH2 0x60D JUMPI JUMPDEST PUSH1 0x1 ADD PUSH2 0x59B JUMP JUMPDEST SWAP3 PUSH2 0x619 PUSH1 0x1 SWAP2 PUSH2 0x22D0 JUMP JUMPDEST SWAP4 SWAP1 POP PUSH2 0x605 JUMP JUMPDEST POP SWAP1 PUSH2 0x635 PUSH2 0x62F DUP5 PUSH2 0x2356 JUMP JUMPDEST SWAP4 PUSH2 0x2356 JUMP JUMPDEST SWAP3 PUSH1 0x0 SWAP3 PUSH1 0x0 JUMPDEST DUP4 MLOAD MLOAD DUP2 LT ISZERO PUSH2 0x6ED JUMPI PUSH1 0x40 DUP1 DUP1 MLOAD PUSH1 0x20 DUP2 DUP12 MLOAD PUSH2 0x65B DUP2 DUP4 DUP11 PUSH2 0x2028 JUMP JUMPDEST DUP2 ADD PUSH1 0x8 DUP2 MSTORE SUB ADD SWAP1 KECCAK256 PUSH1 0x0 SWAP1 PUSH1 0x1 DUP1 PUSH1 0xA0 SHL SUB DUP13 AND DUP3 MSTORE PUSH1 0x20 MSTORE KECCAK256 PUSH1 0x1 DUP1 PUSH1 0xA0 SHL SUB PUSH2 0x689 DUP5 DUP9 MLOAD PUSH2 0x2342 JUMP JUMPDEST MLOAD AND PUSH1 0x1 PUSH1 0x1 PUSH1 0xA0 SHL SUB AND PUSH1 0x0 SWAP1 DUP2 MSTORE PUSH1 0x20 SWAP2 SWAP1 SWAP2 MSTORE KECCAK256 SLOAD DUP1 PUSH2 0x6B0 JUMPI JUMPDEST POP PUSH1 0x1 ADD PUSH2 0x63C JUMP JUMPDEST PUSH1 0x1 SWAP2 SWAP6 PUSH2 0x6E6 SWAP2 DUP4 DUP1 PUSH1 0xA0 SHL SUB PUSH2 0x6C9 DUP10 DUP10 MLOAD PUSH2 0x2342 JUMP JUMPDEST MLOAD AND PUSH2 0x6D5 DUP4 DUP9 PUSH2 0x2342 JUMP JUMPDEST MSTORE PUSH2 0x6E0 DUP3 DUP11 PUSH2 0x2342 JUMP JUMPDEST MSTORE PUSH2 0x22D0 JUMP JUMPDEST SWAP5 SWAP1 PUSH2 0x6A7 JUMP JUMPDEST PUSH1 0x40 MLOAD DUP1 PUSH2 0x6FC DUP9 DUP7 DUP4 PUSH2 0x2000 JUMP JUMPDEST SUB SWAP1 RETURN JUMPDEST CALLVALUE PUSH2 0x142 JUMPI PUSH1 0xE0 CALLDATASIZE PUSH1 0x3 NOT ADD SLT PUSH2 0x142 JUMPI PUSH1 0x4 CALLDATALOAD PUSH1 0x1 PUSH1 0x1 PUSH1 0x40 SHL SUB DUP2 GT PUSH2 0x142 JUMPI PUSH2 0x730 SWAP1 CALLDATASIZE SWAP1 PUSH1 0x4 ADD PUSH2 0x1EF8 JUMP JUMPDEST PUSH1 0x24 CALLDATALOAD PUSH1 0x1 PUSH1 0x1 PUSH1 0x40 SHL SUB DUP2 GT PUSH2 0x142 JUMPI PUSH2 0x74F SWAP1 CALLDATASIZE SWAP1 PUSH1 0x4 ADD PUSH2 0x1EF8 JUMP JUMPDEST SWAP1 PUSH1 0x44 CALLDATALOAD SWAP2 PUSH1 0x64 CALLDATALOAD SWAP1 PUSH1 0x84 CALLDATALOAD PUSH1 0x1 PUSH1 0x1 PUSH1 0x40 SHL SUB DUP2 GT PUSH2 0x142 JUMPI PUSH2 0x777 SWAP1 CALLDATASIZE SWAP1 PUSH1 0x4 ADD PUSH2 0x1EF8 JUMP JUMPDEST SWAP3 PUSH1 0xA4 CALLDATALOAD PUSH1 0x1 PUSH1 0x1 PUSH1 0x40 SHL SUB DUP2 GT PUSH2 0x142 JUMPI PUSH2 0x797 SWAP1 CALLDATASIZE SWAP1 PUSH1 0x4 ADD PUSH2 0x1EF8 JUMP JUMPDEST PUSH1 0xC4 CALLDATALOAD PUSH1 0x1 PUSH1 0x1 PUSH1 0x40 SHL SUB DUP2 GT PUSH2 0x142 JUMPI PUSH2 0x7B6 SWAP1 CALLDATASIZE SWAP1 PUSH1 0x4 ADD PUSH2 0x1EF8 JUMP JUMPDEST SWAP1 PUSH1 0x40 MLOAD SWAP5 PUSH2 0x7D6 PUSH1 0xFF PUSH1 0x3 DUP9 PUSH1 0x20 DUP2 DUP10 MLOAD PUSH2 0x523 DUP2 DUP5 DUP14 ADD SWAP15 DUP16 PUSH2 0x2028 JUMP JUMPDEST PUSH2 0x7EF PUSH2 0x7EA PUSH2 0x7E4 PUSH2 0x25A1 JUMP JUMPDEST DUP7 PUSH2 0x2388 JUMP JUMPDEST PUSH2 0x228F JUMP JUMPDEST PUSH2 0x7F7 PUSH2 0x257F JUMP JUMPDEST DUP8 ISZERO PUSH2 0xD7D JUMPI DUP1 ISZERO PUSH2 0xD27 JUMPI DUP5 MLOAD ISZERO PUSH2 0xCE9 JUMPI DUP2 MLOAD ISZERO PUSH2 0xCAF JUMPI PUSH1 0x4 SLOAD SWAP7 PUSH2 0x81E DUP9 PUSH2 0x22D0 JUMP JUMPDEST PUSH1 0x4 SSTORE PUSH2 0x829 PUSH2 0x25A1 JUMP JUMPDEST SWAP8 PUSH1 0x1 PUSH1 0x40 MLOAD PUSH1 0x20 DUP2 DUP1 PUSH2 0x841 DUP14 DUP13 MLOAD SWAP3 DUP4 SWAP2 PUSH2 0x2028 JUMP JUMPDEST DUP2 ADD DUP5 DUP2 MSTORE SUB ADD SWAP1 KECCAK256 ADD SLOAD PUSH1 0x0 NOT DUP2 ADD SWAP1 DUP2 GT PUSH2 0xBED JUMPI SWAP10 PUSH2 0x866 DUP10 SWAP7 SWAP11 SWAP9 SWAP12 PUSH2 0x2356 JUMP JUMPDEST SWAP11 DUP12 PUSH1 0x0 SWAP10 PUSH1 0x1 PUSH2 0x890 PUSH1 0x20 PUSH1 0x0 SWAP4 DUP4 DUP1 PUSH1 0xA0 SHL SUB AND SWAP12 JUMPDEST DUP14 PUSH1 0x40 MLOAD SWAP4 DUP5 SWAP3 DUP4 SWAP3 MLOAD SWAP3 DUP4 SWAP2 PUSH2 0x2028 JUMP JUMPDEST DUP2 ADD DUP5 DUP2 MSTORE SUB ADD SWAP1 KECCAK256 ADD SLOAD DUP2 LT ISZERO PUSH2 0x946 JUMPI SWAP1 DUP2 DUP10 PUSH2 0x8CF DUP15 SWAP5 PUSH1 0x1 DUP15 PUSH1 0x20 PUSH1 0x40 MLOAD DUP1 SWAP3 MLOAD PUSH2 0x8C0 DUP2 DUP4 DUP14 PUSH2 0x2028 JUMP JUMPDEST DUP2 ADD DUP5 DUP2 MSTORE SUB ADD SWAP1 KECCAK256 ADD PUSH2 0x2070 JUMP JUMPDEST SWAP1 SLOAD PUSH1 0x3 SWAP2 SWAP1 SWAP2 SHL SHR PUSH1 0x1 PUSH1 0x1 PUSH1 0xA0 SHL SUB AND SUB PUSH2 0x8F8 JUMPI JUMPDEST PUSH2 0x890 PUSH1 0x20 PUSH1 0x1 DUP1 SWAP4 ADD SWAP4 SWAP5 PUSH2 0x87E JUMP JUMPDEST SWAP11 PUSH2 0x890 PUSH1 0x20 PUSH1 0x1 PUSH2 0x93B DUP16 SWAP5 DUP16 DUP4 SWAP7 DUP5 PUSH2 0x8C0 DUP8 DUP13 PUSH2 0x923 SWAP6 PUSH1 0x40 MLOAD SWAP4 DUP5 SWAP3 DUP4 SWAP3 MLOAD SWAP3 DUP4 SWAP2 PUSH2 0x2028 JUMP JUMPDEST DUP5 DUP1 PUSH1 0xA0 SHL SUB SWAP2 SLOAD SWAP1 PUSH1 0x3 SHL SHR AND PUSH2 0x6E0 DUP3 DUP10 PUSH2 0x2342 JUMP JUMPDEST SWAP15 SWAP4 POP POP POP POP PUSH2 0x8E7 JUMP JUMPDEST POP SWAP10 SWAP7 SWAP8 SWAP6 SWAP9 POP DUP11 DUP11 PUSH1 0x40 MLOAD SWAP3 PUSH2 0x95C DUP5 PUSH2 0x1EA0 JUMP JUMPDEST DUP6 DUP5 MSTORE DUP12 PUSH1 0x20 DUP6 ADD SWAP2 DUP11 DUP4 MSTORE PUSH1 0x40 DUP7 ADD SWAP1 DUP14 DUP3 MSTORE PUSH1 0x60 DUP8 ADD SWAP1 DUP2 MSTORE PUSH1 0x80 DUP8 ADD DUP9 DUP2 MSTORE PUSH1 0xA0 DUP9 ADD SWAP2 DUP13 DUP4 MSTORE PUSH1 0xC0 DUP10 ADD SWAP4 DUP13 DUP6 MSTORE PUSH1 0xE0 DUP11 ADD SWAP6 DUP7 MSTORE PUSH2 0x100 DUP11 ADD SWAP7 TIMESTAMP DUP9 MSTORE PUSH2 0x120 DUP12 ADD SWAP9 DUP10 MSTORE PUSH2 0x140 DUP12 ADD SWAP10 DUP11 MSTORE DUP13 PUSH1 0x0 MSTORE PUSH1 0x3 PUSH1 0x20 MSTORE PUSH1 0x40 PUSH1 0x0 KECCAK256 SWAP11 MLOAD DUP12 SSTORE MLOAD PUSH1 0x1 DUP12 ADD SWAP1 PUSH2 0x9CF SWAP2 PUSH2 0x2452 JUMP JUMPDEST MLOAD PUSH1 0x2 DUP11 ADD DUP1 SLOAD PUSH1 0x1 PUSH1 0x1 PUSH1 0xA0 SHL SUB NOT AND PUSH1 0x1 PUSH1 0x1 PUSH1 0xA0 SHL SUB SWAP3 SWAP1 SWAP3 AND SWAP2 SWAP1 SWAP2 OR SWAP1 SSTORE MLOAD PUSH2 0xA00 SWAP1 PUSH1 0x3 DUP11 ADD PUSH2 0x2452 JUMP JUMPDEST MLOAD PUSH1 0x4 DUP9 ADD SSTORE MLOAD PUSH1 0x5 DUP8 ADD SSTORE MLOAD PUSH2 0xA1A SWAP1 PUSH1 0x6 DUP8 ADD PUSH2 0x2452 JUMP JUMPDEST MLOAD PUSH2 0xA28 SWAP1 PUSH1 0x7 DUP7 ADD PUSH2 0x2452 JUMP JUMPDEST MLOAD PUSH1 0x8 DUP5 ADD SSTORE MLOAD DUP1 MLOAD SWAP1 PUSH1 0x9 DUP5 ADD SWAP1 PUSH1 0x1 PUSH1 0x1 PUSH1 0x40 SHL SUB DUP4 GT PUSH2 0x3B3 JUMPI PUSH1 0x1 PUSH1 0x40 SHL DUP4 GT PUSH2 0x3B3 JUMPI PUSH1 0x20 SWAP1 DUP3 SLOAD DUP5 DUP5 SSTORE DUP1 DUP6 LT PUSH2 0xC92 JUMPI JUMPDEST POP ADD SWAP1 PUSH1 0x0 MSTORE PUSH1 0x20 PUSH1 0x0 KECCAK256 PUSH1 0x0 JUMPDEST DUP4 DUP2 LT PUSH2 0xC75 JUMPI POP POP POP POP SWAP1 PUSH1 0xA PUSH2 0xA88 SWAP3 MLOAD SWAP2 ADD PUSH2 0x2452 JUMP JUMPDEST PUSH1 0x40 MLOAD PUSH1 0x20 DUP2 DUP8 MLOAD PUSH2 0xA9B DUP2 DUP4 DUP13 PUSH2 0x2028 JUMP JUMPDEST DUP2 ADD PUSH1 0x5 DUP2 MSTORE SUB ADD SWAP1 KECCAK256 DUP1 SLOAD PUSH1 0x1 PUSH1 0x40 SHL DUP2 LT ISZERO PUSH2 0x3B3 JUMPI PUSH2 0xAC2 SWAP2 PUSH1 0x1 DUP3 ADD DUP2 SSTORE PUSH2 0x2070 JUMP JUMPDEST DUP2 SLOAD SWAP1 PUSH1 0x3 SHL SWAP1 DUP5 DUP3 SHL SWAP2 PUSH1 0x0 NOT SWAP1 SHL NOT AND OR SWAP1 SSTORE PUSH1 0x0 JUMPDEST DUP10 MLOAD DUP2 LT ISZERO PUSH2 0xC03 JUMPI PUSH1 0x40 DUP1 DUP1 MLOAD PUSH1 0x20 DUP2 DUP1 PUSH2 0xAFA DUP14 DUP14 MLOAD SWAP3 DUP4 SWAP2 PUSH2 0x2028 JUMP JUMPDEST PUSH1 0x8 SWAP1 DUP3 ADD SWAP1 DUP2 MSTORE SUB ADD SWAP1 KECCAK256 PUSH1 0x1 PUSH1 0x1 PUSH1 0xA0 SHL SUB PUSH2 0xB18 DUP6 DUP16 PUSH2 0x2342 JUMP JUMPDEST MLOAD AND SWAP1 PUSH1 0x0 SWAP2 PUSH1 0x1 DUP1 PUSH1 0xA0 SHL SUB AND DUP3 MSTORE PUSH1 0x20 MSTORE KECCAK256 PUSH1 0x0 SWAP1 DUP11 DUP3 MSTORE PUSH1 0x20 MSTORE KECCAK256 SWAP1 DUP2 SLOAD DUP7 DUP2 ADD DUP1 SWAP2 GT PUSH2 0xBED JUMPI SWAP1 SWAP2 SSTORE PUSH1 0x1 SWAP1 DUP9 DUP8 PUSH1 0x40 DUP1 DUP15 PUSH2 0xB7A PUSH1 0x20 DUP15 PUSH1 0x1 PUSH1 0x1 PUSH1 0xA0 SHL SUB PUSH2 0xB67 DUP11 DUP7 PUSH2 0x2342 JUMP JUMPDEST MLOAD AND SWAP7 DUP6 MLOAD SWAP4 DUP5 SWAP3 DUP4 SWAP3 MLOAD SWAP3 DUP4 SWAP2 PUSH2 0x2028 JUMP JUMPDEST DUP2 ADD PUSH1 0x8 DUP2 MSTORE SUB ADD SWAP1 KECCAK256 SWAP1 PUSH2 0xB95 DUP8 DUP10 DUP1 PUSH1 0xA0 SHL SUB SWAP3 PUSH2 0x2342 JUMP JUMPDEST MLOAD AND SWAP1 PUSH1 0x0 SWAP2 DUP9 DUP1 PUSH1 0xA0 SHL SUB AND DUP3 MSTORE PUSH1 0x20 MSTORE KECCAK256 PUSH1 0x0 SWAP1 DUP5 DUP3 MSTORE PUSH1 0x20 MSTORE KECCAK256 SLOAD PUSH32 0xC247DF220FD28F38C52084B08C97414FFCB3C5F5A3A6C1BBB17745BB3E8CFB0A PUSH1 0x20 PUSH2 0xBDF DUP13 PUSH2 0x22DF JUMP JUMPDEST SWAP3 PUSH1 0x40 MLOAD SWAP1 DUP2 MSTORE LOG4 ADD PUSH2 0xADA JUMP JUMPDEST PUSH4 0x4E487B71 PUSH1 0xE0 SHL PUSH1 0x0 MSTORE PUSH1 0x11 PUSH1 0x4 MSTORE PUSH1 0x24 PUSH1 0x0 REVERT JUMPDEST POP DUP7 SWAP4 PUSH32 0xCC762AF87A9E4B178C686AC9675008FF8324A12CEB2E2A23052E2186BB184C14 SWAP2 PUSH2 0xC65 DUP11 PUSH2 0xC57 PUSH2 0xC38 DUP11 PUSH2 0x22DF JUMP JUMPDEST SWAP8 PUSH1 0x40 MLOAD SWAP6 DUP7 SWAP6 DUP7 MSTORE PUSH1 0x20 DUP7 ADD MSTORE PUSH1 0xA0 PUSH1 0x40 DUP7 ADD MSTORE PUSH1 0xA0 DUP6 ADD SWAP1 PUSH2 0x204B JUMP JUMPDEST SWAP1 DUP4 DUP3 SUB PUSH1 0x60 DUP6 ADD MSTORE PUSH2 0x204B JUMP JUMPDEST TIMESTAMP PUSH1 0x80 DUP4 ADD MSTORE SUB SWAP1 LOG4 PUSH1 0x1 PUSH1 0x0 SSTORE STOP JUMPDEST DUP3 MLOAD PUSH1 0x1 PUSH1 0x1 PUSH1 0xA0 SHL SUB AND DUP2 DUP4 ADD SSTORE PUSH1 0x20 SWAP1 SWAP3 ADD SWAP2 PUSH1 0x1 ADD PUSH2 0xA6E JUMP JUMPDEST PUSH2 0xCA9 SWAP1 DUP5 PUSH1 0x0 MSTORE DUP6 DUP5 PUSH1 0x0 KECCAK256 SWAP2 DUP3 ADD SWAP2 ADD PUSH2 0x243B JUMP JUMPDEST DUP16 PUSH2 0xA60 JUMP JUMPDEST PUSH1 0x40 MLOAD PUSH3 0x461BCD PUSH1 0xE5 SHL DUP2 MSTORE PUSH1 0x20 PUSH1 0x4 DUP3 ADD MSTORE PUSH1 0x12 PUSH1 0x24 DUP3 ADD MSTORE PUSH18 0x12541194C81A185CDA081C995C5D5A5C9959 PUSH1 0x72 SHL PUSH1 0x44 DUP3 ADD MSTORE PUSH1 0x64 SWAP1 REVERT JUMPDEST PUSH1 0x40 MLOAD PUSH3 0x461BCD PUSH1 0xE5 SHL DUP2 MSTORE PUSH1 0x20 PUSH1 0x4 DUP3 ADD MSTORE PUSH1 0x16 PUSH1 0x24 DUP3 ADD MSTORE PUSH22 0x13595C98DA185B9D081B985B59481C995C5D5A5C9959 PUSH1 0x52 SHL PUSH1 0x44 DUP3 ADD MSTORE PUSH1 0x64 SWAP1 REVERT JUMPDEST PUSH1 0x40 MLOAD PUSH3 0x461BCD PUSH1 0xE5 SHL DUP2 MSTORE PUSH1 0x20 PUSH1 0x4 DUP3 ADD MSTORE PUSH1 0x28 PUSH1 0x24 DUP3 ADD MSTORE PUSH32 0x50657220706572736F6E20616D6F756E74206D75737420626520677265617465 PUSH1 0x44 DUP3 ADD MSTORE PUSH8 0x72207468616E203 PUSH1 0xC4 SHL PUSH1 0x64 DUP3 ADD MSTORE PUSH1 0x84 SWAP1 REVERT JUMPDEST PUSH1 0x40 MLOAD PUSH3 0x461BCD PUSH1 0xE5 SHL DUP2 MSTORE PUSH1 0x20 PUSH1 0x4 DUP3 ADD MSTORE PUSH1 0x23 PUSH1 0x24 DUP3 ADD MSTORE PUSH32 0x546F74616C20616D6F756E74206D757374206265206772656174657220746861 PUSH1 0x44 DUP3 ADD MSTORE PUSH3 0x6E203 PUSH1 0xEC SHL PUSH1 0x64 DUP3 ADD MSTORE PUSH1 0x84 SWAP1 REVERT JUMPDEST CALLVALUE PUSH2 0x142 JUMPI PUSH1 0x20 CALLDATASIZE PUSH1 0x3 NOT ADD SLT PUSH2 0x142 JUMPI PUSH1 0x4 CALLDATALOAD PUSH1 0x0 MSTORE PUSH1 0x3 PUSH1 0x20 MSTORE PUSH1 0x40 PUSH1 0x0 KECCAK256 DUP1 SLOAD PUSH1 0x1 DUP3 ADD PUSH2 0xDFE SWAP1 PUSH2 0x20D8 JUMP JUMPDEST PUSH1 0x2 DUP4 ADD SLOAD SWAP1 SWAP3 PUSH1 0x1 PUSH1 0x1 PUSH1 0xA0 SHL SUB SWAP1 SWAP2 AND SWAP1 PUSH2 0xE1D PUSH1 0x3 DUP3 ADD PUSH2 0x20D8 JUMP JUMPDEST PUSH1 0x4 DUP3 ADD SLOAD PUSH1 0x5 DUP4 ADD SLOAD SWAP1 PUSH2 0xE34 PUSH1 0x6 DUP6 ADD PUSH2 0x20D8 JUMP JUMPDEST SWAP2 PUSH2 0xE41 PUSH1 0x7 DUP7 ADD PUSH2 0x20D8 JUMP JUMPDEST SWAP4 PUSH1 0x8 DUP7 ADD SLOAD SWAP6 PUSH1 0xA ADD PUSH2 0xE54 SWAP1 PUSH2 0x20D8 JUMP JUMPDEST SWAP7 PUSH1 0x40 MLOAD SWAP10 DUP11 SWAP10 DUP11 MSTORE PUSH1 0x20 DUP11 ADD PUSH2 0x140 SWAP1 MSTORE PUSH2 0x140 DUP11 ADD PUSH2 0xE74 SWAP2 PUSH2 0x204B JUMP JUMPDEST SWAP1 PUSH1 0x40 DUP11 ADD MSTORE DUP9 DUP2 SUB PUSH1 0x60 DUP11 ADD MSTORE PUSH2 0xE8B SWAP2 PUSH2 0x204B JUMP JUMPDEST SWAP2 PUSH1 0x80 DUP9 ADD MSTORE PUSH1 0xA0 DUP8 ADD MSTORE DUP6 DUP2 SUB PUSH1 0xC0 DUP8 ADD MSTORE PUSH2 0xEA7 SWAP2 PUSH2 0x204B JUMP JUMPDEST DUP5 DUP2 SUB PUSH1 0xE0 DUP7 ADD MSTORE PUSH2 0xEB8 SWAP2 PUSH2 0x204B JUMP JUMPDEST SWAP1 PUSH2 0x100 DUP5 ADD MSTORE DUP3 DUP2 SUB PUSH2 0x120 DUP5 ADD MSTORE PUSH2 0x6FC SWAP2 PUSH2 0x204B JUMP JUMPDEST CALLVALUE PUSH2 0x142 JUMPI PUSH1 0x40 CALLDATASIZE PUSH1 0x3 NOT ADD SLT PUSH2 0x142 JUMPI PUSH1 0x4 CALLDATALOAD PUSH1 0x1 PUSH1 0x1 PUSH1 0x40 SHL SUB DUP2 GT PUSH2 0x142 JUMPI PUSH2 0xF01 SWAP1 CALLDATASIZE SWAP1 PUSH1 0x4 ADD PUSH2 0x1EF8 JUMP JUMPDEST PUSH2 0xF1D PUSH1 0x20 PUSH1 0x24 CALLDATALOAD SWAP3 DUP2 PUSH1 0x40 MLOAD SWAP4 DUP3 DUP6 DUP1 SWAP5 MLOAD SWAP4 DUP5 SWAP3 ADD PUSH2 0x2028 JUMP JUMPDEST DUP2 ADD PUSH1 0x5 DUP2 MSTORE SUB ADD SWAP1 KECCAK256 DUP1 SLOAD DUP3 LT ISZERO PUSH2 0x142 JUMPI PUSH1 0x20 SWAP2 PUSH2 0xF3C SWAP2 PUSH2 0x2070 JUMP JUMPDEST SWAP1 SLOAD SWAP1 PUSH1 0x3 SHL SHR PUSH1 0x40 MLOAD SWAP1 DUP2 MSTORE RETURN JUMPDEST CALLVALUE PUSH2 0x142 JUMPI PUSH1 0x20 CALLDATASIZE PUSH1 0x3 NOT ADD SLT PUSH2 0x142 JUMPI PUSH1 0x4 CALLDATALOAD PUSH1 0x0 MSTORE PUSH1 0x6 PUSH1 0x20 MSTORE PUSH1 0xC0 PUSH1 0x40 PUSH1 0x0 KECCAK256 DUP1 SLOAD SWAP1 PUSH1 0x1 DUP1 PUSH1 0xA0 SHL SUB PUSH1 0x1 DUP3 ADD SLOAD AND SWAP1 PUSH1 0x1 DUP1 PUSH1 0xA0 SHL SUB PUSH1 0x2 DUP3 ADD SLOAD AND PUSH1 0x3 DUP3 ADD SLOAD SWAP1 PUSH1 0xFF PUSH1 0x5 PUSH1 0x4 DUP6 ADD SLOAD SWAP5 ADD SLOAD AND SWAP4 PUSH1 0x40 MLOAD SWAP6 DUP7 MSTORE PUSH1 0x20 DUP7 ADD MSTORE PUSH1 0x40 DUP6 ADD MSTORE PUSH1 0x60 DUP5 ADD MSTORE PUSH1 0x80 DUP4 ADD MSTORE ISZERO ISZERO PUSH1 0xA0 DUP3 ADD MSTORE RETURN JUMPDEST CALLVALUE PUSH2 0x142 JUMPI PUSH1 0x0 CALLDATASIZE PUSH1 0x3 NOT ADD SLT PUSH2 0x142 JUMPI PUSH1 0x40 MLOAD PUSH32 0x0 PUSH1 0x1 PUSH1 0x1 PUSH1 0xA0 SHL SUB AND DUP2 MSTORE PUSH1 0x20 SWAP1 RETURN JUMPDEST CALLVALUE PUSH2 0x142 JUMPI PUSH1 0x0 CALLDATASIZE PUSH1 0x3 NOT ADD SLT PUSH2 0x142 JUMPI PUSH1 0x20 PUSH1 0x7 SLOAD PUSH1 0x40 MLOAD SWAP1 DUP2 MSTORE RETURN JUMPDEST CALLVALUE PUSH2 0x142 JUMPI PUSH1 0x20 CALLDATASIZE PUSH1 0x3 NOT ADD SLT PUSH2 0x142 JUMPI PUSH1 0x4 CALLDATALOAD PUSH1 0x40 MLOAD PUSH2 0x1046 DUP2 PUSH2 0x1EA0 JUMP JUMPDEST PUSH1 0x0 DUP2 MSTORE PUSH1 0x20 DUP2 ADD PUSH1 0x60 SWAP1 MSTORE PUSH1 0x40 DUP2 ADD PUSH1 0x0 SWAP1 MSTORE PUSH1 0x60 DUP2 ADD PUSH1 0x60 SWAP1 MSTORE PUSH1 0x80 DUP2 ADD PUSH1 0x0 SWAP1 MSTORE PUSH1 0xA0 DUP2 ADD PUSH1 0x0 SWAP1 MSTORE PUSH1 0xC0 DUP2 ADD PUSH1 0x60 SWAP1 MSTORE PUSH1 0xE0 DUP2 ADD PUSH1 0x60 SWAP1 MSTORE PUSH2 0x100 DUP2 ADD PUSH1 0x0 SWAP1 MSTORE PUSH2 0x120 DUP2 ADD PUSH1 0x60 SWAP1 MSTORE PUSH2 0x140 ADD PUSH1 0x60 SWAP1 MSTORE DUP1 PUSH1 0x0 MSTORE PUSH1 0x3 PUSH1 0x20 MSTORE DUP1 PUSH1 0x40 PUSH1 0x0 KECCAK256 SLOAD EQ PUSH2 0x10B6 SWAP1 PUSH2 0x21F6 JUMP JUMPDEST PUSH1 0x0 MSTORE PUSH1 0x3 PUSH1 0x20 MSTORE PUSH1 0x40 PUSH1 0x0 KECCAK256 PUSH1 0x40 MLOAD PUSH2 0x10CF DUP2 PUSH2 0x1EA0 JUMP JUMPDEST DUP2 SLOAD DUP2 MSTORE PUSH2 0x10DF PUSH1 0x1 DUP4 ADD PUSH2 0x20D8 JUMP JUMPDEST PUSH1 0x20 DUP3 ADD SWAP1 DUP2 MSTORE PUSH1 0x2 DUP4 ADD SLOAD PUSH1 0x1 PUSH1 0x1 PUSH1 0xA0 SHL SUB AND PUSH1 0x40 DUP4 ADD SWAP1 DUP2 MSTORE SWAP3 PUSH2 0x1108 PUSH1 0x3 DUP3 ADD PUSH2 0x20D8 JUMP JUMPDEST SWAP4 PUSH1 0x60 DUP5 ADD SWAP5 DUP6 MSTORE PUSH1 0x4 DUP3 ADD SLOAD PUSH1 0x80 DUP6 ADD SWAP1 DUP2 MSTORE PUSH1 0x5 DUP4 ADD SLOAD PUSH1 0xA0 DUP7 ADD SWAP1 DUP2 MSTORE PUSH1 0x6 DUP5 ADD PUSH2 0x1135 SWAP1 PUSH2 0x20D8 JUMP JUMPDEST PUSH1 0xC0 DUP8 ADD SWAP1 DUP2 MSTORE SWAP1 PUSH2 0x1149 PUSH1 0x7 DUP7 ADD PUSH2 0x20D8 JUMP JUMPDEST SWAP4 PUSH1 0xE0 DUP9 ADD SWAP5 DUP6 MSTORE PUSH1 0x8 DUP7 ADD SLOAD SWAP9 PUSH2 0x100 DUP10 ADD SWAP10 DUP11 MSTORE PUSH1 0x9 DUP8 ADD PUSH2 0x116C SWAP1 PUSH2 0x223B JUMP JUMPDEST SWAP7 PUSH2 0x120 DUP11 ADD SWAP8 DUP9 MSTORE PUSH1 0xA ADD PUSH2 0x1181 SWAP1 PUSH2 0x20D8 JUMP JUMPDEST SWAP8 PUSH2 0x140 DUP11 ADD SWAP9 DUP10 MSTORE PUSH1 0x40 MLOAD SWAP10 PUSH1 0x20 DUP12 MSTORE MLOAD PUSH1 0x20 DUP12 ADD MSTORE MLOAD PUSH1 0x40 DUP11 ADD PUSH2 0x160 SWAP1 MSTORE PUSH2 0x180 DUP11 ADD PUSH2 0x11B0 SWAP2 PUSH2 0x204B JUMP JUMPDEST SWAP2 MLOAD PUSH1 0x1 PUSH1 0x1 PUSH1 0xA0 SHL SUB AND PUSH1 0x60 DUP11 ADD MSTORE MLOAD DUP9 DUP3 SUB PUSH1 0x1F NOT ADD PUSH1 0x80 DUP11 ADD MSTORE PUSH2 0x11D7 SWAP2 SWAP1 PUSH2 0x204B JUMP JUMPDEST SWAP3 MLOAD PUSH1 0xA0 DUP9 ADD MSTORE MLOAD PUSH1 0xC0 DUP8 ADD MSTORE MLOAD DUP6 DUP3 SUB PUSH1 0x1F NOT ADD PUSH1 0xE0 DUP8 ADD MSTORE PUSH2 0x11FB SWAP2 SWAP1 PUSH2 0x204B JUMP JUMPDEST SWAP1 MLOAD DUP5 DUP3 SUB PUSH1 0x1F NOT ADD PUSH2 0x100 DUP7 ADD MSTORE PUSH2 0x1214 SWAP2 SWAP1 PUSH2 0x204B JUMP JUMPDEST SWAP4 MLOAD PUSH2 0x120 DUP5 ADD MSTORE MLOAD SWAP3 PUSH1 0x1F NOT DUP4 DUP3 SUB ADD PUSH2 0x140 DUP5 ADD MSTORE DUP4 MLOAD SWAP1 DUP2 DUP2 MSTORE PUSH1 0x20 ADD SWAP4 PUSH1 0x20 ADD SWAP1 PUSH1 0x0 JUMPDEST DUP2 DUP2 LT PUSH2 0x125D JUMPI DUP5 DUP1 PUSH2 0x6FC DUP9 DUP8 MLOAD PUSH1 0x1F NOT DUP5 DUP4 SUB ADD PUSH2 0x160 DUP6 ADD MSTORE PUSH2 0x204B JUMP JUMPDEST DUP3 MLOAD PUSH1 0x1 PUSH1 0x1 PUSH1 0xA0 SHL SUB AND DUP7 MSTORE PUSH1 0x20 SWAP6 DUP7 ADD SWAP6 SWAP1 SWAP3 ADD SWAP2 PUSH1 0x1 ADD PUSH2 0x123C JUMP JUMPDEST CALLVALUE PUSH2 0x142 JUMPI PUSH1 0x20 CALLDATASIZE PUSH1 0x3 NOT ADD SLT PUSH2 0x142 JUMPI PUSH1 0x4 CALLDATALOAD PUSH1 0x1 PUSH1 0x1 PUSH1 0x40 SHL SUB DUP2 GT PUSH2 0x142 JUMPI PUSH2 0x12C7 PUSH1 0x20 PUSH2 0x12B4 PUSH2 0x12FC SWAP4 CALLDATASIZE SWAP1 PUSH1 0x4 ADD PUSH2 0x1EF8 JUMP JUMPDEST DUP2 PUSH1 0x40 MLOAD SWAP4 DUP3 DUP6 DUP1 SWAP5 MLOAD SWAP4 DUP5 SWAP3 ADD PUSH2 0x2028 JUMP JUMPDEST DUP2 ADD PUSH1 0x1 DUP2 MSTORE SUB ADD SWAP1 KECCAK256 PUSH2 0x12DA DUP2 PUSH2 0x20D8 JUMP JUMPDEST SWAP1 PUSH1 0xFF PUSH1 0x3 PUSH1 0x2 DUP4 ADD SLOAD SWAP3 ADD SLOAD AND PUSH1 0x40 MLOAD SWAP4 DUP5 SWAP4 PUSH1 0x60 DUP6 MSTORE PUSH1 0x60 DUP6 ADD SWAP1 PUSH2 0x204B JUMP JUMPDEST SWAP2 PUSH1 0x20 DUP5 ADD MSTORE ISZERO ISZERO PUSH1 0x40 DUP4 ADD MSTORE SUB SWAP1 RETURN JUMPDEST CALLVALUE PUSH2 0x142 JUMPI PUSH1 0x40 CALLDATASIZE PUSH1 0x3 NOT ADD SLT PUSH2 0x142 JUMPI PUSH2 0x1326 PUSH2 0x1E8A JUMP JUMPDEST PUSH1 0x1 PUSH1 0x1 PUSH1 0xA0 SHL SUB AND PUSH1 0x0 SWAP1 DUP2 MSTORE PUSH1 0x9 PUSH1 0x20 MSTORE PUSH1 0x40 SWAP1 KECCAK256 DUP1 SLOAD PUSH1 0x24 CALLDATALOAD SWAP1 DUP2 LT ISZERO PUSH2 0x142 JUMPI PUSH2 0x135A PUSH2 0x1360 SWAP2 PUSH2 0x6FC SWAP4 PUSH2 0x2070 JUMP JUMPDEST SWAP1 PUSH2 0x217C JUMP JUMPDEST PUSH1 0x40 MLOAD SWAP2 DUP3 SWAP2 PUSH1 0x20 DUP4 MSTORE PUSH1 0x20 DUP4 ADD SWAP1 PUSH2 0x204B JUMP JUMPDEST CALLVALUE PUSH2 0x142 JUMPI PUSH2 0x139F PUSH1 0x20 PUSH2 0x1387 CALLDATASIZE PUSH2 0x218A JUMP JUMPDEST SWAP4 SWAP2 DUP4 PUSH1 0x40 SWAP5 SWAP3 SWAP5 MLOAD SWAP4 DUP3 DUP6 DUP1 SWAP5 MLOAD SWAP4 DUP5 SWAP3 ADD PUSH2 0x2028 JUMP JUMPDEST DUP2 ADD PUSH1 0x8 DUP2 MSTORE SUB ADD SWAP1 KECCAK256 SWAP1 PUSH1 0x1 DUP1 PUSH1 0xA0 SHL SUB AND PUSH1 0x0 MSTORE PUSH1 0x20 MSTORE PUSH1 0x40 PUSH1 0x0 KECCAK256 SWAP1 PUSH1 0x1 DUP1 PUSH1 0xA0 SHL SUB AND PUSH1 0x0 MSTORE PUSH1 0x20 MSTORE PUSH1 0x20 PUSH1 0x40 PUSH1 0x0 KECCAK256 SLOAD PUSH1 0x40 MLOAD SWAP1 DUP2 MSTORE RETURN JUMPDEST CALLVALUE PUSH2 0x142 JUMPI PUSH1 0x20 CALLDATASIZE PUSH1 0x3 NOT ADD SLT PUSH2 0x142 JUMPI PUSH1 0x20 PUSH2 0x13F7 PUSH2 0x1E8A JUMP JUMPDEST PUSH1 0x40 MLOAD PUSH32 0x0 PUSH1 0x1 PUSH1 0x1 PUSH1 0xA0 SHL SUB SWAP1 DUP2 AND SWAP3 AND SWAP2 SWAP1 SWAP2 EQ DUP2 MSTORE RETURN JUMPDEST CALLVALUE PUSH2 0x142 JUMPI PUSH1 0x20 CALLDATASIZE PUSH1 0x3 NOT ADD SLT PUSH2 0x142 JUMPI PUSH1 0x4 CALLDATALOAD PUSH1 0x1 PUSH1 0x1 PUSH1 0x40 SHL SUB DUP2 GT PUSH2 0x142 JUMPI PUSH1 0x20 PUSH2 0x1465 PUSH2 0x1495 SWAP3 CALLDATASIZE SWAP1 PUSH1 0x4 ADD PUSH2 0x1EF8 JUMP JUMPDEST PUSH1 0x40 MLOAD SWAP1 PUSH2 0x1484 PUSH1 0xFF PUSH1 0x3 DUP4 MLOAD SWAP5 DUP7 DUP2 DUP2 DUP8 ADD SWAP8 PUSH2 0x523 DUP2 DUP4 DUP12 PUSH2 0x2028 JUMP JUMPDEST PUSH1 0x40 MLOAD SWAP4 DUP5 SWAP3 DUP4 SWAP3 MLOAD SWAP3 DUP4 SWAP2 PUSH2 0x2028 JUMP JUMPDEST DUP2 ADD PUSH1 0x5 DUP2 MSTORE SUB ADD SWAP1 KECCAK256 PUSH1 0x40 MLOAD SWAP1 DUP2 PUSH1 0x20 DUP3 SLOAD SWAP2 DUP3 DUP2 MSTORE ADD SWAP2 PUSH1 0x0 MSTORE PUSH1 0x20 PUSH1 0x0 KECCAK256 SWAP1 PUSH1 0x0 JUMPDEST DUP2 DUP2 LT PUSH2 0x14E5 JUMPI PUSH2 0x6FC DUP6 PUSH2 0x14D1 DUP2 DUP8 SUB DUP3 PUSH2 0x1ED7 JUMP JUMPDEST PUSH1 0x40 MLOAD SWAP2 DUP3 SWAP2 PUSH1 0x20 DUP4 MSTORE PUSH1 0x20 DUP4 ADD SWAP1 PUSH2 0x1FCC JUMP JUMPDEST DUP3 SLOAD DUP5 MSTORE PUSH1 0x20 SWAP1 SWAP4 ADD SWAP3 PUSH1 0x1 SWAP3 DUP4 ADD SWAP3 ADD PUSH2 0x14BA JUMP JUMPDEST CALLVALUE PUSH2 0x142 JUMPI PUSH2 0x1509 CALLDATASIZE PUSH2 0x1F8B JUMP JUMPDEST SWAP1 PUSH1 0x40 MLOAD PUSH2 0x1529 PUSH1 0xFF PUSH1 0x3 DUP5 MLOAD SWAP4 PUSH1 0x20 DUP2 DUP2 DUP9 ADD SWAP7 PUSH2 0x523 DUP2 DUP4 DUP11 PUSH2 0x2028 JUMP JUMPDEST PUSH2 0x153D PUSH2 0x7EA PUSH2 0x1537 PUSH2 0x25A1 JUMP JUMPDEST DUP5 PUSH2 0x2388 JUMP JUMPDEST PUSH2 0x1547 DUP4 DUP4 PUSH2 0x2388 JUMP JUMPDEST PUSH2 0x1600 JUMPI PUSH2 0x1564 PUSH1 0x20 PUSH1 0x1 SWAP3 PUSH1 0x40 MLOAD DUP1 SWAP4 DUP2 SWAP3 DUP8 MLOAD SWAP3 DUP4 SWAP2 PUSH2 0x2028 JUMP JUMPDEST DUP2 ADD DUP5 DUP2 MSTORE SUB ADD SWAP1 KECCAK256 ADD DUP1 SLOAD PUSH1 0x1 PUSH1 0x40 SHL DUP2 LT ISZERO PUSH2 0x3B3 JUMPI PUSH32 0x51CFABEBB274A439FC348592EB455CC20EB9D20C36329F87592DADC611A1DFF3 SWAP3 PUSH2 0x15B3 DUP3 PUSH1 0x40 SWAP5 PUSH1 0x1 PUSH2 0x15F1 SWAP6 ADD DUP2 SSTORE PUSH2 0x2070 JUMP JUMPDEST DUP2 SLOAD PUSH1 0x1 PUSH1 0x1 PUSH1 0xA0 SHL SUB SWAP8 DUP9 AND PUSH1 0x3 SWAP3 SWAP1 SWAP3 SHL DUP3 DUP2 SHL SWAP9 SWAP1 SHL NOT AND SWAP7 SWAP1 SWAP7 OR SWAP1 SSTORE PUSH1 0x0 DUP6 DUP2 MSTORE PUSH1 0x9 PUSH1 0x20 MSTORE DUP4 SWAP1 KECCAK256 PUSH2 0x15EC SWAP1 DUP3 SWAP1 PUSH2 0x2552 JUMP JUMPDEST PUSH2 0x22DF JUMP JUMPDEST SWAP3 DUP2 MLOAD SWAP1 DUP2 MSTORE TIMESTAMP PUSH1 0x20 DUP3 ADD MSTORE LOG2 STOP JUMPDEST PUSH1 0x40 MLOAD PUSH3 0x461BCD PUSH1 0xE5 SHL DUP2 MSTORE PUSH1 0x20 PUSH1 0x4 DUP3 ADD MSTORE PUSH1 0x10 PUSH1 0x24 DUP3 ADD MSTORE PUSH16 0x20B63932B0B23C90309036B2B6B132B9 PUSH1 0x81 SHL PUSH1 0x44 DUP3 ADD MSTORE PUSH1 0x64 SWAP1 REVERT JUMPDEST CALLVALUE PUSH2 0x142 JUMPI PUSH2 0x139F PUSH1 0x20 PUSH2 0x164B CALLDATASIZE PUSH2 0x218A JUMP JUMPDEST SWAP4 SWAP2 PUSH1 0x40 SWAP4 SWAP2 SWAP4 MLOAD SWAP1 PUSH2 0x1484 PUSH1 0xFF PUSH1 0x3 DUP4 MLOAD SWAP5 DUP7 DUP2 DUP2 DUP8 ADD SWAP8 PUSH2 0x523 DUP2 DUP4 DUP12 PUSH2 0x2028 JUMP JUMPDEST CALLVALUE PUSH2 0x142 JUMPI PUSH1 0x20 CALLDATASIZE PUSH1 0x3 NOT ADD SLT PUSH2 0x142 JUMPI PUSH1 0x4 CALLDATALOAD PUSH1 0x2 SLOAD DUP2 LT ISZERO PUSH2 0x142 JUMPI PUSH1 0x0 PUSH1 0x2 SLOAD DUP3 LT ISZERO PUSH2 0x16CD JUMPI PUSH1 0x2 SWAP1 MSTORE PUSH32 0x405787FA12A823E0F2B7631CC41B3BA8828B3321CA811111FA75CD3AA3BB5ACE ADD PUSH1 0x0 PUSH2 0x6FC PUSH2 0x1360 DUP4 PUSH2 0x20D8 JUMP JUMPDEST PUSH4 0x4E487B71 PUSH1 0xE0 SHL DUP2 MSTORE PUSH1 0x32 PUSH1 0x4 MSTORE PUSH1 0x24 SWAP1 REVERT JUMPDEST CALLVALUE PUSH2 0x142 JUMPI PUSH1 0x20 CALLDATASIZE PUSH1 0x3 NOT ADD SLT PUSH2 0x142 JUMPI PUSH1 0x1 PUSH1 0x1 PUSH1 0xA0 SHL SUB PUSH2 0x1702 PUSH2 0x1E8A JUMP JUMPDEST AND PUSH1 0x0 MSTORE PUSH1 0x9 PUSH1 0x20 MSTORE PUSH1 0x40 PUSH1 0x0 KECCAK256 DUP1 SLOAD SWAP1 PUSH2 0x171C DUP3 PUSH2 0x21DF JUMP JUMPDEST SWAP2 PUSH2 0x172A PUSH1 0x40 MLOAD SWAP4 DUP5 PUSH2 0x1ED7 JUMP JUMPDEST DUP1 DUP4 MSTORE PUSH1 0x20 DUP4 ADD DUP1 SWAP3 PUSH1 0x0 MSTORE PUSH1 0x20 PUSH1 0x0 KECCAK256 PUSH1 0x0 SWAP2 JUMPDEST DUP4 DUP4 LT PUSH2 0x17AD JUMPI DUP5 DUP7 PUSH1 0x40 MLOAD SWAP2 DUP3 SWAP2 PUSH1 0x20 DUP4 ADD SWAP1 PUSH1 0x20 DUP5 MSTORE MLOAD DUP1 SWAP2 MSTORE PUSH1 0x40 DUP4 ADD SWAP1 PUSH1 0x40 DUP2 PUSH1 0x5 SHL DUP6 ADD ADD SWAP3 SWAP2 PUSH1 0x0 SWAP1 JUMPDEST DUP3 DUP3 LT PUSH2 0x177E JUMPI POP POP POP POP SUB SWAP1 RETURN JUMPDEST SWAP2 SWAP4 PUSH1 0x1 SWAP2 SWAP4 SWAP6 POP PUSH1 0x20 PUSH2 0x179D DUP2 SWAP3 PUSH1 0x3F NOT DUP11 DUP3 SUB ADD DUP7 MSTORE DUP9 MLOAD PUSH2 0x204B JUMP JUMPDEST SWAP7 ADD SWAP3 ADD SWAP3 ADD DUP6 SWAP5 SWAP4 SWAP2 SWAP3 PUSH2 0x176F JUMP JUMPDEST PUSH1 0x1 PUSH1 0x20 DUP2 SWAP3 PUSH2 0x17BC DUP6 PUSH2 0x20D8 JUMP JUMPDEST DUP2 MSTORE ADD SWAP3 ADD SWAP3 ADD SWAP2 SWAP1 PUSH2 0x173F JUMP JUMPDEST CALLVALUE PUSH2 0x142 JUMPI PUSH1 0x20 PUSH2 0x17E3 PUSH2 0x17DD CALLDATASIZE PUSH2 0x1F8B JUMP JUMPDEST SWAP1 PUSH2 0x2388 JUMP JUMPDEST PUSH1 0x40 MLOAD SWAP1 ISZERO ISZERO DUP2 MSTORE RETURN JUMPDEST CALLVALUE PUSH2 0x142 JUMPI PUSH2 0x17FB CALLDATASIZE PUSH2 0x1F8B JUMP JUMPDEST SWAP1 PUSH1 0x40 MLOAD PUSH2 0x181B PUSH1 0xFF PUSH1 0x3 DUP5 MLOAD SWAP4 PUSH1 0x20 DUP2 DUP2 DUP9 ADD SWAP7 PUSH2 0x523 DUP2 DUP4 DUP11 PUSH2 0x2028 JUMP JUMPDEST PUSH1 0x40 MLOAD PUSH1 0x20 DUP2 DUP5 MLOAD PUSH2 0x182E DUP2 DUP4 DUP8 PUSH2 0x2028 JUMP JUMPDEST DUP2 ADD PUSH1 0x1 DUP2 MSTORE SUB ADD SWAP1 KECCAK256 PUSH1 0x40 MLOAD PUSH2 0x1844 DUP2 PUSH2 0x1EBC JUMP JUMPDEST PUSH2 0x184D DUP3 PUSH2 0x20D8 JUMP JUMPDEST DUP2 MSTORE PUSH1 0x60 PUSH1 0xFF PUSH1 0x3 PUSH2 0x1861 PUSH1 0x1 DUP7 ADD PUSH2 0x223B JUMP JUMPDEST SWAP5 PUSH1 0x20 DUP6 ADD SWAP6 DUP7 MSTORE PUSH1 0x2 DUP2 ADD SLOAD PUSH1 0x40 DUP7 ADD MSTORE ADD SLOAD AND ISZERO ISZERO SWAP2 ADD MSTORE PUSH1 0x0 SWAP2 PUSH1 0x0 JUMPDEST DUP3 MLOAD MLOAD DUP2 LT ISZERO PUSH2 0x1900 JUMPI PUSH1 0x40 DUP1 DUP1 MLOAD PUSH1 0x20 DUP2 DUP10 MLOAD PUSH2 0x18A0 DUP2 DUP4 DUP11 PUSH2 0x2028 JUMP JUMPDEST DUP2 ADD PUSH1 0x8 DUP2 MSTORE SUB ADD SWAP1 KECCAK256 PUSH1 0x1 DUP1 PUSH1 0xA0 SHL SUB PUSH2 0x18BC DUP6 DUP9 MLOAD PUSH2 0x2342 JUMP JUMPDEST MLOAD PUSH1 0x1 PUSH1 0x1 PUSH1 0xA0 SHL SUB SWAP2 AND DUP2 AND PUSH1 0x0 SWAP1 DUP2 MSTORE PUSH1 0x20 SWAP3 DUP4 MSTORE SWAP3 DUP4 KECCAK256 SWAP1 DUP11 AND DUP4 MSTORE SWAP1 MSTORE KECCAK256 SLOAD PUSH2 0x18EC JUMPI JUMPDEST PUSH1 0x1 ADD PUSH2 0x1881 JUMP JUMPDEST SWAP3 PUSH2 0x18F8 PUSH1 0x1 SWAP2 PUSH2 0x22D0 JUMP JUMPDEST SWAP4 SWAP1 POP PUSH2 0x18E4 JUMP JUMPDEST POP SWAP1 PUSH2 0x190E PUSH2 0x62F DUP5 PUSH2 0x2356 JUMP JUMPDEST SWAP3 PUSH1 0x0 SWAP3 PUSH1 0x0 JUMPDEST DUP4 MLOAD MLOAD DUP2 LT ISZERO PUSH2 0x6ED JUMPI PUSH1 0x40 DUP1 DUP1 MLOAD PUSH1 0x20 DUP2 DUP12 MLOAD PUSH2 0x1934 DUP2 DUP4 DUP11 PUSH2 0x2028 JUMP JUMPDEST DUP2 ADD PUSH1 0x8 DUP2 MSTORE SUB ADD SWAP1 KECCAK256 PUSH1 0x1 DUP1 PUSH1 0xA0 SHL SUB PUSH2 0x1950 DUP6 DUP10 MLOAD PUSH2 0x2342 JUMP JUMPDEST MLOAD PUSH1 0x1 PUSH1 0x1 PUSH1 0xA0 SHL SUB SWAP2 AND DUP2 AND PUSH1 0x0 SWAP1 DUP2 MSTORE PUSH1 0x20 SWAP3 DUP4 MSTORE SWAP3 DUP4 KECCAK256 SWAP1 DUP13 AND DUP4 MSTORE SWAP1 MSTORE KECCAK256 SLOAD DUP1 PUSH2 0x1982 JUMPI JUMPDEST POP PUSH1 0x1 ADD PUSH2 0x1915 JUMP JUMPDEST PUSH1 0x1 SWAP2 SWAP6 PUSH2 0x199B SWAP2 DUP4 DUP1 PUSH1 0xA0 SHL SUB PUSH2 0x6C9 DUP10 DUP10 MLOAD PUSH2 0x2342 JUMP JUMPDEST SWAP5 SWAP1 PUSH2 0x1979 JUMP JUMPDEST CALLVALUE PUSH2 0x142 JUMPI PUSH1 0x0 CALLDATASIZE PUSH1 0x3 NOT ADD SLT PUSH2 0x142 JUMPI PUSH1 0x20 PUSH1 0x2 SLOAD PUSH1 0x40 MLOAD SWAP1 DUP2 MSTORE RETURN JUMPDEST CALLVALUE PUSH2 0x142 JUMPI PUSH1 0x20 CALLDATASIZE PUSH1 0x3 NOT ADD SLT PUSH2 0x142 JUMPI PUSH1 0x4 CALLDATALOAD PUSH1 0x1 PUSH1 0x1 PUSH1 0x40 SHL SUB DUP2 GT PUSH2 0x142 JUMPI PUSH2 0x1A3C PUSH1 0x1 PUSH2 0x1A2D PUSH1 0x20 PUSH2 0x19FD PUSH2 0x6FC SWAP6 CALLDATASIZE SWAP1 PUSH1 0x4 ADD PUSH2 0x1EF8 JUMP JUMPDEST PUSH1 0x40 MLOAD SWAP1 PUSH2 0x1484 PUSH1 0xFF PUSH1 0x3 DUP4 MLOAD SWAP5 DUP7 DUP2 DUP2 DUP8 ADD SWAP8 PUSH2 0x1A1C DUP2 DUP4 DUP12 PUSH2 0x2028 JUMP JUMPDEST DUP2 ADD DUP12 DUP2 MSTORE SUB ADD SWAP1 KECCAK256 ADD SLOAD AND PUSH2 0x22FF JUMP JUMPDEST DUP2 ADD DUP5 DUP2 MSTORE SUB ADD SWAP1 KECCAK256 ADD PUSH2 0x223B JUMP JUMPDEST PUSH1 0x40 MLOAD SWAP2 DUP3 SWAP2 PUSH1 0x20 DUP4 MSTORE PUSH1 0x20 DUP4 ADD SWAP1 PUSH2 0x1F4E JUMP JUMPDEST CALLVALUE PUSH2 0x142 JUMPI PUSH1 0x40 CALLDATASIZE PUSH1 0x3 NOT ADD SLT PUSH2 0x142 JUMPI PUSH1 0x24 CALLDATALOAD PUSH1 0x1 PUSH1 0x1 PUSH1 0xA0 SHL SUB DUP2 AND SWAP1 PUSH1 0x4 CALLDATALOAD SWAP1 DUP3 SWAP1 SUB PUSH2 0x142 JUMPI PUSH2 0x1A82 PUSH2 0x257F JUMP JUMPDEST DUP1 PUSH1 0x0 MSTORE PUSH1 0x3 PUSH1 0x20 MSTORE PUSH2 0x1A9B DUP2 PUSH1 0x40 PUSH1 0x0 KECCAK256 SLOAD EQ PUSH2 0x21F6 JUMP JUMPDEST DUP1 PUSH1 0x0 MSTORE PUSH1 0x3 PUSH1 0x20 MSTORE PUSH1 0x40 PUSH1 0x0 KECCAK256 PUSH1 0x40 MLOAD SWAP2 PUSH2 0x1AB6 DUP4 PUSH2 0x1EA0 JUMP JUMPDEST DUP2 SLOAD DUP4 MSTORE PUSH2 0x1AC6 PUSH1 0x1 DUP4 ADD PUSH2 0x20D8 JUMP JUMPDEST PUSH1 0x20 DUP5 ADD SWAP1 DUP2 MSTORE PUSH1 0x2 DUP4 ADD SLOAD PUSH1 0x1 PUSH1 0x1 PUSH1 0xA0 SHL SUB AND PUSH1 0x40 DUP6 ADD MSTORE SWAP3 PUSH2 0x1AED PUSH1 0x3 DUP5 ADD PUSH2 0x20D8 JUMP JUMPDEST PUSH1 0x60 DUP3 ADD MSTORE PUSH1 0x4 DUP4 ADD SLOAD PUSH1 0x80 DUP3 ADD MSTORE PUSH2 0x140 PUSH2 0x1B56 PUSH1 0xA PUSH1 0x5 DUP7 ADD SLOAD SWAP6 PUSH1 0xA0 DUP6 ADD SWAP7 DUP8 MSTORE PUSH2 0x1B1D PUSH1 0x6 DUP3 ADD PUSH2 0x20D8 JUMP JUMPDEST PUSH1 0xC0 DUP7 ADD MSTORE PUSH2 0x1B2E PUSH1 0x7 DUP3 ADD PUSH2 0x20D8 JUMP JUMPDEST PUSH1 0xE0 DUP7 ADD MSTORE PUSH1 0x8 DUP2 ADD SLOAD PUSH2 0x100 DUP7 ADD MSTORE PUSH2 0x1B4A PUSH1 0x9 DUP3 ADD PUSH2 0x223B JUMP JUMPDEST PUSH2 0x120 DUP7 ADD MSTORE ADD PUSH2 0x20D8 JUMP JUMPDEST SWAP2 ADD MSTORE PUSH2 0x1B61 PUSH2 0x25A1 JUMP JUMPDEST SWAP3 MLOAD SWAP2 PUSH2 0x1B71 PUSH2 0x7EA DUP6 DUP6 PUSH2 0x2388 JUMP JUMPDEST PUSH1 0x40 MLOAD SWAP1 DUP4 MLOAD SWAP2 PUSH1 0x20 DUP2 DUP2 DUP8 ADD SWAP5 PUSH2 0x1B8A DUP2 DUP4 DUP9 PUSH2 0x2028 JUMP JUMPDEST DUP2 ADD PUSH1 0x8 DUP2 MSTORE SUB ADD SWAP1 KECCAK256 PUSH1 0x1 DUP1 PUSH1 0xA0 SHL SUB DUP7 AND PUSH1 0x0 MSTORE PUSH1 0x20 MSTORE PUSH1 0x40 PUSH1 0x0 KECCAK256 DUP7 PUSH1 0x0 MSTORE PUSH1 0x20 MSTORE PUSH1 0x40 PUSH1 0x0 KECCAK256 SLOAD ISZERO PUSH2 0x1E45 JUMPI MLOAD SWAP1 PUSH1 0x40 MLOAD PUSH1 0x20 DUP2 DUP7 MLOAD PUSH2 0x1BCF DUP2 DUP4 DUP8 PUSH2 0x2028 JUMP JUMPDEST DUP2 ADD PUSH1 0x8 DUP2 MSTORE SUB ADD SWAP1 KECCAK256 PUSH1 0x1 DUP1 PUSH1 0xA0 SHL SUB DUP7 AND PUSH1 0x0 MSTORE PUSH1 0x20 MSTORE PUSH1 0x40 PUSH1 0x0 KECCAK256 DUP7 PUSH1 0x0 MSTORE PUSH1 0x20 MSTORE DUP2 PUSH1 0x40 PUSH1 0x0 KECCAK256 SLOAD LT PUSH2 0x1E09 JUMPI PUSH1 0x40 MLOAD PUSH1 0x20 DUP2 DUP7 MLOAD PUSH2 0x1C13 DUP2 DUP4 DUP8 PUSH2 0x2028 JUMP JUMPDEST DUP2 ADD PUSH1 0x8 DUP2 MSTORE SUB ADD SWAP1 KECCAK256 PUSH1 0x1 DUP1 PUSH1 0xA0 SHL SUB DUP7 AND PUSH1 0x0 MSTORE PUSH1 0x20 MSTORE PUSH1 0x40 PUSH1 0x0 KECCAK256 DUP7 PUSH1 0x0 MSTORE PUSH1 0x20 MSTORE PUSH1 0x40 PUSH1 0x0 KECCAK256 DUP1 SLOAD SWAP1 DUP4 DUP3 SUB SWAP2 DUP3 GT PUSH2 0xBED JUMPI SSTORE PUSH1 0x7 SLOAD SWAP3 PUSH2 0x1C58 DUP5 PUSH2 0x22D0 JUMP JUMPDEST PUSH1 0x7 SSTORE PUSH2 0x1C63 PUSH2 0x25A1 JUMP JUMPDEST PUSH1 0x40 MLOAD SWAP5 PUSH1 0x1 PUSH1 0x1 PUSH1 0xA0 SHL SUB SWAP1 SWAP2 AND ORIGIN EQ ISZERO SWAP2 SWAP1 PUSH1 0xC0 DUP7 ADD PUSH1 0x1 PUSH1 0x1 PUSH1 0x40 SHL SUB DUP2 GT DUP8 DUP3 LT OR PUSH2 0x3B3 JUMPI PUSH1 0x80 PUSH1 0x20 SWAP7 DUP12 SWAP6 PUSH2 0x1D83 PUSH2 0x1DAB SWAP11 PUSH32 0xC2FBB7F1CA94AC6E3E6A91E666986DDCF7FA936FAA9EF0AA29F4403F98AF09ED SWAP6 PUSH1 0x40 MSTORE DUP8 DUP2 MSTORE PUSH1 0x5 DUP12 DUP3 ADD SWAP15 PUSH1 0x1 DUP1 PUSH1 0xA0 SHL SUB AND SWAP15 DUP16 SWAP11 DUP12 DUP3 MSTORE PUSH1 0x40 DUP5 ADD SWAP1 DUP2 MSTORE PUSH1 0x60 DUP5 ADD DUP8 DUP2 MSTORE DUP9 DUP6 ADD SWAP2 TIMESTAMP DUP4 MSTORE PUSH1 0xA0 DUP7 ADD SWAP4 DUP9 DUP6 MSTORE DUP13 PUSH1 0x0 MSTORE PUSH1 0x20 PUSH1 0x6 SWAP1 MSTORE PUSH1 0x40 PUSH1 0x0 KECCAK256 SWAP7 MLOAD DUP8 SSTORE PUSH1 0x1 DUP1 PUSH1 0xA0 SHL SUB SWAP1 MLOAD AND PUSH1 0x1 DUP8 ADD SWAP1 PUSH1 0x1 DUP1 PUSH1 0xA0 SHL SUB AND PUSH12 0xFFFFFFFFFFFFFFFFFFFFFFFF PUSH1 0xA0 SHL DUP3 SLOAD AND OR SWAP1 SSTORE PUSH1 0x1 DUP1 PUSH1 0xA0 SHL SUB SWAP1 MLOAD AND PUSH1 0x2 DUP7 ADD SWAP1 PUSH1 0x1 DUP1 PUSH1 0xA0 SHL SUB AND PUSH12 0xFFFFFFFFFFFFFFFFFFFFFFFF PUSH1 0xA0 SHL DUP3 SLOAD AND OR SWAP1 SSTORE MLOAD PUSH1 0x3 DUP6 ADD SSTORE MLOAD PUSH1 0x4 DUP5 ADD SSTORE MLOAD ISZERO ISZERO SWAP2 ADD SWAP1 PUSH1 0xFF DUP1 NOT DUP4 SLOAD AND SWAP2 ISZERO ISZERO AND OR SWAP1 SSTORE JUMP JUMPDEST PUSH1 0x40 MLOAD SWAP2 DUP14 DUP4 MSTORE DUP10 DUP4 ADD MSTORE PUSH1 0x40 DUP3 ADD MSTORE TIMESTAMP PUSH1 0x60 DUP3 ADD MSTORE LOG4 PUSH1 0x40 MLOAD DUP1 SWAP4 DUP2 SWAP3 DUP7 MLOAD SWAP3 DUP4 SWAP2 PUSH2 0x2028 JUMP JUMPDEST DUP2 ADD PUSH1 0x8 DUP2 MSTORE SUB ADD SWAP1 KECCAK256 DUP3 PUSH1 0x0 MSTORE PUSH1 0x20 MSTORE PUSH1 0x40 PUSH1 0x0 KECCAK256 DUP4 PUSH1 0x0 MSTORE PUSH1 0x20 MSTORE PUSH32 0xC247DF220FD28F38C52084B08C97414FFCB3C5F5A3A6C1BBB17745BB3E8CFB0A PUSH1 0x20 PUSH2 0x1DFA PUSH1 0x40 PUSH1 0x0 KECCAK256 SLOAD SWAP4 PUSH2 0x22DF JUMP JUMPDEST SWAP3 PUSH1 0x40 MLOAD SWAP1 DUP2 MSTORE LOG4 PUSH1 0x1 PUSH1 0x0 SSTORE STOP JUMPDEST PUSH1 0x40 MLOAD PUSH3 0x461BCD PUSH1 0xE5 SHL DUP2 MSTORE PUSH1 0x20 PUSH1 0x4 DUP3 ADD MSTORE PUSH1 0x14 PUSH1 0x24 DUP3 ADD MSTORE PUSH20 0x88CAC4E840C2DADEEADCE840DAD2E6DAC2E8C6D PUSH1 0x63 SHL PUSH1 0x44 DUP3 ADD MSTORE PUSH1 0x64 SWAP1 REVERT JUMPDEST PUSH1 0x40 MLOAD PUSH3 0x461BCD PUSH1 0xE5 SHL DUP2 MSTORE PUSH1 0x20 PUSH1 0x4 DUP3 ADD MSTORE PUSH1 0x18 PUSH1 0x24 DUP3 ADD MSTORE PUSH32 0x4E6F206465627420746F2074686973206372656469746F720000000000000000 PUSH1 0x44 DUP3 ADD MSTORE PUSH1 0x64 SWAP1 REVERT JUMPDEST PUSH1 0x4 CALLDATALOAD SWAP1 PUSH1 0x1 PUSH1 0x1 PUSH1 0xA0 SHL SUB DUP3 AND DUP3 SUB PUSH2 0x142 JUMPI JUMP JUMPDEST PUSH2 0x160 DUP2 ADD SWAP1 DUP2 LT PUSH1 0x1 PUSH1 0x1 PUSH1 0x40 SHL SUB DUP3 GT OR PUSH2 0x3B3 JUMPI PUSH1 0x40 MSTORE JUMP JUMPDEST PUSH1 0x80 DUP2 ADD SWAP1 DUP2 LT PUSH1 0x1 PUSH1 0x1 PUSH1 0x40 SHL SUB DUP3 GT OR PUSH2 0x3B3 JUMPI PUSH1 0x40 MSTORE JUMP JUMPDEST SWAP1 PUSH1 0x1F DUP1 NOT SWAP2 ADD AND DUP2 ADD SWAP1 DUP2 LT PUSH1 0x1 PUSH1 0x1 PUSH1 0x40 SHL SUB DUP3 GT OR PUSH2 0x3B3 JUMPI PUSH1 0x40 MSTORE JUMP JUMPDEST DUP2 PUSH1 0x1F DUP3 ADD SLT ISZERO PUSH2 0x142 JUMPI DUP1 CALLDATALOAD SWAP1 PUSH1 0x1 PUSH1 0x1 PUSH1 0x40 SHL SUB DUP3 GT PUSH2 0x3B3 JUMPI PUSH1 0x40 MLOAD SWAP3 PUSH2 0x1F2C PUSH1 0x1F DUP5 ADD PUSH1 0x1F NOT AND PUSH1 0x20 ADD DUP6 PUSH2 0x1ED7 JUMP JUMPDEST DUP3 DUP5 MSTORE PUSH1 0x20 DUP4 DUP4 ADD ADD GT PUSH2 0x142 JUMPI DUP2 PUSH1 0x0 SWAP3 PUSH1 0x20 DUP1 SWAP4 ADD DUP4 DUP7 ADD CALLDATACOPY DUP4 ADD ADD MSTORE SWAP1 JUMP JUMPDEST SWAP1 PUSH1 0x20 DUP1 DUP4 MLOAD SWAP3 DUP4 DUP2 MSTORE ADD SWAP3 ADD SWAP1 PUSH1 0x0 JUMPDEST DUP2 DUP2 LT PUSH2 0x1F6C JUMPI POP POP POP SWAP1 JUMP JUMPDEST DUP3 MLOAD PUSH1 0x1 PUSH1 0x1 PUSH1 0xA0 SHL SUB AND DUP5 MSTORE PUSH1 0x20 SWAP4 DUP5 ADD SWAP4 SWAP1 SWAP3 ADD SWAP2 PUSH1 0x1 ADD PUSH2 0x1F5F JUMP JUMPDEST PUSH1 0x40 PUSH1 0x3 NOT DUP3 ADD SLT PUSH2 0x142 JUMPI PUSH1 0x4 CALLDATALOAD SWAP1 PUSH1 0x1 PUSH1 0x1 PUSH1 0x40 SHL SUB DUP3 GT PUSH2 0x142 JUMPI PUSH2 0x1FB5 SWAP2 PUSH1 0x4 ADD PUSH2 0x1EF8 JUMP JUMPDEST SWAP1 PUSH1 0x24 CALLDATALOAD PUSH1 0x1 PUSH1 0x1 PUSH1 0xA0 SHL SUB DUP2 AND DUP2 SUB PUSH2 0x142 JUMPI SWAP1 JUMP JUMPDEST SWAP1 PUSH1 0x20 DUP1 DUP4 MLOAD SWAP3 DUP4 DUP2 MSTORE ADD SWAP3 ADD SWAP1 PUSH1 0x0 JUMPDEST DUP2 DUP2 LT PUSH2 0x1FEA JUMPI POP POP POP SWAP1 JUMP JUMPDEST DUP3 MLOAD DUP5 MSTORE PUSH1 0x20 SWAP4 DUP5 ADD SWAP4 SWAP1 SWAP3 ADD SWAP2 PUSH1 0x1 ADD PUSH2 0x1FDD JUMP JUMPDEST SWAP1 SWAP2 PUSH2 0x2017 PUSH2 0x2025 SWAP4 PUSH1 0x40 DUP5 MSTORE PUSH1 0x40 DUP5 ADD SWAP1 PUSH2 0x1F4E JUMP JUMPDEST SWAP2 PUSH1 0x20 DUP2 DUP5 SUB SWAP2 ADD MSTORE PUSH2 0x1FCC JUMP JUMPDEST SWAP1 JUMP JUMPDEST PUSH1 0x0 JUMPDEST DUP4 DUP2 LT PUSH2 0x203B JUMPI POP POP PUSH1 0x0 SWAP2 ADD MSTORE JUMP JUMPDEST DUP2 DUP2 ADD MLOAD DUP4 DUP3 ADD MSTORE PUSH1 0x20 ADD PUSH2 0x202B JUMP JUMPDEST SWAP1 PUSH1 0x20 SWAP2 PUSH2 0x2064 DUP2 MLOAD DUP1 SWAP3 DUP2 DUP6 MSTORE DUP6 DUP1 DUP7 ADD SWAP2 ADD PUSH2 0x2028 JUMP JUMPDEST PUSH1 0x1F ADD PUSH1 0x1F NOT AND ADD ADD SWAP1 JUMP JUMPDEST DUP1 SLOAD DUP3 LT ISZERO PUSH2 0x2088 JUMPI PUSH1 0x0 MSTORE PUSH1 0x20 PUSH1 0x0 KECCAK256 ADD SWAP1 PUSH1 0x0 SWAP1 JUMP JUMPDEST PUSH4 0x4E487B71 PUSH1 0xE0 SHL PUSH1 0x0 MSTORE PUSH1 0x32 PUSH1 0x4 MSTORE PUSH1 0x24 PUSH1 0x0 REVERT JUMPDEST SWAP1 PUSH1 0x1 DUP3 DUP2 SHR SWAP3 AND DUP1 ISZERO PUSH2 0x20CE JUMPI JUMPDEST PUSH1 0x20 DUP4 LT EQ PUSH2 0x20B8 JUMPI JUMP JUMPDEST PUSH4 0x4E487B71 PUSH1 0xE0 SHL PUSH1 0x0 MSTORE PUSH1 0x22 PUSH1 0x4 MSTORE PUSH1 0x24 PUSH1 0x0 REVERT JUMPDEST SWAP2 PUSH1 0x7F AND SWAP2 PUSH2 0x20AD JUMP JUMPDEST SWAP1 PUSH1 0x40 MLOAD SWAP2 DUP3 PUSH1 0x0 DUP3 SLOAD SWAP3 PUSH2 0x20EC DUP5 PUSH2 0x209E JUMP JUMPDEST DUP1 DUP5 MSTORE SWAP4 PUSH1 0x1 DUP2 AND SWAP1 DUP2 ISZERO PUSH2 0x215A JUMPI POP PUSH1 0x1 EQ PUSH2 0x2113 JUMPI JUMPDEST POP PUSH2 0x2111 SWAP3 POP SUB DUP4 PUSH2 0x1ED7 JUMP JUMPDEST JUMP JUMPDEST SWAP1 POP PUSH1 0x0 SWAP3 SWAP2 SWAP3 MSTORE PUSH1 0x20 PUSH1 0x0 KECCAK256 SWAP1 PUSH1 0x0 SWAP2 JUMPDEST DUP2 DUP4 LT PUSH2 0x213E JUMPI POP POP SWAP1 PUSH1 0x20 PUSH2 0x2111 SWAP3 DUP3 ADD ADD CODESIZE PUSH2 0x2104 JUMP JUMPDEST PUSH1 0x20 SWAP2 SWAP4 POP DUP1 PUSH1 0x1 SWAP2 SLOAD DUP4 DUP6 DUP10 ADD ADD MSTORE ADD SWAP2 ADD SWAP1 SWAP2 DUP5 SWAP3 PUSH2 0x2125 JUMP JUMPDEST SWAP1 POP PUSH1 0x20 SWAP3 POP PUSH2 0x2111 SWAP5 SWAP2 POP PUSH1 0xFF NOT AND DUP3 DUP5 ADD MSTORE ISZERO ISZERO PUSH1 0x5 SHL DUP3 ADD ADD CODESIZE PUSH2 0x2104 JUMP JUMPDEST SWAP1 PUSH2 0x39D JUMPI PUSH2 0x2025 SWAP1 PUSH2 0x20D8 JUMP JUMPDEST PUSH1 0x60 PUSH1 0x3 NOT DUP3 ADD SLT PUSH2 0x142 JUMPI PUSH1 0x4 CALLDATALOAD SWAP1 PUSH1 0x1 PUSH1 0x1 PUSH1 0x40 SHL SUB DUP3 GT PUSH2 0x142 JUMPI PUSH2 0x21B4 SWAP2 PUSH1 0x4 ADD PUSH2 0x1EF8 JUMP JUMPDEST SWAP1 PUSH1 0x24 CALLDATALOAD PUSH1 0x1 PUSH1 0x1 PUSH1 0xA0 SHL SUB DUP2 AND DUP2 SUB PUSH2 0x142 JUMPI SWAP1 PUSH1 0x44 CALLDATALOAD PUSH1 0x1 PUSH1 0x1 PUSH1 0xA0 SHL SUB DUP2 AND DUP2 SUB PUSH2 0x142 JUMPI SWAP1 JUMP JUMPDEST PUSH1 0x1 PUSH1 0x1 PUSH1 0x40 SHL SUB DUP2 GT PUSH2 0x3B3 JUMPI PUSH1 0x5 SHL PUSH1 0x20 ADD SWAP1 JUMP JUMPDEST ISZERO PUSH2 0x21FD JUMPI JUMP JUMPDEST PUSH1 0x40 MLOAD PUSH3 0x461BCD PUSH1 0xE5 SHL DUP2 MSTORE PUSH1 0x20 PUSH1 0x4 DUP3 ADD MSTORE PUSH1 0x16 PUSH1 0x24 DUP3 ADD MSTORE PUSH22 0x115E1C195B9CD948191BD95CC81B9BDD08195E1A5CDD PUSH1 0x52 SHL PUSH1 0x44 DUP3 ADD MSTORE PUSH1 0x64 SWAP1 REVERT JUMPDEST SWAP1 PUSH1 0x40 MLOAD SWAP2 DUP3 DUP2 SLOAD SWAP2 DUP3 DUP3 MSTORE PUSH1 0x20 DUP3 ADD SWAP1 PUSH1 0x0 MSTORE PUSH1 0x20 PUSH1 0x0 KECCAK256 SWAP3 PUSH1 0x0 JUMPDEST DUP2 DUP2 LT PUSH2 0x226D JUMPI POP POP PUSH2 0x2111 SWAP3 POP SUB DUP4 PUSH2 0x1ED7 JUMP JUMPDEST DUP5 SLOAD PUSH1 0x1 PUSH1 0x1 PUSH1 0xA0 SHL SUB AND DUP4 MSTORE PUSH1 0x1 SWAP5 DUP6 ADD SWAP5 DUP8 SWAP5 POP PUSH1 0x20 SWAP1 SWAP4 ADD SWAP3 ADD PUSH2 0x2258 JUMP JUMPDEST ISZERO PUSH2 0x2296 JUMPI JUMP JUMPDEST PUSH1 0x40 MLOAD PUSH3 0x461BCD PUSH1 0xE5 SHL DUP2 MSTORE PUSH1 0x20 PUSH1 0x4 DUP3 ADD MSTORE PUSH1 0x12 PUSH1 0x24 DUP3 ADD MSTORE PUSH18 0x2737BA10309033B937BAB81036B2B6B132B9 PUSH1 0x71 SHL PUSH1 0x44 DUP3 ADD MSTORE PUSH1 0x64 SWAP1 REVERT JUMPDEST PUSH1 0x0 NOT DUP2 EQ PUSH2 0xBED JUMPI PUSH1 0x1 ADD SWAP1 JUMP JUMPDEST PUSH2 0x22F7 SWAP1 PUSH1 0x20 PUSH1 0x40 MLOAD SWAP3 DUP3 DUP5 DUP1 SWAP5 MLOAD SWAP4 DUP5 SWAP3 ADD PUSH2 0x2028 JUMP JUMPDEST DUP2 ADD SUB SWAP1 KECCAK256 SWAP1 JUMP JUMPDEST ISZERO PUSH2 0x2306 JUMPI JUMP JUMPDEST PUSH1 0x40 MLOAD PUSH3 0x461BCD PUSH1 0xE5 SHL DUP2 MSTORE PUSH1 0x20 PUSH1 0x4 DUP3 ADD MSTORE PUSH1 0x14 PUSH1 0x24 DUP3 ADD MSTORE PUSH20 0x11DC9BDD5C08191BD95CC81B9BDD08195E1A5CDD PUSH1 0x62 SHL PUSH1 0x44 DUP3 ADD MSTORE PUSH1 0x64 SWAP1 REVERT JUMPDEST DUP1 MLOAD DUP3 LT ISZERO PUSH2 0x2088 JUMPI PUSH1 0x20 SWAP2 PUSH1 0x5 SHL ADD ADD SWAP1 JUMP JUMPDEST SWAP1 PUSH2 0x2360 DUP3 PUSH2 0x21DF JUMP JUMPDEST PUSH2 0x236D PUSH1 0x40 MLOAD SWAP2 DUP3 PUSH2 0x1ED7 JUMP JUMPDEST DUP3 DUP2 MSTORE DUP1 SWAP3 PUSH2 0x237E PUSH1 0x1F NOT SWAP2 PUSH2 0x21DF JUMP JUMPDEST ADD SWAP1 PUSH1 0x20 CALLDATASIZE SWAP2 ADD CALLDATACOPY JUMP JUMPDEST PUSH1 0x20 PUSH2 0x23A1 SWAP2 DUP2 PUSH1 0x40 MLOAD SWAP4 DUP3 DUP6 DUP1 SWAP5 MLOAD SWAP4 DUP5 SWAP3 ADD PUSH2 0x2028 JUMP JUMPDEST DUP2 ADD PUSH1 0x1 DUP2 MSTORE SUB ADD SWAP1 KECCAK256 SWAP1 PUSH1 0x40 MLOAD PUSH2 0x23B8 DUP2 PUSH2 0x1EBC JUMP JUMPDEST PUSH2 0x23C1 DUP4 PUSH2 0x20D8 JUMP JUMPDEST DUP2 MSTORE PUSH1 0x60 PUSH1 0xFF PUSH1 0x3 PUSH2 0x23D5 PUSH1 0x1 DUP8 ADD PUSH2 0x223B JUMP JUMPDEST SWAP6 PUSH1 0x20 DUP6 ADD SWAP7 DUP8 MSTORE PUSH1 0x2 DUP2 ADD SLOAD PUSH1 0x40 DUP7 ADD MSTORE ADD SLOAD AND ISZERO ISZERO SWAP2 ADD MSTORE PUSH1 0x0 JUMPDEST DUP3 MLOAD DUP1 MLOAD DUP3 LT ISZERO PUSH2 0x2432 JUMPI PUSH1 0x1 PUSH1 0x1 PUSH1 0xA0 SHL SUB SWAP1 PUSH2 0x2411 SWAP1 DUP4 SWAP1 PUSH2 0x2342 JUMP JUMPDEST MLOAD AND PUSH1 0x1 PUSH1 0x1 PUSH1 0xA0 SHL SUB DUP4 AND EQ PUSH2 0x242A JUMPI PUSH1 0x1 ADD PUSH2 0x23F2 JUMP JUMPDEST POP POP POP PUSH1 0x1 SWAP1 JUMP JUMPDEST POP POP POP POP PUSH1 0x0 SWAP1 JUMP JUMPDEST DUP2 DUP2 LT PUSH2 0x2446 JUMPI POP POP JUMP JUMPDEST PUSH1 0x0 DUP2 SSTORE PUSH1 0x1 ADD PUSH2 0x243B JUMP JUMPDEST SWAP2 SWAP1 SWAP2 DUP3 MLOAD PUSH1 0x1 PUSH1 0x1 PUSH1 0x40 SHL SUB DUP2 GT PUSH2 0x3B3 JUMPI PUSH2 0x246F DUP3 SLOAD PUSH2 0x209E JUMP JUMPDEST PUSH1 0x1F DUP2 GT PUSH2 0x2515 JUMPI JUMPDEST POP PUSH1 0x20 PUSH1 0x1F DUP3 GT PUSH1 0x1 EQ PUSH2 0x24B3 JUMPI DUP2 SWAP3 SWAP4 SWAP5 PUSH1 0x0 SWAP3 PUSH2 0x24A8 JUMPI JUMPDEST POP POP DUP2 PUSH1 0x1 SHL SWAP2 PUSH1 0x0 NOT SWAP1 PUSH1 0x3 SHL SHR NOT AND OR SWAP1 SSTORE JUMP JUMPDEST ADD MLOAD SWAP1 POP CODESIZE DUP1 PUSH2 0x2492 JUMP JUMPDEST PUSH1 0x1F NOT DUP3 AND SWAP1 DUP4 PUSH1 0x0 MSTORE DUP1 PUSH1 0x0 KECCAK256 SWAP2 PUSH1 0x0 JUMPDEST DUP2 DUP2 LT PUSH2 0x24FD JUMPI POP SWAP6 DUP4 PUSH1 0x1 SWAP6 SWAP7 SWAP8 LT PUSH2 0x24E4 JUMPI JUMPDEST POP POP POP DUP2 SHL ADD SWAP1 SSTORE JUMP JUMPDEST ADD MLOAD PUSH1 0x0 NOT PUSH1 0xF8 DUP5 PUSH1 0x3 SHL AND SHR NOT AND SWAP1 SSTORE CODESIZE DUP1 DUP1 PUSH2 0x24DA JUMP JUMPDEST SWAP2 SWAP3 PUSH1 0x20 PUSH1 0x1 DUP2 SWAP3 DUP7 DUP12 ADD MLOAD DUP2 SSTORE ADD SWAP5 ADD SWAP3 ADD PUSH2 0x24C5 JUMP JUMPDEST PUSH2 0x2542 SWAP1 DUP4 PUSH1 0x0 MSTORE PUSH1 0x20 PUSH1 0x0 KECCAK256 PUSH1 0x1F DUP5 ADD PUSH1 0x5 SHR DUP2 ADD SWAP2 PUSH1 0x20 DUP6 LT PUSH2 0x2548 JUMPI JUMPDEST PUSH1 0x1F ADD PUSH1 0x5 SHR ADD SWAP1 PUSH2 0x243B JUMP JUMPDEST CODESIZE PUSH2 0x2478 JUMP JUMPDEST SWAP1 SWAP2 POP DUP2 SWAP1 PUSH2 0x2535 JUMP JUMPDEST DUP1 SLOAD PUSH1 0x1 PUSH1 0x40 SHL DUP2 LT ISZERO PUSH2 0x3B3 JUMPI PUSH2 0x256F SWAP2 PUSH1 0x1 DUP3 ADD DUP2 SSTORE PUSH2 0x2070 JUMP JUMPDEST SWAP2 SWAP1 SWAP2 PUSH2 0x39D JUMPI PUSH2 0x2111 SWAP2 PUSH2 0x2452 JUMP JUMPDEST PUSH1 0x2 PUSH1 0x0 SLOAD EQ PUSH2 0x2590 JUMPI PUSH1 0x2 PUSH1 0x0 SSTORE JUMP JUMPDEST PUSH4 0x3EE5AEB5 PUSH1 0xE0 SHL PUSH1 0x0 MSTORE PUSH1 0x4 PUSH1 0x0 REVERT JUMPDEST PUSH1 0x14 CALLDATASIZE LT ISZERO DUP1 PUSH2 0x25C8 JUMPI JUMPDEST ISZERO PUSH2 0x25C4 JUMPI PUSH1 0x13 NOT CALLDATASIZE ADD CALLDATASIZE DUP2 GT PUSH2 0x142 JUMPI CALLDATALOAD PUSH1 0x60 SHR SWAP1 JUMP JUMPDEST CALLER SWAP1 JUMP JUMPDEST POP CALLER PUSH32 0x0 PUSH1 0x1 PUSH1 0x1 PUSH1 0xA0 SHL SUB AND EQ PUSH2 0x25AC JUMP JUMPDEST SWAP1 PUSH1 0x0 JUMPDEST DUP3 MLOAD DUP2 LT ISZERO PUSH2 0x2632 JUMPI PUSH1 0x1 PUSH1 0x1 PUSH1 0xA0 SHL SUB PUSH2 0x2619 DUP3 DUP6 PUSH2 0x2342 JUMP JUMPDEST MLOAD AND PUSH1 0x1 PUSH1 0x1 PUSH1 0xA0 SHL SUB DUP4 AND EQ PUSH2 0x242A JUMPI PUSH1 0x1 ADD PUSH2 0x25FE JUMP JUMPDEST POP POP POP PUSH1 0x0 SWAP1 JUMP INVALID LOG2 PUSH5 0x6970667358 0x22 SLT KECCAK256 0x24 SUB 0xE6 SAR STOP PUSH14 0xD9DD7D4F6388A0C47E72D0A9A921 0xEF 0x1F 0xCD 0xCF MSTORE8 RETURNDATACOPY BASEFEE DUP12 DUP4 NUMBER 0xC9 0xC5 PUSH5 0x736F6C6343 STOP ADDMOD SHL STOP CALLER "},"methodIdentifiers":{"addExpense(string,string,uint256,uint256,string,string,string)":"bef9f7a4","addMember(string,address)":"45e39705","createGroup(string,address[])":"cfbe575c","debts(string,address,address)":"5768a315","expenseCounter()":"ddcad2ae","expenses(uint256)":"af4afe0a","getDebt(string,address,address)":"40be33e8","getExpense(uint256)":"735e5db6","getGroupCount()":"06545a93","getGroupExpenses(string)":"4bd4622c","getGroupMembers(string)":"02750201","getUserCredits(string,address)":"07edffe0","getUserDebts(string,address)":"cdc88e02","getUserGroups(address)":"3da04e4a","groupExpenses(string,uint256)":"93537dd8","groupIds(uint256)":"4093d7a1","groups(string)":"6b52230b","isGroupMember(string,address)":"15b3671d","isTrustedForwarder(address)":"572b6c05","markAsPaid(uint256,address)":"0245d036","paymentCounter()":"76840b60","payments(uint256)":"87d81789","trustedForwarder()":"7da0a877","userGroups(address,uint256)":"60a9e097"}}}}}