{
  "_format": "hh-sol-artifact-1",
  "contractName": "ExpenseManager",
  "sourceName": "contracts/ExpenseManager.sol",
  "abi": [
    {
      "inputs": [
        {
          "internalType": "address",
          "name": "trustedForwarder",
          "type": "address"
        }
      ],
      "stateMutability": "nonpayable",
      "type": "constructor"
    },
    {
      "inputs": [],
      "name": "ReentrancyGuardReentrantCall",
      "type": "error"
    },
    {
      "anonymous": false,
      "inputs": [
        {
          "indexed": true,
          "internalType": "string",
          "name": "groupId",
          "type": "string"
        },
        {
          "indexed": true,
          "internalType": "address",
          "name": "from",
          "type": "address"
        },
        {
          "indexed": true,
          "internalType": "address",
          "name": "to",
          "type": "address"
        },
        {
          "indexed": false,
          "internalType": "uint256",
          "name": "newAmount",
          "type": "uint256"
        }
      ],
      "name": "DebtUpdated",
      "type": "event"
    },
    {
      "anonymous": false,
      "inputs": [
        {
          "indexed": true,
          "internalType": "uint256",
          "name": "expenseId",
          "type": "uint256"
        },
        {
          "indexed": true,
          "internalType": "string",
          "name": "groupId",
          "type": "string"
        },
        {
          "indexed": true,
          "internalType": "address",
          "name": "payer",
          "type": "address"
        },
        {
          "indexed": false,
          "internalType": "uint256",
          "name": "totalAmount",
          "type": "uint256"
        },
        {
          "indexed": false,
          "internalType": "uint256",
          "name": "perPersonAmount",
          "type": "uint256"
        },
        {
          "indexed": false,
          "internalType": "string",
          "name": "currency",
          "type": "string"
        },
        {
          "indexed": false,
          "internalType": "string",
          "name": "ipfsHash",
          "type": "string"
        },
        {
          "indexed": false,
          "internalType": "uint256",
          "name": "timestamp",
          "type": "uint256"
        }
      ],
      "name": "ExpenseAdded",
      "type": "event"
    },
    {
      "anonymous": false,
      "inputs": [
        {
          "indexed": true,
          "internalType": "string",
          "name": "groupId",
          "type": "string"
        },
        {
          "indexed": false,
          "internalType": "address[]",
          "name": "members",
          "type": "address[]"
        },
        {
          "indexed": false,
          "internalType": "uint256",
          "name": "timestamp",
          "type": "uint256"
        }
      ],
      "name": "GroupCreated",
      "type": "event"
    },
    {
      "anonymous": false,
      "inputs": [
        {
          "indexed": true,
          "internalType": "string",
          "name": "groupId",
          "type": "string"
        },
        {
          "indexed": false,
          "internalType": "address",
          "name": "member",
          "type": "address"
        },
        {
          "indexed": false,
          "internalType": "uint256",
          "name": "timestamp",
          "type": "uint256"
        }
      ],
      "name": "MemberAdded",
      "type": "event"
    },
    {
      "anonymous": false,
      "inputs": [
        {
          "indexed": true,
          "internalType": "uint256",
          "name": "paymentId",
          "type": "uint256"
        },
        {
          "indexed": true,
          "internalType": "uint256",
          "name": "expenseId",
          "type": "uint256"
        },
        {
          "indexed": true,
          "internalType": "address",
          "name": "from",
          "type": "address"
        },
        {
          "indexed": false,
          "internalType": "address",
          "name": "to",
          "type": "address"
        },
        {
          "indexed": false,
          "internalType": "uint256",
          "name": "amount",
          "type": "uint256"
        },
        {
          "indexed": false,
          "internalType": "bool",
          "name": "gasless",
          "type": "bool"
        },
        {
          "indexed": false,
          "internalType": "uint256",
          "name": "timestamp",
          "type": "uint256"
        }
      ],
      "name": "PaymentMarked",
      "type": "event"
    },
    {
      "inputs": [
        {
          "internalType": "string",
          "name": "groupId",
          "type": "string"
        },
        {
          "internalType": "address",
          "name": "payer",
          "type": "address"
        },
        {
          "internalType": "string",
          "name": "merchant",
          "type": "string"
        },
        {
          "internalType": "uint256",
          "name": "totalAmount",
          "type": "uint256"
        },
        {
          "internalType": "uint256",
          "name": "perPersonAmount",
          "type": "uint256"
        },
        {
          "internalType": "string",
          "name": "currency",
          "type": "string"
        },
        {
          "internalType": "string",
          "name": "ipfsHash",
          "type": "string"
        },
        {
          "internalType": "string",
          "name": "metadata",
          "type": "string"
        }
      ],
      "name": "addExpense",
      "outputs": [],
      "stateMutability": "nonpayable",
      "type": "function"
    },
    {
      "inputs": [
        {
          "internalType": "string",
          "name": "groupId",
          "type": "string"
        },
        {
          "internalType": "address",
          "name": "newMember",
          "type": "address"
        }
      ],
      "name": "addMember",
      "outputs": [],
      "stateMutability": "nonpayable",
      "type": "function"
    },
    {
      "inputs": [
        {
          "internalType": "uint256[]",
          "name": "expenseIds",
          "type": "uint256[]"
        },
        {
          "internalType": "address",
          "name": "debtor",
          "type": "address"
        },
        {
          "internalType": "address",
          "name": "creditor",
          "type": "address"
        }
      ],
      "name": "batchMarkAsPaid",
      "outputs": [],
      "stateMutability": "nonpayable",
      "type": "function"
    },
    {
      "inputs": [
        {
          "internalType": "string",
          "name": "groupId",
          "type": "string"
        },
        {
          "internalType": "address[]",
          "name": "members",
          "type": "address[]"
        }
      ],
      "name": "createGroup",
      "outputs": [],
      "stateMutability": "nonpayable",
      "type": "function"
    },
    {
      "inputs": [
        {
          "internalType": "string",
          "name": "",
          "type": "string"
        },
        {
          "internalType": "address",
          "name": "",
          "type": "address"
        },
        {
          "internalType": "address",
          "name": "",
          "type": "address"
        }
      ],
      "name": "debts",
      "outputs": [
        {
          "internalType": "uint256",
          "name": "",
          "type": "uint256"
        }
      ],
      "stateMutability": "view",
      "type": "function"
    },
    {
      "inputs": [],
      "name": "expenseCounter",
      "outputs": [
        {
          "internalType": "uint256",
          "name": "",
          "type": "uint256"
        }
      ],
      "stateMutability": "view",
      "type": "function"
    },
    {
      "inputs": [
        {
          "internalType": "uint256",
          "name": "",
          "type": "uint256"
        }
      ],
      "name": "expenses",
      "outputs": [
        {
          "internalType": "uint256",
          "name": "id",
          "type": "uint256"
        },
        {
          "internalType": "string",
          "name": "groupId",
          "type": "string"
        },
        {
          "internalType": "address",
          "name": "payer",
          "type": "address"
        },
        {
          "internalType": "string",
          "name": "merchant",
          "type": "string"
        },
        {
          "internalType": "uint256",
          "name": "totalAmount",
          "type": "uint256"
        },
        {
          "internalType": "uint256",
          "name": "perPersonAmount",
          "type": "uint256"
        },
        {
          "internalType": "string",
          "name": "currency",
          "type": "string"
        },
        {
          "internalType": "string",
          "name": "ipfsHash",
          "type": "string"
        },
        {
          "internalType": "uint256",
          "name": "timestamp",
          "type": "uint256"
        },
        {
          "internalType": "string",
          "name": "metadata",
          "type": "string"
        }
      ],
      "stateMutability": "view",
      "type": "function"
    },
    {
      "inputs": [
        {
          "internalType": "string",
          "name": "groupId",
          "type": "string"
        },
        {
          "internalType": "address",
          "name": "debtor",
          "type": "address"
        },
        {
          "internalType": "address",
          "name": "creditor",
          "type": "address"
        }
      ],
      "name": "getDebt",
      "outputs": [
        {
          "internalType": "uint256",
          "name": "",
          "type": "uint256"
        }
      ],
      "stateMutability": "view",
      "type": "function"
    },
    {
      "inputs": [
        {
          "internalType": "uint256",
          "name": "expenseId",
          "type": "uint256"
        }
      ],
      "name": "getExpense",
      "outputs": [
        {
          "components": [
            {
              "internalType": "uint256",
              "name": "id",
              "type": "uint256"
            },
            {
              "internalType": "string",
              "name": "groupId",
              "type": "string"
            },
            {
              "internalType": "address",
              "name": "payer",
              "type": "address"
            },
            {
              "internalType": "string",
              "name": "merchant",
              "type": "string"
            },
            {
              "internalType": "uint256",
              "name": "totalAmount",
              "type": "uint256"
            },
            {
              "internalType": "uint256",
              "name": "perPersonAmount",
              "type": "uint256"
            },
            {
              "internalType": "string",
              "name": "currency",
              "type": "string"
            },
            {
              "internalType": "string",
              "name": "ipfsHash",
              "type": "string"
            },
            {
              "internalType": "uint256",
              "name": "timestamp",
              "type": "uint256"
            },
            {
              "internalType": "address[]",
              "name": "participants",
              "type": "address[]"
            },
            {
              "internalType": "string",
              "name": "metadata",
              "type": "string"
            }
          ],
          "internalType": "struct ExpenseManager.Expense",
          "name": "",
          "type": "tuple"
        }
      ],
      "stateMutability": "view",
      "type": "function"
    },
    {
      "inputs": [],
      "name": "getGroupCount",
      "outputs": [
        {
          "internalType": "uint256",
          "name": "",
          "type": "uint256"
        }
      ],
      "stateMutability": "view",
      "type": "function"
    },
    {
      "inputs": [
        {
          "internalType": "string",
          "name": "groupId",
          "type": "string"
        }
      ],
      "name": "getGroupExpenses",
      "outputs": [
        {
          "internalType": "uint256[]",
          "name": "",
          "type": "uint256[]"
        }
      ],
      "stateMutability": "view",
      "type": "function"
    },
    {
      "inputs": [
        {
          "internalType": "string",
          "name": "groupId",
          "type": "string"
        }
      ],
      "name": "getGroupMembers",
      "outputs": [
        {
          "internalType": "address[]",
          "name": "",
          "type": "address[]"
        }
      ],
      "stateMutability": "view",
      "type": "function"
    },
    {
      "inputs": [
        {
          "internalType": "string",
          "name": "groupId",
          "type": "string"
        },
        {
          "internalType": "address",
          "name": "user",
          "type": "address"
        }
      ],
      "name": "getUserCredits",
      "outputs": [
        {
          "internalType": "address[]",
          "name": "debtors",
          "type": "address[]"
        },
        {
          "internalType": "uint256[]",
          "name": "amounts",
          "type": "uint256[]"
        }
      ],
      "stateMutability": "view",
      "type": "function"
    },
    {
      "inputs": [
        {
          "internalType": "string",
          "name": "groupId",
          "type": "string"
        },
        {
          "internalType": "address",
          "name": "user",
          "type": "address"
        }
      ],
      "name": "getUserDebts",
      "outputs": [
        {
          "internalType": "address[]",
          "name": "creditors",
          "type": "address[]"
        },
        {
          "internalType": "uint256[]",
          "name": "amounts",
          "type": "uint256[]"
        }
      ],
      "stateMutability": "view",
      "type": "function"
    },
    {
      "inputs": [
        {
          "internalType": "address",
          "name": "user",
          "type": "address"
        }
      ],
      "name": "getUserGroups",
      "outputs": [
        {
          "internalType": "string[]",
          "name": "",
          "type": "string[]"
        }
      ],
      "stateMutability": "view",
      "type": "function"
    },
    {
      "inputs": [
        {
          "internalType": "string",
          "name": "",
          "type": "string"
        },
        {
          "internalType": "uint256",
          "name": "",
          "type": "uint256"
        }
      ],
      "name": "groupExpenses",
      "outputs": [
        {
          "internalType": "uint256",
          "name": "",
          "type": "uint256"
        }
      ],
      "stateMutability": "view",
      "type": "function"
    },
    {
      "inputs": [
        {
          "internalType": "uint256",
          "name": "",
          "type": "uint256"
        }
      ],
      "name": "groupIds",
      "outputs": [
        {
          "internalType": "string",
          "name": "",
          "type": "string"
        }
      ],
      "stateMutability": "view",
      "type": "function"
    },
    {
      "inputs": [
        {
          "internalType": "string",
          "name": "",
          "type": "string"
        }
      ],
      "name": "groups",
      "outputs": [
        {
          "internalType": "string",
          "name": "groupId",
          "type": "string"
        },
        {
          "internalType": "uint256",
          "name": "createdAt",
          "type": "uint256"
        },
        {
          "internalType": "bool",
          "name": "exists",
          "type": "bool"
        }
      ],
      "stateMutability": "view",
      "type": "function"
    },
    {
      "inputs": [
        {
          "internalType": "string",
          "name": "groupId",
          "type": "string"
        },
        {
          "internalType": "address",
          "name": "user",
          "type": "address"
        }
      ],
      "name": "isGroupMember",
      "outputs": [
        {
          "internalType": "bool",
          "name": "",
          "type": "bool"
        }
      ],
      "stateMutability": "view",
      "type": "function"
    },
    {
      "inputs": [
        {
          "internalType": "address",
          "name": "forwarder",
          "type": "address"
        }
      ],
      "name": "isTrustedForwarder",
      "outputs": [
        {
          "internalType": "bool",
          "name": "",
          "type": "bool"
        }
      ],
      "stateMutability": "view",
      "type": "function"
    },
    {
      "inputs": [
        {
          "internalType": "uint256",
          "name": "expenseId",
          "type": "uint256"
        },
        {
          "internalType": "address",
          "name": "creditor",
          "type": "address"
        }
      ],
      "name": "markAsPaid",
      "outputs": [],
      "stateMutability": "nonpayable",
      "type": "function"
    },
    {
      "inputs": [],
      "name": "paymentCounter",
      "outputs": [
        {
          "internalType": "uint256",
          "name": "",
          "type": "uint256"
        }
      ],
      "stateMutability": "view",
      "type": "function"
    },
    {
      "inputs": [
        {
          "internalType": "uint256",
          "name": "",
          "type": "uint256"
        }
      ],
      "name": "payments",
      "outputs": [
        {
          "internalType": "uint256",
          "name": "expenseId",
          "type": "uint256"
        },
        {
          "internalType": "address",
          "name": "from",
          "type": "address"
        },
        {
          "internalType": "address",
          "name": "to",
          "type": "address"
        },
        {
          "internalType": "uint256",
          "name": "amount",
          "type": "uint256"
        },
        {
          "internalType": "uint256",
          "name": "timestamp",
          "type": "uint256"
        },
        {
          "internalType": "bool",
          "name": "gasless",
          "type": "bool"
        }
      ],
      "stateMutability": "view",
      "type": "function"
    },
    {
      "inputs": [],
      "name": "trustedForwarder",
      "outputs": [
        {
          "internalType": "address",
          "name": "",
          "type": "address"
        }
      ],
      "stateMutability": "view",
      "type": "function"
    },
    {
      "inputs": [
        {
          "internalType": "address",
          "name": "",
          "type": "address"
        },
        {
          "internalType": "uint256",
          "name": "",
          "type": "uint256"
        }
      ],
      "name": "userGroups",
      "outputs": [
        {
          "internalType": "string",
          "name": "",
          "type": "string"
        }
      ],
      "stateMutability": "view",
      "type": "function"
    }
  ],
  "bytecode": "0x60a03461008757601f612e5838819003918201601f19168301916001600160401b0383118484101761008c5780849260209460405283398101031261008757516001600160a01b038116810361008757608052600160005560016004556001600755604051612db590816100a3823960805181818161100f01528181611b430152612d510152f35b600080fd5b634e487b7160e01b600052604160045260246000fdfe6080604052600436101561001257600080fd5b60003560e01c80630245d0361461219c578063027502011461210c57806306545a93146120ee57806307edffe014611f3957806315b3671d14611f165780633da04e4a14611e2d5780634093d7a114611dbb57806340be33e814611d8457806345e3970514611c425780634bd4622c14611b77578063572b6c0514611b235780635768a31514611abb57806360a9e09714611a545780636b52230b146119c357806372057def146112b2578063735e5db61461105c57806376840b601461103e5780637da0a87714610ff957806387d8178914610f815780638a6120a61461082d57806393537dd8146107b3578063af4afe0a146106b0578063cdc88e02146104a5578063cfbe575c146101525763ddcad2ae1461012f57600080fd5b3461014d57600036600319011261014d576020600454604051908152f35b600080fd5b3461014d57604036600319011261014d576004356001600160401b03811161014d57610182903690600401612653565b602435906001600160401b03821161014d573660238301121561014d5781600401356101ad8161293a565b926101bb6040519485612632565b8184526024602085019260051b8201019036821161014d57602401915b8183106104855750505060405160ff6003835192602081818701956101fe818389612783565b81016001815203019020015416610449578251156103f8576040519061022382612617565b8282526020820184815260408301904282526102696102576020606087019560018752604051809381928b51928391612783565b81016001815203019020945185612bba565b5180519060018501906001600160401b0383116103a857600160401b83116103a85760209082548484558085106103db575b500190600052602060002060005b8381106103be5788886102d68960038a8a51600284015551151591019060ff801983541691151516179055565b600254600160401b8110156103a8578060016102f7920160025560026127cb565b610392578161030591612bba565b60005b8251811015610344576001906001600160a01b036103268286612aaa565b5116600052600960205261033e836040600020612cba565b01610308565b506103876103727f3599f24e25095535210b1b8ca48fba46c30fcd53bdb6cef3a68a38a4ad26533792612a47565b926040519182916040835260408301906126a9565b4260208301520390a2005b634e487b7160e01b600052600060045260246000fd5b634e487b7160e01b600052604160045260246000fd5b82516001600160a01b0316818301556020909201916001016102a9565b6103f2908460005285846000209182019101612ba3565b8961029b565b60405162461bcd60e51b815260206004820152602360248201527f47726f7570206d7573742068617665206174206c65617374206f6e65206d656d6044820152623132b960e91b6064820152608490fd5b60405162461bcd60e51b815260206004820152601460248201527347726f757020616c72656164792065786973747360601b6044820152606490fd5b82356001600160a01b038116810361014d578152602092830192016101d8565b3461014d576104b3366126e6565b906040516104e560ff6003845193602081818801966104d381838a612783565b81016001815203019020015416612a67565b60405160208184516104f8818387612783565b8101600181520301902060405161050e81612617565b61051782612833565b8152606060ff600361052b60018601612996565b946020850195865260028101546040860152015416151591015260009160005b8251518110156105d1576040808051602081895161056a81838a612783565b8101600881520301902060009060018060a01b038a1682526020522060018060a01b03610598848751612aaa565b51166001600160a01b0316600090815260209190915220546105bd575b60010161054b565b926105c9600191612a38565b9390506105b5565b50906105e56105df84612abe565b93612abe565b9260009260005b83515181101561069d5760408080516020818b5161060b81838a612783565b8101600881520301902060009060018060a01b038c1682526020522060018060a01b03610639848851612aaa565b51166001600160a01b03166000908152602091909152205480610660575b506001016105ec565b6001919561069691838060a01b03610679898951612aaa565b51166106858388612aaa565b52610690828a612aaa565b52612a38565b9490610657565b604051806106ac88868361275b565b0390f35b3461014d57602036600319011261014d57600435600052600360205260406000208054600182016106e090612833565b600283015490926001600160a01b03909116906106ff60038201612833565b600482015460058301549061071660068501612833565b9161072360078601612833565b93600886015495600a0161073690612833565b96604051998a998a5260208a0161014090526101408a01610756916127a6565b9060408a015288810360608a015261076d916127a6565b91608088015260a087015285810360c0870152610789916127a6565b84810360e086015261079a916127a6565b906101008401528281036101208401526106ac916127a6565b3461014d57604036600319011261014d576004356001600160401b03811161014d576107e3903690600401612653565b6107ff6020602435928160405193828580945193849201612783565b81016005815203019020805482101561014d5760209161081e916127cb565b90549060031b1c604051908152f35b3461014d5761010036600319011261014d576004356001600160401b03811161014d5761085e903690600401612653565b6108666125b4565b906044356001600160401b03811161014d57610886903690600401612653565b91606435926084359260a4356001600160401b03811161014d576108ae903690600401612653565b9260c4356001600160401b03811161014d576108ce903690600401612653565b60e4356001600160401b03811161014d576108ed903690600401612653565b956108f6612d04565b6040519584519680602087019861090e81838c612783565b8101600181520360200190206003015460ff1661092a90612a67565b8815610f30578115610eda57855115610e9c57825115610e62576001600160a01b038416938415610e255761095f9086612af0565b15610de05760045461097081612a38565b60045560016040516020818061098a8d8c51928391612783565b81018481520301902001546000198101908111610dca576109aa90612abe565b996000978b8960016109cb60208e5b8d604051938492839251928391612783565b8101848152030190200154811015610a8157908189610a0a8e9460018e60206040518092516109fb81838d612783565b810184815203019020016127cb565b905460039190911b1c6001600160a01b031603610a33575b6109cb6020600180930193946109b9565b9a6109cb60206001610a768f948f8396846109fb878c610a5e95604051938492839251928391612783565b848060a01b0391549060031b1c166106908289612aaa565b9e9350505050610a22565b509996979598508a8a60405192610a97846125e0565b8584528b60208501918a835260408601908d8252606087019081526080870188815260a08801918c835260c08901938c855260e08a019586526101008a01964288526101208b019889526101408b01998a528c600052600360205260406000209a518b555160018b0190610b0a91612bba565b5160028a0180546001600160a01b0319166001600160a01b039290921691909117905551610b3b9060038a01612bba565b51600488015551600587015551610b559060068701612bba565b51610b639060078601612bba565b5160088401555180519060098401906001600160401b0383116103a857600160401b83116103a8576020908254848455808510610dad575b500190600052602060002060005b838110610d90575050505090600a610bc392519101612bba565b6040516020818751610bd681838c612783565b810160058152030190208054600160401b8110156103a857610bfd916001820181556127cb565b81549060031b9084821b91600019901b191617905560005b8951811015610d1e5760019088876040808e610cab60208e8d610c868680805186818d51610c4481838b612783565b810160088152030190208d8f80610c609160a01b03918b612aaa565b51166001600160a01b031660009081529087529081208c82528652208054909290612cf7565b9055898060a01b03610c988a86612aaa565b5116968551938492839251928391612783565b8101600881520301902090610cc687898060a01b0392612aaa565b511690600091888060a01b031682526020522060009084825260205220547fc247df220fd28f38c52084b08c97414ffcb3c5f5a3a6c1bbb17745bb3e8cfb0a6020610d108c612a47565b92604051908152a401610c15565b5086937fcc762af87a9e4b178c686ac9675008ff8324a12ceb2e2a23052e2186bb184c1491610d808a610d72610d538a612a47565b976040519586958652602086015260a0604086015260a08501906127a6565b9083820360608501526127a6565b4260808301520390a46001600055005b82516001600160a01b031681830155602090920191600101610ba9565b610dc4908460005285846000209182019101612ba3565b8f610b9b565b634e487b7160e01b600052601160045260246000fd5b60405162461bcd60e51b815260206004820152601c60248201527f5061796572206d75737420626520612067726f7570206d656d626572000000006044820152606490fd5b60405162461bcd60e51b8152602060048201526015602482015274496e76616c6964207061796572206164647265737360581b6044820152606490fd5b60405162461bcd60e51b815260206004820152601260248201527112541194c81a185cda081c995c5d5a5c995960721b6044820152606490fd5b60405162461bcd60e51b815260206004820152601660248201527513595c98da185b9d081b985b59481c995c5d5a5c995960521b6044820152606490fd5b60405162461bcd60e51b815260206004820152602860248201527f50657220706572736f6e20616d6f756e74206d75737420626520677265617465604482015267072207468616e20360c41b6064820152608490fd5b60405162461bcd60e51b815260206004820152602360248201527f546f74616c20616d6f756e74206d75737420626520677265617465722074686160448201526206e20360ec1b6064820152608490fd5b3461014d57602036600319011261014d57600435600052600660205260c0604060002080549060018060a01b036001820154169060018060a01b0360028201541660038201549060ff6005600485015494015416936040519586526020860152604085015260608401526080830152151560a0820152f35b3461014d57600036600319011261014d576040517f00000000000000000000000000000000000000000000000000000000000000006001600160a01b03168152602090f35b3461014d57600036600319011261014d576020600754604051908152f35b3461014d57602036600319011261014d5760043560405161107c816125e0565b60008152602081016060905260408101600090526060810160609052608081016000905260a081016000905260c081016060905260e0810160609052610100810160009052610120810160609052610140016060905280600052600360205280604060002054146110ec90612951565b60005260036020526040600020604051611105816125e0565b8154815261111560018301612833565b6020820190815260028301546001600160a01b0316604083019081529261113e60038201612833565b9360608401948552600482015460808501908152600583015460a086019081526006840161116b90612833565b60c087019081529061117f60078601612833565b9360e088019485526008860154986101008901998a52600987016111a290612996565b966101208a01978852600a016111b790612833565b976101408a019889526040519960208b525160208b01525160408a0161016090526101808a016111e6916127a6565b91516001600160a01b031660608a015251888203601f190160808a015261120d91906127a6565b925160a08801525160c087015251858203601f190160e087015261123191906127a6565b9051848203601f190161010086015261124a91906127a6565b93516101208401525192601f1983820301610140840152835190818152602001936020019060005b8181106112935784806106ac888751601f19848303016101608501526127a6565b82516001600160a01b0316865260209586019590920191600101611272565b3461014d57606036600319011261014d576004356001600160401b03811161014d573660238201121561014d5780600401356001600160401b03811161014d576024820191602436918360051b01011161014d5761130e6125b4565b6044356001600160a01b0381169384820361014d5761132b612d04565b831561197e5760328411611939576001600160a01b0383169384156118fb5785156118b6576000926060946000905b8382106116b6575050604051938551946020818189019761137c81838b612783565b810160088152030190208760005260205260406000208860005260205260406000205410611671576113ac612d26565b6001600160a01b03163214159160005b87898884841061143d5782906113df60208b604051809381928651928391612783565b81016008815203019020826000526020526040600020836000526020527fc247df220fd28f38c52084b08c97414ffcb3c5f5a3a6c1bbb17745bb3e8cfb0a602061142e60406000205493612a47565b92604051908152a46001600055005b8392917fc2fbb7f1ca94ac6e3e6a91e666986ddcf7fa936faa9ef0aa29f4403f98af09ed6116688b9360408061154260208f60019c8e61147c92612ce7565b35988960005260038252836000208451611495816125e0565b815481526114a48f8301612833565b848201528e8060a01b03600283015416868201526114c460038301612833565b60608201526004820154608082015261014061152d600a60058501549460a085019586526114f460068201612833565b60c086015261150560078201612833565b60e0860152600881015461010086015261152160098201612996565b61012086015201612833565b91015251958451938492839251928391612783565b81016008815203019020600090898252602052206000908682526020522061156b828254612a2b565b90556116396007549461157d86612a38565b60075560058d60405192611590846125fc565b89845260208401908b8252604085019081526060850190878252608086019242845260a087019485528b60005260066020526040600020965187558f8060a01b039051168f87019060018060a01b03166001600160601b0360a01b8254161790558e8060a01b0390511660028601908f8060a01b03166001600160601b0360a01b82541617905551600385015551600484015551151591019060ff801983541691151516179055565b604080516001600160a01b038c16815260208101929092528b1515908201524260608201529081906080820190565b0390a4016113bc565b60405162461bcd60e51b815260206004820152601d60248201527f496e73756666696369656e74206465627420746f206372656469746f720000006044820152606490fd5b90946116c3868587612ce7565b358060005260036020526116dd8160406000205414612951565b60005260036020526040600020604051976116f7896125e0565b8154895261170760018301612833565b60208a0190815260028301546001600160a01b031660408b019081529990919061173360038501612833565b606082015260048401546080820152610140611763600a60058701549660a085019788526114f460068201612833565b910152886118435750519761178e60ff60036104d360208d8160405193828580945193849201612783565b611798848a612af0565b156117fe578a905b516001600160a01b0316036117c5576001916117bd915190612cf7565b95019061135a565b60405162461bcd60e51b8152602060048201526011602482015270086e4cac8d2e8dee440dad2e6dac2e8c6d607b1b6044820152606490fd5b60405162461bcd60e51b815260206004820152601c60248201527f446562746f72206973206e6f7420612067726f7570206d656d626572000000006044820152606490fd5b98905160208151910120895160208b012003611860578a906117a0565b60405162461bcd60e51b815260206004820152602860248201527f416c6c20657870656e736573206d7573742062652066726f6d2074686520736160448201526706d652067726f75760c41b6064820152608490fd5b60405162461bcd60e51b815260206004820152601860248201527f496e76616c6964206372656469746f72206164647265737300000000000000006044820152606490fd5b60405162461bcd60e51b8152602060048201526016602482015275496e76616c696420646562746f72206164647265737360501b6044820152606490fd5b60405162461bcd60e51b815260206004820152601a60248201527f546f6f206d616e7920657870656e73657320286d6178203530290000000000006044820152606490fd5b60405162461bcd60e51b815260206004820152601760248201527f456d70747920657870656e7365204944732061727261790000000000000000006044820152606490fd5b3461014d57602036600319011261014d576004356001600160401b03811161014d57611a0e60206119fb611a43933690600401612653565b8160405193828580945193849201612783565b81016001815203019020611a2181612833565b9060ff60036002830154920154166040519384936060855260608501906127a6565b916020840152151560408301520390f35b3461014d57604036600319011261014d57611a6d6125ca565b6001600160a01b0316600090815260096020526040902080546024359081101561014d57611aa1611aa7916106ac936127cb565b906128d7565b6040519182916020835260208301906127a6565b3461014d57611ae66020611ace366128e5565b93918360409492945193828580945193849201612783565b810160088152030190209060018060a01b031660005260205260406000209060018060a01b03166000526020526020604060002054604051908152f35b3461014d57602036600319011261014d576020611b3e6125ca565b6040517f00000000000000000000000000000000000000000000000000000000000000006001600160a01b039081169216919091148152f35b3461014d57602036600319011261014d576004356001600160401b03811161014d576020611bac611bdc923690600401612653565b60405190611bcb60ff60038351948681818701976104d381838b612783565b604051938492839251928391612783565b8101600581520301902060405190816020825491828152019160005260206000209060005b818110611c2c576106ac85611c1881870382612632565b604051918291602083526020830190612727565b8254845260209093019260019283019201611c01565b3461014d57611c50366126e6565b90604051611c7060ff6003845193602081818801966104d381838a612783565b611c89611c84611c7e612d26565b84612af0565b6129ea565b611c938383612af0565b611d4c57611cb06020600192604051809381928751928391612783565b810184815203019020018054600160401b8110156103a8577f51cfabebb274a439fc348592eb455cc20eb9d20c36329f87592dadc611a1dff392611cff826040946001611d3d950181556127cb565b81546001600160a01b0397881660039290921b82811b98901b191696909617905560008581526009602052839020611d38908290612cba565b612a47565b928151908152426020820152a2005b60405162461bcd60e51b815260206004820152601060248201526f20b63932b0b23c90309036b2b6b132b960811b6044820152606490fd5b3461014d57611ae66020611d97366128e5565b939160409391935190611bcb60ff60038351948681818701976104d381838b612783565b3461014d57602036600319011261014d5760043560025481101561014d576000600254821015611e1957600290527f405787fa12a823e0f2b7631cc41b3ba8828b3321ca811111fa75cd3aa3bb5ace0160006106ac611aa783612833565b634e487b7160e01b81526032600452602490fd5b3461014d57602036600319011261014d576001600160a01b03611e4e6125ca565b1660005260096020526040600020805490611e688261293a565b91611e766040519384612632565b80835260208301809260005260206000206000915b838310611ef957848660405191829160208301906020845251809152604083019060408160051b85010192916000905b828210611eca57505050500390f35b91936001919395506020611ee98192603f198a820301865288516127a6565b9601920192018594939192611ebb565b600160208192611f0885612833565b815201920192019190611e8b565b3461014d576020611f2f611f29366126e6565b90612af0565b6040519015158152f35b3461014d57611f47366126e6565b90604051611f6760ff6003845193602081818801966104d381838a612783565b6040516020818451611f7a818387612783565b81016001815203019020604051611f9081612617565b611f9982612833565b8152606060ff6003611fad60018601612996565b946020850195865260028101546040860152015416151591015260009160005b82515181101561204c5760408080516020818951611fec81838a612783565b8101600881520301902060018060a01b03612008858851612aaa565b516001600160a01b039116811660009081526020928352928320908a16835290522054612038575b600101611fcd565b92612044600191612a38565b939050612030565b509061205a6105df84612abe565b9260009260005b83515181101561069d5760408080516020818b5161208081838a612783565b8101600881520301902060018060a01b0361209c858951612aaa565b516001600160a01b039116811660009081526020928352928320908c16835290522054806120ce575b50600101612061565b600191956120e791838060a01b03610679898951612aaa565b94906120c5565b3461014d57600036600319011261014d576020600254604051908152f35b3461014d57602036600319011261014d576004356001600160401b03811161014d57612188600161217960206121496106ac953690600401612653565b60405190611bcb60ff600383519486818187019761216881838b612783565b81018b815203019020015416612a67565b81018481520301902001612996565b6040519182916020835260208301906126a9565b3461014d57604036600319011261014d576004356121b86125b4565b6121c0612d04565b8160005260036020526121d98260406000205414612951565b816000526003602052604060002091604051926121f5846125e0565b8054845261220560018201612833565b6020850190815260028201546001600160a01b031660408601529361222c60038301612833565b60608201526004820154608082015261014061225c600a60058501549460a085019586526114f460068201612833565b910152612267612d26565b935191612277611c848685612af0565b6040519183519260208181870195612290818389612783565b8101600881520301902060018060a01b038716600052602052604060002060018060a01b0386166000526020526040600020541561256f57519060405160208186516122dd818389612783565b8101600881520301902060018060a01b038716600052602052604060002060018060a01b038616600052602052816040600020541061253357604051808551612327818388612783565b60089082019081520360209081019091206001600160a01b038881166000908152918352604080832091891683529252208054612365908490612a2b565b905560075461237381612a38565b60075561237e612d26565b60405193906001600160a01b0316321415612398856125fc565b8385526020850198600160a01b6001900316978895868b52604081019a600160a01b6001900383169b8c815260608301868152608084019142835260a0850193878552896000526006602052604060002095518655600160a01b600190039051166001860190600160a01b60019003166001600160601b0360a01b825416179055600160a01b600190039051166002850190600160a01b60019003166001600160601b0360a01b825416179055516003840155516004830155511515906005019061246e919060ff801983541691151516179055565b604080516001600160a01b039290921682526020820193909352901515918101919091524260608201527fc2fbb7f1ca94ac6e3e6a91e666986ddcf7fa936faa9ef0aa29f4403f98af09ed90608090a4604051808092845180926124d192612783565b810160088152036020019020826000526020526040600020836000526020526040600020549061250090612a47565b9060405190815260207fc247df220fd28f38c52084b08c97414ffcb3c5f5a3a6c1bbb17745bb3e8cfb0a91a46001600055005b60405162461bcd60e51b8152602060048201526014602482015273088cac4e840c2dadeeadce840dad2e6dac2e8c6d60631b6044820152606490fd5b60405162461bcd60e51b815260206004820152601860248201527f4e6f206465627420746f2074686973206372656469746f7200000000000000006044820152606490fd5b602435906001600160a01b038216820361014d57565b600435906001600160a01b038216820361014d57565b61016081019081106001600160401b038211176103a857604052565b60c081019081106001600160401b038211176103a857604052565b608081019081106001600160401b038211176103a857604052565b90601f801991011681019081106001600160401b038211176103a857604052565b81601f8201121561014d578035906001600160401b0382116103a85760405192612687601f8401601f191660200185612632565b8284526020838301011161014d57816000926020809301838601378301015290565b906020808351928381520192019060005b8181106126c75750505090565b82516001600160a01b03168452602093840193909201916001016126ba565b604060031982011261014d57600435906001600160401b03821161014d5761271091600401612653565b906024356001600160a01b038116810361014d5790565b906020808351928381520192019060005b8181106127455750505090565b8251845260209384019390920191600101612738565b9091612772612780936040845260408401906126a9565b916020818403910152612727565b90565b60005b8381106127965750506000910152565b8181015183820152602001612786565b906020916127bf81518092818552858086019101612783565b601f01601f1916010190565b80548210156127e35760005260206000200190600090565b634e487b7160e01b600052603260045260246000fd5b90600182811c92168015612829575b602083101461281357565b634e487b7160e01b600052602260045260246000fd5b91607f1691612808565b9060405191826000825492612847846127f9565b80845293600181169081156128b5575060011461286e575b5061286c92500383612632565b565b90506000929192526020600020906000915b81831061289957505090602061286c928201013861285f565b6020919350806001915483858901015201910190918492612880565b90506020925061286c94915060ff191682840152151560051b8201013861285f565b906103925761278090612833565b606060031982011261014d57600435906001600160401b03821161014d5761290f91600401612653565b906024356001600160a01b038116810361014d57906044356001600160a01b038116810361014d5790565b6001600160401b0381116103a85760051b60200190565b1561295857565b60405162461bcd60e51b8152602060048201526016602482015275115e1c195b9cd948191bd95cc81b9bdd08195e1a5cdd60521b6044820152606490fd5b906040519182815491828252602082019060005260206000209260005b8181106129c857505061286c92500383612632565b84546001600160a01b03168352600194850194879450602090930192016129b3565b156129f157565b60405162461bcd60e51b81526020600482015260126024820152712737ba10309033b937bab81036b2b6b132b960711b6044820152606490fd5b91908203918211610dca57565b6000198114610dca5760010190565b612a5f90602060405192828480945193849201612783565b810103902090565b15612a6e57565b60405162461bcd60e51b815260206004820152601460248201527311dc9bdd5c08191bd95cc81b9bdd08195e1a5cdd60621b6044820152606490fd5b80518210156127e35760209160051b010190565b90612ac88261293a565b612ad56040519182612632565b8281528092612ae6601f199161293a565b0190602036910137565b6020612b09918160405193828580945193849201612783565b8101600181520301902090604051612b2081612617565b612b2983612833565b8152606060ff6003612b3d60018701612996565b956020850196875260028101546040860152015416151591015260005b82518051821015612b9a576001600160a01b0390612b79908390612aaa565b51166001600160a01b03831614612b9257600101612b5a565b505050600190565b50505050600090565b818110612bae575050565b60008155600101612ba3565b91909182516001600160401b0381116103a857612bd782546127f9565b601f8111612c7d575b506020601f8211600114612c1b5781929394600092612c10575b50508160011b916000199060031b1c1916179055565b015190503880612bfa565b601f1982169083600052806000209160005b818110612c6557509583600195969710612c4c575b505050811b019055565b015160001960f88460031b161c19169055388080612c42565b9192602060018192868b015181550194019201612c2d565b612caa90836000526020600020601f840160051c81019160208510612cb0575b601f0160051c0190612ba3565b38612be0565b9091508190612c9d565b8054600160401b8110156103a857612cd7916001820181556127cb565b9190916103925761286c91612bba565b91908110156127e35760051b0190565b91908201809211610dca57565b600260005414612d15576002600055565b633ee5aeb560e01b60005260046000fd5b601436101580612d4d575b15612d4957601319360136811161014d573560601c90565b3390565b50337f00000000000000000000000000000000000000000000000000000000000000006001600160a01b031614612d3156fea2646970667358221220e7b3e520de742ce604c7edaae73a819a0eaee47564429836b55c9c5f3f40ce3964736f6c634300081b0033",
  "linkReferences": {},
  "deployedLinkReferences": {}
}