{
  "_format": "hh-sol-artifact-1",
  "contractName": "ExpenseManager",
  "sourceName": "contracts/ExpenseManager.sol",
  "abi": [
    {
      "inputs": [
        {
          "internalType": "address",
          "name": "trustedForwarder",
          "type": "address"
        }
      ],
      "stateMutability": "nonpayable",
      "type": "constructor"
    },
    {
      "inputs": [],
      "name": "ReentrancyGuardReentrantCall",
      "type": "error"
    },
    {
      "anonymous": false,
      "inputs": [
        {
          "indexed": true,
          "internalType": "string",
          "name": "groupId",
          "type": "string"
        },
        {
          "indexed": true,
          "internalType": "address",
          "name": "from",
          "type": "address"
        },
        {
          "indexed": true,
          "internalType": "address",
          "name": "to",
          "type": "address"
        },
        {
          "indexed": false,
          "internalType": "uint256",
          "name": "newAmount",
          "type": "uint256"
        }
      ],
      "name": "DebtUpdated",
      "type": "event"
    },
    {
      "anonymous": false,
      "inputs": [
        {
          "indexed": true,
          "internalType": "uint256",
          "name": "expenseId",
          "type": "uint256"
        },
        {
          "indexed": true,
          "internalType": "string",
          "name": "groupId",
          "type": "string"
        },
        {
          "indexed": true,
          "internalType": "address",
          "name": "payer",
          "type": "address"
        },
        {
          "indexed": false,
          "internalType": "uint256",
          "name": "totalAmount",
          "type": "uint256"
        },
        {
          "indexed": false,
          "internalType": "uint256",
          "name": "perPersonAmount",
          "type": "uint256"
        },
        {
          "indexed": false,
          "internalType": "string",
          "name": "currency",
          "type": "string"
        },
        {
          "indexed": false,
          "internalType": "string",
          "name": "ipfsHash",
          "type": "string"
        },
        {
          "indexed": false,
          "internalType": "uint256",
          "name": "timestamp",
          "type": "uint256"
        }
      ],
      "name": "ExpenseAdded",
      "type": "event"
    },
    {
      "anonymous": false,
      "inputs": [
        {
          "indexed": true,
          "internalType": "string",
          "name": "groupId",
          "type": "string"
        },
        {
          "indexed": false,
          "internalType": "address[]",
          "name": "members",
          "type": "address[]"
        },
        {
          "indexed": false,
          "internalType": "uint256",
          "name": "timestamp",
          "type": "uint256"
        }
      ],
      "name": "GroupCreated",
      "type": "event"
    },
    {
      "anonymous": false,
      "inputs": [
        {
          "indexed": true,
          "internalType": "string",
          "name": "groupId",
          "type": "string"
        },
        {
          "indexed": false,
          "internalType": "address",
          "name": "member",
          "type": "address"
        },
        {
          "indexed": false,
          "internalType": "uint256",
          "name": "timestamp",
          "type": "uint256"
        }
      ],
      "name": "MemberAdded",
      "type": "event"
    },
    {
      "anonymous": false,
      "inputs": [
        {
          "indexed": true,
          "internalType": "uint256",
          "name": "paymentId",
          "type": "uint256"
        },
        {
          "indexed": true,
          "internalType": "uint256",
          "name": "expenseId",
          "type": "uint256"
        },
        {
          "indexed": true,
          "internalType": "address",
          "name": "from",
          "type": "address"
        },
        {
          "indexed": false,
          "internalType": "address",
          "name": "to",
          "type": "address"
        },
        {
          "indexed": false,
          "internalType": "uint256",
          "name": "amount",
          "type": "uint256"
        },
        {
          "indexed": false,
          "internalType": "bool",
          "name": "gasless",
          "type": "bool"
        },
        {
          "indexed": false,
          "internalType": "uint256",
          "name": "timestamp",
          "type": "uint256"
        }
      ],
      "name": "PaymentMarked",
      "type": "event"
    },
    {
      "inputs": [
        {
          "internalType": "string",
          "name": "groupId",
          "type": "string"
        },
        {
          "internalType": "address",
          "name": "payer",
          "type": "address"
        },
        {
          "internalType": "string",
          "name": "merchant",
          "type": "string"
        },
        {
          "internalType": "uint256",
          "name": "totalAmount",
          "type": "uint256"
        },
        {
          "internalType": "uint256",
          "name": "perPersonAmount",
          "type": "uint256"
        },
        {
          "internalType": "string",
          "name": "currency",
          "type": "string"
        },
        {
          "internalType": "string",
          "name": "ipfsHash",
          "type": "string"
        },
        {
          "internalType": "string",
          "name": "metadata",
          "type": "string"
        }
      ],
      "name": "addExpense",
      "outputs": [],
      "stateMutability": "nonpayable",
      "type": "function"
    },
    {
      "inputs": [
        {
          "internalType": "string",
          "name": "groupId",
          "type": "string"
        },
        {
          "internalType": "address",
          "name": "newMember",
          "type": "address"
        }
      ],
      "name": "addMember",
      "outputs": [],
      "stateMutability": "nonpayable",
      "type": "function"
    },
    {
      "inputs": [
        {
          "internalType": "string",
          "name": "groupId",
          "type": "string"
        },
        {
          "internalType": "address[]",
          "name": "members",
          "type": "address[]"
        }
      ],
      "name": "createGroup",
      "outputs": [],
      "stateMutability": "nonpayable",
      "type": "function"
    },
    {
      "inputs": [
        {
          "internalType": "string",
          "name": "",
          "type": "string"
        },
        {
          "internalType": "address",
          "name": "",
          "type": "address"
        },
        {
          "internalType": "address",
          "name": "",
          "type": "address"
        }
      ],
      "name": "debts",
      "outputs": [
        {
          "internalType": "uint256",
          "name": "",
          "type": "uint256"
        }
      ],
      "stateMutability": "view",
      "type": "function"
    },
    {
      "inputs": [],
      "name": "expenseCounter",
      "outputs": [
        {
          "internalType": "uint256",
          "name": "",
          "type": "uint256"
        }
      ],
      "stateMutability": "view",
      "type": "function"
    },
    {
      "inputs": [
        {
          "internalType": "uint256",
          "name": "",
          "type": "uint256"
        }
      ],
      "name": "expenses",
      "outputs": [
        {
          "internalType": "uint256",
          "name": "id",
          "type": "uint256"
        },
        {
          "internalType": "string",
          "name": "groupId",
          "type": "string"
        },
        {
          "internalType": "address",
          "name": "payer",
          "type": "address"
        },
        {
          "internalType": "string",
          "name": "merchant",
          "type": "string"
        },
        {
          "internalType": "uint256",
          "name": "totalAmount",
          "type": "uint256"
        },
        {
          "internalType": "uint256",
          "name": "perPersonAmount",
          "type": "uint256"
        },
        {
          "internalType": "string",
          "name": "currency",
          "type": "string"
        },
        {
          "internalType": "string",
          "name": "ipfsHash",
          "type": "string"
        },
        {
          "internalType": "uint256",
          "name": "timestamp",
          "type": "uint256"
        },
        {
          "internalType": "string",
          "name": "metadata",
          "type": "string"
        }
      ],
      "stateMutability": "view",
      "type": "function"
    },
    {
      "inputs": [
        {
          "internalType": "string",
          "name": "groupId",
          "type": "string"
        },
        {
          "internalType": "address",
          "name": "debtor",
          "type": "address"
        },
        {
          "internalType": "address",
          "name": "creditor",
          "type": "address"
        }
      ],
      "name": "getDebt",
      "outputs": [
        {
          "internalType": "uint256",
          "name": "",
          "type": "uint256"
        }
      ],
      "stateMutability": "view",
      "type": "function"
    },
    {
      "inputs": [
        {
          "internalType": "uint256",
          "name": "expenseId",
          "type": "uint256"
        }
      ],
      "name": "getExpense",
      "outputs": [
        {
          "components": [
            {
              "internalType": "uint256",
              "name": "id",
              "type": "uint256"
            },
            {
              "internalType": "string",
              "name": "groupId",
              "type": "string"
            },
            {
              "internalType": "address",
              "name": "payer",
              "type": "address"
            },
            {
              "internalType": "string",
              "name": "merchant",
              "type": "string"
            },
            {
              "internalType": "uint256",
              "name": "totalAmount",
              "type": "uint256"
            },
            {
              "internalType": "uint256",
              "name": "perPersonAmount",
              "type": "uint256"
            },
            {
              "internalType": "string",
              "name": "currency",
              "type": "string"
            },
            {
              "internalType": "string",
              "name": "ipfsHash",
              "type": "string"
            },
            {
              "internalType": "uint256",
              "name": "timestamp",
              "type": "uint256"
            },
            {
              "internalType": "address[]",
              "name": "participants",
              "type": "address[]"
            },
            {
              "internalType": "string",
              "name": "metadata",
              "type": "string"
            }
          ],
          "internalType": "struct ExpenseManager.Expense",
          "name": "",
          "type": "tuple"
        }
      ],
      "stateMutability": "view",
      "type": "function"
    },
    {
      "inputs": [],
      "name": "getGroupCount",
      "outputs": [
        {
          "internalType": "uint256",
          "name": "",
          "type": "uint256"
        }
      ],
      "stateMutability": "view",
      "type": "function"
    },
    {
      "inputs": [
        {
          "internalType": "string",
          "name": "groupId",
          "type": "string"
        }
      ],
      "name": "getGroupExpenses",
      "outputs": [
        {
          "internalType": "uint256[]",
          "name": "",
          "type": "uint256[]"
        }
      ],
      "stateMutability": "view",
      "type": "function"
    },
    {
      "inputs": [
        {
          "internalType": "string",
          "name": "groupId",
          "type": "string"
        }
      ],
      "name": "getGroupMembers",
      "outputs": [
        {
          "internalType": "address[]",
          "name": "",
          "type": "address[]"
        }
      ],
      "stateMutability": "view",
      "type": "function"
    },
    {
      "inputs": [
        {
          "internalType": "string",
          "name": "groupId",
          "type": "string"
        },
        {
          "internalType": "address",
          "name": "user",
          "type": "address"
        }
      ],
      "name": "getUserCredits",
      "outputs": [
        {
          "internalType": "address[]",
          "name": "debtors",
          "type": "address[]"
        },
        {
          "internalType": "uint256[]",
          "name": "amounts",
          "type": "uint256[]"
        }
      ],
      "stateMutability": "view",
      "type": "function"
    },
    {
      "inputs": [
        {
          "internalType": "string",
          "name": "groupId",
          "type": "string"
        },
        {
          "internalType": "address",
          "name": "user",
          "type": "address"
        }
      ],
      "name": "getUserDebts",
      "outputs": [
        {
          "internalType": "address[]",
          "name": "creditors",
          "type": "address[]"
        },
        {
          "internalType": "uint256[]",
          "name": "amounts",
          "type": "uint256[]"
        }
      ],
      "stateMutability": "view",
      "type": "function"
    },
    {
      "inputs": [
        {
          "internalType": "address",
          "name": "user",
          "type": "address"
        }
      ],
      "name": "getUserGroups",
      "outputs": [
        {
          "internalType": "string[]",
          "name": "",
          "type": "string[]"
        }
      ],
      "stateMutability": "view",
      "type": "function"
    },
    {
      "inputs": [
        {
          "internalType": "string",
          "name": "",
          "type": "string"
        },
        {
          "internalType": "uint256",
          "name": "",
          "type": "uint256"
        }
      ],
      "name": "groupExpenses",
      "outputs": [
        {
          "internalType": "uint256",
          "name": "",
          "type": "uint256"
        }
      ],
      "stateMutability": "view",
      "type": "function"
    },
    {
      "inputs": [
        {
          "internalType": "uint256",
          "name": "",
          "type": "uint256"
        }
      ],
      "name": "groupIds",
      "outputs": [
        {
          "internalType": "string",
          "name": "",
          "type": "string"
        }
      ],
      "stateMutability": "view",
      "type": "function"
    },
    {
      "inputs": [
        {
          "internalType": "string",
          "name": "",
          "type": "string"
        }
      ],
      "name": "groups",
      "outputs": [
        {
          "internalType": "string",
          "name": "groupId",
          "type": "string"
        },
        {
          "internalType": "uint256",
          "name": "createdAt",
          "type": "uint256"
        },
        {
          "internalType": "bool",
          "name": "exists",
          "type": "bool"
        }
      ],
      "stateMutability": "view",
      "type": "function"
    },
    {
      "inputs": [
        {
          "internalType": "string",
          "name": "groupId",
          "type": "string"
        },
        {
          "internalType": "address",
          "name": "user",
          "type": "address"
        }
      ],
      "name": "isGroupMember",
      "outputs": [
        {
          "internalType": "bool",
          "name": "",
          "type": "bool"
        }
      ],
      "stateMutability": "view",
      "type": "function"
    },
    {
      "inputs": [
        {
          "internalType": "address",
          "name": "forwarder",
          "type": "address"
        }
      ],
      "name": "isTrustedForwarder",
      "outputs": [
        {
          "internalType": "bool",
          "name": "",
          "type": "bool"
        }
      ],
      "stateMutability": "view",
      "type": "function"
    },
    {
      "inputs": [
        {
          "internalType": "uint256",
          "name": "expenseId",
          "type": "uint256"
        },
        {
          "internalType": "address",
          "name": "creditor",
          "type": "address"
        }
      ],
      "name": "markAsPaid",
      "outputs": [],
      "stateMutability": "nonpayable",
      "type": "function"
    },
    {
      "inputs": [],
      "name": "paymentCounter",
      "outputs": [
        {
          "internalType": "uint256",
          "name": "",
          "type": "uint256"
        }
      ],
      "stateMutability": "view",
      "type": "function"
    },
    {
      "inputs": [
        {
          "internalType": "uint256",
          "name": "",
          "type": "uint256"
        }
      ],
      "name": "payments",
      "outputs": [
        {
          "internalType": "uint256",
          "name": "expenseId",
          "type": "uint256"
        },
        {
          "internalType": "address",
          "name": "from",
          "type": "address"
        },
        {
          "internalType": "address",
          "name": "to",
          "type": "address"
        },
        {
          "internalType": "uint256",
          "name": "amount",
          "type": "uint256"
        },
        {
          "internalType": "uint256",
          "name": "timestamp",
          "type": "uint256"
        },
        {
          "internalType": "bool",
          "name": "gasless",
          "type": "bool"
        }
      ],
      "stateMutability": "view",
      "type": "function"
    },
    {
      "inputs": [],
      "name": "trustedForwarder",
      "outputs": [
        {
          "internalType": "address",
          "name": "",
          "type": "address"
        }
      ],
      "stateMutability": "view",
      "type": "function"
    },
    {
      "inputs": [
        {
          "internalType": "address",
          "name": "",
          "type": "address"
        },
        {
          "internalType": "uint256",
          "name": "",
          "type": "uint256"
        }
      ],
      "name": "userGroups",
      "outputs": [
        {
          "internalType": "string",
          "name": "",
          "type": "string"
        }
      ],
      "stateMutability": "view",
      "type": "function"
    }
  ],
  "bytecode": "0x60a03461008757601f6127ba38819003918201601f19168301916001600160401b0383118484101761008c5780849260209460405283398101031261008757516001600160a01b03811681036100875760805260016000556001600455600160075560405161271790816100a38239608051818181611084015281816114a701526126730152f35b600080fd5b634e487b7160e01b600052604160045260246000fdfe6080604052600436101561001257600080fd5b60003560e01c80630245d03614611b005780630275020114611a7057806306545a9314611a5257806307edffe01461189d57806315b3671d1461187a5780633da04e4a146117915780634093d7a11461171f57806340be33e8146116e857806345e39705146115a65780634bd4622c146114db578063572b6c05146114875780635768a3151461141f57806360a9e097146113b85780636b52230b14611327578063735e5db6146110d157806376840b60146110b35780637da0a8771461106e57806387d8178914610ff65780638a6120a61461087d57806393537dd814610803578063af4afe0a14610700578063cdc88e02146104f5578063cfbe575c146101475763ddcad2ae1461012457600080fd5b34610142576000366003190112610142576020600454604051908152f35b600080fd5b34610142576040366003190112610142576004356001600160401b03811161014257610177903690600401611f9f565b602435906001600160401b03821161014257366023830112156101425781600401356101a281612286565b926101b06040519485611f7e565b8184526024602085019260051b8201019036821161014257602401915b8183106104d55750505060405160ff6003835192602081818701956101f38183896120cf565b81016001815203019020015416610499578251156104485761021c610216612648565b846126a1565b15610403576040519061022e82611f63565b8282526020820184815260408301904282526102746102626020606087019560018752604051809381928b519283916120cf565b810160018152030190209451856124f9565b5180519060018501906001600160401b0383116103b357600160401b83116103b35760209082548484558085106103e6575b500190600052602060002060005b8381106103c95788886102e18960038a8a51600284015551151591019060ff801983541691151516179055565b600254600160401b8110156103b35780600161030292016002556002612117565b61039d5781610310916124f9565b60005b825181101561034f576001906001600160a01b0361033182866123e9565b511660005260096020526103498360406000206125f9565b01610313565b5061039261037d7f3599f24e25095535210b1b8ca48fba46c30fcd53bdb6cef3a68a38a4ad26533792612386565b92604051918291604083526040830190611ff5565b4260208301520390a2005b634e487b7160e01b600052600060045260246000fd5b634e487b7160e01b600052604160045260246000fd5b82516001600160a01b0316818301556020909201916001016102b4565b6103fd9084600052858460002091820191016124e2565b896102a6565b60405162461bcd60e51b815260206004820152601860248201527f43726561746f72206d7573742062652061206d656d62657200000000000000006044820152606490fd5b60405162461bcd60e51b815260206004820152602360248201527f47726f7570206d7573742068617665206174206c65617374206f6e65206d656d6044820152623132b960e91b6064820152608490fd5b60405162461bcd60e51b815260206004820152601460248201527347726f757020616c72656164792065786973747360601b6044820152606490fd5b82356001600160a01b0381168103610142578152602092830192016101cd565b346101425761050336612032565b9060405161053560ff60038451936020818188019661052381838a6120cf565b810160018152030190200154166123a6565b60405160208184516105488183876120cf565b8101600181520301902060405161055e81611f63565b6105678261217f565b8152606060ff600361057b600186016122e2565b946020850195865260028101546040860152015416151591015260009160005b82515181101561062157604080805160208189516105ba81838a6120cf565b8101600881520301902060009060018060a01b038a1682526020522060018060a01b036105e88487516123e9565b51166001600160a01b03166000908152602091909152205461060d575b60010161059b565b92610619600191612377565b939050610605565b509061063561062f846123fd565b936123fd565b9260009260005b8351518110156106ed5760408080516020818b5161065b81838a6120cf565b8101600881520301902060009060018060a01b038c1682526020522060018060a01b036106898488516123e9565b51166001600160a01b031660009081526020919091522054806106b0575b5060010161063c565b600191956106e691838060a01b036106c98989516123e9565b51166106d583886123e9565b526106e0828a6123e9565b52612377565b94906106a7565b604051806106fc8886836120a7565b0390f35b3461014257602036600319011261014257600435600052600360205260406000208054600182016107309061217f565b600283015490926001600160a01b039091169061074f6003820161217f565b60048201546005830154906107666006850161217f565b916107736007860161217f565b93600886015495600a016107869061217f565b96604051998a998a5260208a0161014090526101408a016107a6916120f2565b9060408a015288810360608a01526107bd916120f2565b91608088015260a087015285810360c08701526107d9916120f2565b84810360e08601526107ea916120f2565b906101008401528281036101208401526106fc916120f2565b34610142576040366003190112610142576004356001600160401b03811161014257610833903690600401611f9f565b61084f60206024359281604051938285809451938492016120cf565b8101600581520301902080548210156101425760209161086e91612117565b90549060031b1c604051908152f35b3461014257610100366003190112610142576004356001600160401b038111610142576108ae903690600401611f9f565b6108b6611f1b565b906044356001600160401b038111610142576108d6903690600401611f9f565b91606435926084359260a4356001600160401b038111610142576108fe903690600401611f9f565b9260c4356001600160401b0381116101425761091e903690600401611f9f565b60e4356001600160401b0381116101425761093d903690600401611f9f565b956040519584519680602087019861095681838c6120cf565b8101600181520360200190206003015460ff16610972906123a6565b61097a612648565b610984908661242f565b61098d90612336565b610995612626565b8815610fa5578115610f4f57855115610f1157825115610ed7576001600160a01b038416938415610e9a576109ca908661242f565b15610e55576004546109db81612377565b6004556001604051602081806109f58d8c519283916120cf565b81018481520301902001546000198101908111610d9357610a15906123fd565b996000978b896001610a3660208e5b8d6040519384928392519283916120cf565b8101848152030190200154811015610aec57908189610a758e9460018e6020604051809251610a6681838d6120cf565b81018481520301902001612117565b905460039190911b1c6001600160a01b031603610a9e575b610a36602060018093019394610a24565b9a610a3660206001610ae18f948f839684610a66878c610ac9956040519384928392519283916120cf565b848060a01b0391549060031b1c166106e082896123e9565b9e9350505050610a8d565b509996979598508a8a60405192610b0284611f47565b8584528b60208501918a835260408601908d8252606087019081526080870188815260a08801918c835260c08901938c855260e08a019586526101008a01964288526101208b019889526101408b01998a528c600052600360205260406000209a518b555160018b0190610b75916124f9565b5160028a0180546001600160a01b0319166001600160a01b039290921691909117905551610ba69060038a016124f9565b51600488015551600587015551610bc090600687016124f9565b51610bce90600786016124f9565b5160088401555180519060098401906001600160401b0383116103b357600160401b83116103b3576020908254848455808510610e38575b500190600052602060002060005b838110610e1b575050505090600a610c2e925191016124f9565b6040516020818751610c4181838c6120cf565b810160058152030190208054600160401b8110156103b357610c6891600182018155612117565b81549060031b9084821b91600019901b191617905560005b8951811015610da957604080805160208180610ca08d8d519283916120cf565b6008908201908152030190206001600160a01b03610cbe858f6123e9565b51169060009160018060a01b03168252602052206000908a825260205220908154868101809111610d935790915560019088876040808e610d2060208e6001600160a01b03610d0d8a866123e9565b51169685519384928392519283916120cf565b8101600881520301902090610d3b87898060a01b03926123e9565b511690600091888060a01b031682526020522060009084825260205220547fc247df220fd28f38c52084b08c97414ffcb3c5f5a3a6c1bbb17745bb3e8cfb0a6020610d858c612386565b92604051908152a401610c80565b634e487b7160e01b600052601160045260246000fd5b5086937fcc762af87a9e4b178c686ac9675008ff8324a12ceb2e2a23052e2186bb184c1491610e0b8a610dfd610dde8a612386565b976040519586958652602086015260a0604086015260a08501906120f2565b9083820360608501526120f2565b4260808301520390a46001600055005b82516001600160a01b031681830155602090920191600101610c14565b610e4f9084600052858460002091820191016124e2565b8f610c06565b60405162461bcd60e51b815260206004820152601c60248201527f5061796572206d75737420626520612067726f7570206d656d626572000000006044820152606490fd5b60405162461bcd60e51b8152602060048201526015602482015274496e76616c6964207061796572206164647265737360581b6044820152606490fd5b60405162461bcd60e51b815260206004820152601260248201527112541194c81a185cda081c995c5d5a5c995960721b6044820152606490fd5b60405162461bcd60e51b815260206004820152601660248201527513595c98da185b9d081b985b59481c995c5d5a5c995960521b6044820152606490fd5b60405162461bcd60e51b815260206004820152602860248201527f50657220706572736f6e20616d6f756e74206d75737420626520677265617465604482015267072207468616e20360c41b6064820152608490fd5b60405162461bcd60e51b815260206004820152602360248201527f546f74616c20616d6f756e74206d75737420626520677265617465722074686160448201526206e20360ec1b6064820152608490fd5b3461014257602036600319011261014257600435600052600660205260c0604060002080549060018060a01b036001820154169060018060a01b0360028201541660038201549060ff6005600485015494015416936040519586526020860152604085015260608401526080830152151560a0820152f35b34610142576000366003190112610142576040517f00000000000000000000000000000000000000000000000000000000000000006001600160a01b03168152602090f35b34610142576000366003190112610142576020600754604051908152f35b34610142576020366003190112610142576004356040516110f181611f47565b60008152602081016060905260408101600090526060810160609052608081016000905260a081016000905260c081016060905260e0810160609052610100810160009052610120810160609052610140016060905280600052600360205280604060002054146111619061229d565b6000526003602052604060002060405161117a81611f47565b8154815261118a6001830161217f565b6020820190815260028301546001600160a01b031660408301908152926111b36003820161217f565b9360608401948552600482015460808501908152600583015460a08601908152600684016111e09061217f565b60c08701908152906111f46007860161217f565b9360e088019485526008860154986101008901998a5260098701611217906122e2565b966101208a01978852600a0161122c9061217f565b976101408a019889526040519960208b525160208b01525160408a0161016090526101808a0161125b916120f2565b91516001600160a01b031660608a015251888203601f190160808a015261128291906120f2565b925160a08801525160c087015251858203601f190160e08701526112a691906120f2565b9051848203601f19016101008601526112bf91906120f2565b93516101208401525192601f1983820301610140840152835190818152602001936020019060005b8181106113085784806106fc888751601f19848303016101608501526120f2565b82516001600160a01b03168652602095860195909201916001016112e7565b34610142576020366003190112610142576004356001600160401b03811161014257611372602061135f6113a7933690600401611f9f565b81604051938285809451938492016120cf565b810160018152030190206113858161217f565b9060ff60036002830154920154166040519384936060855260608501906120f2565b916020840152151560408301520390f35b34610142576040366003190112610142576113d1611f31565b6001600160a01b031660009081526009602052604090208054602435908110156101425761140561140b916106fc93612117565b90612223565b6040519182916020835260208301906120f2565b346101425761144a602061143236612231565b939183604094929451938285809451938492016120cf565b810160088152030190209060018060a01b031660005260205260406000209060018060a01b03166000526020526020604060002054604051908152f35b346101425760203660031901126101425760206114a2611f31565b6040517f00000000000000000000000000000000000000000000000000000000000000006001600160a01b039081169216919091148152f35b34610142576020366003190112610142576004356001600160401b038111610142576020611510611540923690600401611f9f565b6040519061152f60ff600383519486818187019761052381838b6120cf565b6040519384928392519283916120cf565b8101600581520301902060405190816020825491828152019160005260206000209060005b818110611590576106fc8561157c81870382611f7e565b604051918291602083526020830190612073565b8254845260209093019260019283019201611565565b34610142576115b436612032565b906040516115d460ff60038451936020818188019661052381838a6120cf565b6115ed6115e86115e2612648565b8461242f565b612336565b6115f7838361242f565b6116b05761161460206001926040518093819287519283916120cf565b810184815203019020018054600160401b8110156103b3577f51cfabebb274a439fc348592eb455cc20eb9d20c36329f87592dadc611a1dff3926116638260409460016116a195018155612117565b81546001600160a01b0397881660039290921b82811b98901b19169690961790556000858152600960205283902061169c9082906125f9565b612386565b928151908152426020820152a2005b60405162461bcd60e51b815260206004820152601060248201526f20b63932b0b23c90309036b2b6b132b960811b6044820152606490fd5b346101425761144a60206116fb36612231565b93916040939193519061152f60ff600383519486818187019761052381838b6120cf565b346101425760203660031901126101425760043560025481101561014257600060025482101561177d57600290527f405787fa12a823e0f2b7631cc41b3ba8828b3321ca811111fa75cd3aa3bb5ace0160006106fc61140b8361217f565b634e487b7160e01b81526032600452602490fd5b34610142576020366003190112610142576001600160a01b036117b2611f31565b16600052600960205260406000208054906117cc82612286565b916117da6040519384611f7e565b80835260208301809260005260206000206000915b83831061185d57848660405191829160208301906020845251809152604083019060408160051b85010192916000905b82821061182e57505050500390f35b9193600191939550602061184d8192603f198a820301865288516120f2565b960192019201859493919261181f565b60016020819261186c8561217f565b8152019201920191906117ef565b3461014257602061189361188d36612032565b9061242f565b6040519015158152f35b34610142576118ab36612032565b906040516118cb60ff60038451936020818188019661052381838a6120cf565b60405160208184516118de8183876120cf565b810160018152030190206040516118f481611f63565b6118fd8261217f565b8152606060ff6003611911600186016122e2565b946020850195865260028101546040860152015416151591015260009160005b8251518110156119b0576040808051602081895161195081838a6120cf565b8101600881520301902060018060a01b0361196c8588516123e9565b516001600160a01b039116811660009081526020928352928320908a1683529052205461199c575b600101611931565b926119a8600191612377565b939050611994565b50906119be61062f846123fd565b9260009260005b8351518110156106ed5760408080516020818b516119e481838a6120cf565b8101600881520301902060018060a01b03611a008589516123e9565b516001600160a01b039116811660009081526020928352928320908c1683529052205480611a32575b506001016119c5565b60019195611a4b91838060a01b036106c98989516123e9565b9490611a29565b34610142576000366003190112610142576020600254604051908152f35b34610142576020366003190112610142576004356001600160401b03811161014257611aec6001611add6020611aad6106fc953690600401611f9f565b6040519061152f60ff6003835194868181870197611acc81838b6120cf565b81018b8152030190200154166123a6565b810184815203019020016122e2565b604051918291602083526020830190611ff5565b3461014257604036600319011261014257600435611b1c611f1b565b90611b25612626565b806000526003602052611b3e816040600020541461229d565b806000526003602052604060002060405190611b5982611f47565b80548252611b696001820161217f565b6020830190815260028201546001600160a01b0316604084015291611b906003830161217f565b606082015260048201546080820152610140611bf9600a60058501549460a08501958652611bc06006820161217f565b60c0860152611bd16007820161217f565b60e08601526008810154610100860152611bed600982016122e2565b6101208601520161217f565b910152611c04612648565b915191611c146115e8828561242f565b6040519183519260208181870195611c2d8183896120cf565b8101600881520301902060018060a01b038316600052602052604060002060018060a01b03871660005260205260406000205415611ed65751936040516020818651611c7a8183896120cf565b8101600881520301902060018060a01b038316600052602052604060002060018060a01b0387166000526020528460406000205410611e9a576040516020818651611cc68183896120cf565b8101600881520301902060018060a01b038316600052602052604060002060018060a01b0387166000526020526040600020805490868203918211610d935755600754611d1281612377565b600755611d1d612648565b60405196906001600160a01b031632141560c088016001600160401b038111898210176103b35760409081528489526001600160a01b039586166020808b018281529b88168b840181815260608d018781524260808f0190815260a08f0188815260008b81526006909652969094209d518e559d5160018e018054918c166001600160a01b0319928316179055905160028e01805491909b169116179098559a5160038b0155995160048a0155516005909801805460ff191698151560ff1698909817909755929695869390604051918983526020830152604082015242606082015260807fc2fbb7f1ca94ac6e3e6a91e666986ddcf7fa936faa9ef0aa29f4403f98af09ed91a460405180809284518092611e38926120cf565b8101600881520360200190208260005260205260406000208360005260205260406000205490611e6790612386565b9060405190815260207fc247df220fd28f38c52084b08c97414ffcb3c5f5a3a6c1bbb17745bb3e8cfb0a91a46001600055005b60405162461bcd60e51b8152602060048201526014602482015273088cac4e840c2dadeeadce840dad2e6dac2e8c6d60631b6044820152606490fd5b60405162461bcd60e51b815260206004820152601860248201527f4e6f206465627420746f2074686973206372656469746f7200000000000000006044820152606490fd5b602435906001600160a01b038216820361014257565b600435906001600160a01b038216820361014257565b61016081019081106001600160401b038211176103b357604052565b608081019081106001600160401b038211176103b357604052565b90601f801991011681019081106001600160401b038211176103b357604052565b81601f82011215610142578035906001600160401b0382116103b35760405192611fd3601f8401601f191660200185611f7e565b8284526020838301011161014257816000926020809301838601378301015290565b906020808351928381520192019060005b8181106120135750505090565b82516001600160a01b0316845260209384019390920191600101612006565b604060031982011261014257600435906001600160401b0382116101425761205c91600401611f9f565b906024356001600160a01b03811681036101425790565b906020808351928381520192019060005b8181106120915750505090565b8251845260209384019390920191600101612084565b90916120be6120cc93604084526040840190611ff5565b916020818403910152612073565b90565b60005b8381106120e25750506000910152565b81810151838201526020016120d2565b9060209161210b815180928185528580860191016120cf565b601f01601f1916010190565b805482101561212f5760005260206000200190600090565b634e487b7160e01b600052603260045260246000fd5b90600182811c92168015612175575b602083101461215f57565b634e487b7160e01b600052602260045260246000fd5b91607f1691612154565b906040519182600082549261219384612145565b808452936001811690811561220157506001146121ba575b506121b892500383611f7e565b565b90506000929192526020600020906000915b8183106121e55750509060206121b892820101386121ab565b60209193508060019154838589010152019101909184926121cc565b9050602092506121b894915060ff191682840152151560051b820101386121ab565b9061039d576120cc9061217f565b606060031982011261014257600435906001600160401b0382116101425761225b91600401611f9f565b906024356001600160a01b038116810361014257906044356001600160a01b03811681036101425790565b6001600160401b0381116103b35760051b60200190565b156122a457565b60405162461bcd60e51b8152602060048201526016602482015275115e1c195b9cd948191bd95cc81b9bdd08195e1a5cdd60521b6044820152606490fd5b906040519182815491828252602082019060005260206000209260005b8181106123145750506121b892500383611f7e565b84546001600160a01b03168352600194850194879450602090930192016122ff565b1561233d57565b60405162461bcd60e51b81526020600482015260126024820152712737ba10309033b937bab81036b2b6b132b960711b6044820152606490fd5b6000198114610d935760010190565b61239e906020604051928284809451938492016120cf565b810103902090565b156123ad57565b60405162461bcd60e51b815260206004820152601460248201527311dc9bdd5c08191bd95cc81b9bdd08195e1a5cdd60621b6044820152606490fd5b805182101561212f5760209160051b010190565b9061240782612286565b6124146040519182611f7e565b8281528092612425601f1991612286565b0190602036910137565b60206124489181604051938285809451938492016120cf565b810160018152030190209060405161245f81611f63565b6124688361217f565b8152606060ff600361247c600187016122e2565b956020850196875260028101546040860152015416151591015260005b825180518210156124d9576001600160a01b03906124b89083906123e9565b51166001600160a01b038316146124d157600101612499565b505050600190565b50505050600090565b8181106124ed575050565b600081556001016124e2565b91909182516001600160401b0381116103b3576125168254612145565b601f81116125bc575b506020601f821160011461255a578192939460009261254f575b50508160011b916000199060031b1c1916179055565b015190503880612539565b601f1982169083600052806000209160005b8181106125a45750958360019596971061258b575b505050811b019055565b015160001960f88460031b161c19169055388080612581565b9192602060018192868b01518155019401920161256c565b6125e990836000526020600020601f840160051c810191602085106125ef575b601f0160051c01906124e2565b3861251f565b90915081906125dc565b8054600160401b8110156103b35761261691600182018155612117565b91909161039d576121b8916124f9565b600260005414612637576002600055565b633ee5aeb560e01b60005260046000fd5b60143610158061266f575b1561266b576013193601368111610142573560601c90565b3390565b50337f00000000000000000000000000000000000000000000000000000000000000006001600160a01b031614612653565b9060005b82518110156126d9576001600160a01b036126c082856123e9565b51166001600160a01b038316146124d1576001016126a5565b50505060009056fea264697066735822122012732701bde86d35fe1ed3c8362d31b26e58991e5a43cd72d7085e4fa99ec6ce64736f6c634300081b0033",
  "linkReferences": {},
  "deployedLinkReferences": {}
}