{
  "_format": "hh-sol-artifact-1",
  "contractName": "ExpenseManager",
  "sourceName": "contracts/ExpenseManager.sol",
  "abi": [
    {
      "inputs": [
        {
          "internalType": "address",
          "name": "trustedForwarder",
          "type": "address"
        }
      ],
      "stateMutability": "nonpayable",
      "type": "constructor"
    },
    {
      "inputs": [],
      "name": "ReentrancyGuardReentrantCall",
      "type": "error"
    },
    {
      "anonymous": false,
      "inputs": [
        {
          "indexed": true,
          "internalType": "string",
          "name": "groupId",
          "type": "string"
        },
        {
          "indexed": true,
          "internalType": "address",
          "name": "from",
          "type": "address"
        },
        {
          "indexed": true,
          "internalType": "address",
          "name": "to",
          "type": "address"
        },
        {
          "indexed": false,
          "internalType": "uint256",
          "name": "newAmount",
          "type": "uint256"
        }
      ],
      "name": "DebtUpdated",
      "type": "event"
    },
    {
      "anonymous": false,
      "inputs": [
        {
          "indexed": true,
          "internalType": "uint256",
          "name": "expenseId",
          "type": "uint256"
        },
        {
          "indexed": true,
          "internalType": "string",
          "name": "groupId",
          "type": "string"
        },
        {
          "indexed": true,
          "internalType": "address",
          "name": "payer",
          "type": "address"
        },
        {
          "indexed": false,
          "internalType": "uint256",
          "name": "totalAmount",
          "type": "uint256"
        },
        {
          "indexed": false,
          "internalType": "uint256",
          "name": "perPersonAmount",
          "type": "uint256"
        },
        {
          "indexed": false,
          "internalType": "string",
          "name": "currency",
          "type": "string"
        },
        {
          "indexed": false,
          "internalType": "string",
          "name": "ipfsHash",
          "type": "string"
        },
        {
          "indexed": false,
          "internalType": "uint256",
          "name": "timestamp",
          "type": "uint256"
        }
      ],
      "name": "ExpenseAdded",
      "type": "event"
    },
    {
      "anonymous": false,
      "inputs": [
        {
          "indexed": true,
          "internalType": "string",
          "name": "groupId",
          "type": "string"
        },
        {
          "indexed": false,
          "internalType": "address[]",
          "name": "members",
          "type": "address[]"
        },
        {
          "indexed": false,
          "internalType": "uint256",
          "name": "timestamp",
          "type": "uint256"
        }
      ],
      "name": "GroupCreated",
      "type": "event"
    },
    {
      "anonymous": false,
      "inputs": [
        {
          "indexed": true,
          "internalType": "string",
          "name": "groupId",
          "type": "string"
        },
        {
          "indexed": false,
          "internalType": "address",
          "name": "member",
          "type": "address"
        },
        {
          "indexed": false,
          "internalType": "uint256",
          "name": "timestamp",
          "type": "uint256"
        }
      ],
      "name": "MemberAdded",
      "type": "event"
    },
    {
      "anonymous": false,
      "inputs": [
        {
          "indexed": true,
          "internalType": "uint256",
          "name": "paymentId",
          "type": "uint256"
        },
        {
          "indexed": true,
          "internalType": "uint256",
          "name": "expenseId",
          "type": "uint256"
        },
        {
          "indexed": true,
          "internalType": "address",
          "name": "from",
          "type": "address"
        },
        {
          "indexed": false,
          "internalType": "address",
          "name": "to",
          "type": "address"
        },
        {
          "indexed": false,
          "internalType": "uint256",
          "name": "amount",
          "type": "uint256"
        },
        {
          "indexed": false,
          "internalType": "bool",
          "name": "gasless",
          "type": "bool"
        },
        {
          "indexed": false,
          "internalType": "uint256",
          "name": "timestamp",
          "type": "uint256"
        }
      ],
      "name": "PaymentMarked",
      "type": "event"
    },
    {
      "inputs": [
        {
          "internalType": "string",
          "name": "groupId",
          "type": "string"
        },
        {
          "internalType": "string",
          "name": "merchant",
          "type": "string"
        },
        {
          "internalType": "uint256",
          "name": "totalAmount",
          "type": "uint256"
        },
        {
          "internalType": "uint256",
          "name": "perPersonAmount",
          "type": "uint256"
        },
        {
          "internalType": "string",
          "name": "currency",
          "type": "string"
        },
        {
          "internalType": "string",
          "name": "ipfsHash",
          "type": "string"
        },
        {
          "internalType": "string",
          "name": "metadata",
          "type": "string"
        }
      ],
      "name": "addExpense",
      "outputs": [],
      "stateMutability": "nonpayable",
      "type": "function"
    },
    {
      "inputs": [
        {
          "internalType": "string",
          "name": "groupId",
          "type": "string"
        },
        {
          "internalType": "address",
          "name": "newMember",
          "type": "address"
        }
      ],
      "name": "addMember",
      "outputs": [],
      "stateMutability": "nonpayable",
      "type": "function"
    },
    {
      "inputs": [
        {
          "internalType": "string",
          "name": "groupId",
          "type": "string"
        },
        {
          "internalType": "address[]",
          "name": "members",
          "type": "address[]"
        }
      ],
      "name": "createGroup",
      "outputs": [],
      "stateMutability": "nonpayable",
      "type": "function"
    },
    {
      "inputs": [
        {
          "internalType": "string",
          "name": "",
          "type": "string"
        },
        {
          "internalType": "address",
          "name": "",
          "type": "address"
        },
        {
          "internalType": "address",
          "name": "",
          "type": "address"
        }
      ],
      "name": "debts",
      "outputs": [
        {
          "internalType": "uint256",
          "name": "",
          "type": "uint256"
        }
      ],
      "stateMutability": "view",
      "type": "function"
    },
    {
      "inputs": [],
      "name": "expenseCounter",
      "outputs": [
        {
          "internalType": "uint256",
          "name": "",
          "type": "uint256"
        }
      ],
      "stateMutability": "view",
      "type": "function"
    },
    {
      "inputs": [
        {
          "internalType": "uint256",
          "name": "",
          "type": "uint256"
        }
      ],
      "name": "expenses",
      "outputs": [
        {
          "internalType": "uint256",
          "name": "id",
          "type": "uint256"
        },
        {
          "internalType": "string",
          "name": "groupId",
          "type": "string"
        },
        {
          "internalType": "address",
          "name": "payer",
          "type": "address"
        },
        {
          "internalType": "string",
          "name": "merchant",
          "type": "string"
        },
        {
          "internalType": "uint256",
          "name": "totalAmount",
          "type": "uint256"
        },
        {
          "internalType": "uint256",
          "name": "perPersonAmount",
          "type": "uint256"
        },
        {
          "internalType": "string",
          "name": "currency",
          "type": "string"
        },
        {
          "internalType": "string",
          "name": "ipfsHash",
          "type": "string"
        },
        {
          "internalType": "uint256",
          "name": "timestamp",
          "type": "uint256"
        },
        {
          "internalType": "string",
          "name": "metadata",
          "type": "string"
        }
      ],
      "stateMutability": "view",
      "type": "function"
    },
    {
      "inputs": [
        {
          "internalType": "string",
          "name": "groupId",
          "type": "string"
        },
        {
          "internalType": "address",
          "name": "debtor",
          "type": "address"
        },
        {
          "internalType": "address",
          "name": "creditor",
          "type": "address"
        }
      ],
      "name": "getDebt",
      "outputs": [
        {
          "internalType": "uint256",
          "name": "",
          "type": "uint256"
        }
      ],
      "stateMutability": "view",
      "type": "function"
    },
    {
      "inputs": [
        {
          "internalType": "uint256",
          "name": "expenseId",
          "type": "uint256"
        }
      ],
      "name": "getExpense",
      "outputs": [
        {
          "components": [
            {
              "internalType": "uint256",
              "name": "id",
              "type": "uint256"
            },
            {
              "internalType": "string",
              "name": "groupId",
              "type": "string"
            },
            {
              "internalType": "address",
              "name": "payer",
              "type": "address"
            },
            {
              "internalType": "string",
              "name": "merchant",
              "type": "string"
            },
            {
              "internalType": "uint256",
              "name": "totalAmount",
              "type": "uint256"
            },
            {
              "internalType": "uint256",
              "name": "perPersonAmount",
              "type": "uint256"
            },
            {
              "internalType": "string",
              "name": "currency",
              "type": "string"
            },
            {
              "internalType": "string",
              "name": "ipfsHash",
              "type": "string"
            },
            {
              "internalType": "uint256",
              "name": "timestamp",
              "type": "uint256"
            },
            {
              "internalType": "address[]",
              "name": "participants",
              "type": "address[]"
            },
            {
              "internalType": "string",
              "name": "metadata",
              "type": "string"
            }
          ],
          "internalType": "struct ExpenseManager.Expense",
          "name": "",
          "type": "tuple"
        }
      ],
      "stateMutability": "view",
      "type": "function"
    },
    {
      "inputs": [],
      "name": "getGroupCount",
      "outputs": [
        {
          "internalType": "uint256",
          "name": "",
          "type": "uint256"
        }
      ],
      "stateMutability": "view",
      "type": "function"
    },
    {
      "inputs": [
        {
          "internalType": "string",
          "name": "groupId",
          "type": "string"
        }
      ],
      "name": "getGroupExpenses",
      "outputs": [
        {
          "internalType": "uint256[]",
          "name": "",
          "type": "uint256[]"
        }
      ],
      "stateMutability": "view",
      "type": "function"
    },
    {
      "inputs": [
        {
          "internalType": "string",
          "name": "groupId",
          "type": "string"
        }
      ],
      "name": "getGroupMembers",
      "outputs": [
        {
          "internalType": "address[]",
          "name": "",
          "type": "address[]"
        }
      ],
      "stateMutability": "view",
      "type": "function"
    },
    {
      "inputs": [
        {
          "internalType": "string",
          "name": "groupId",
          "type": "string"
        },
        {
          "internalType": "address",
          "name": "user",
          "type": "address"
        }
      ],
      "name": "getUserCredits",
      "outputs": [
        {
          "internalType": "address[]",
          "name": "debtors",
          "type": "address[]"
        },
        {
          "internalType": "uint256[]",
          "name": "amounts",
          "type": "uint256[]"
        }
      ],
      "stateMutability": "view",
      "type": "function"
    },
    {
      "inputs": [
        {
          "internalType": "string",
          "name": "groupId",
          "type": "string"
        },
        {
          "internalType": "address",
          "name": "user",
          "type": "address"
        }
      ],
      "name": "getUserDebts",
      "outputs": [
        {
          "internalType": "address[]",
          "name": "creditors",
          "type": "address[]"
        },
        {
          "internalType": "uint256[]",
          "name": "amounts",
          "type": "uint256[]"
        }
      ],
      "stateMutability": "view",
      "type": "function"
    },
    {
      "inputs": [
        {
          "internalType": "address",
          "name": "user",
          "type": "address"
        }
      ],
      "name": "getUserGroups",
      "outputs": [
        {
          "internalType": "string[]",
          "name": "",
          "type": "string[]"
        }
      ],
      "stateMutability": "view",
      "type": "function"
    },
    {
      "inputs": [
        {
          "internalType": "string",
          "name": "",
          "type": "string"
        },
        {
          "internalType": "uint256",
          "name": "",
          "type": "uint256"
        }
      ],
      "name": "groupExpenses",
      "outputs": [
        {
          "internalType": "uint256",
          "name": "",
          "type": "uint256"
        }
      ],
      "stateMutability": "view",
      "type": "function"
    },
    {
      "inputs": [
        {
          "internalType": "uint256",
          "name": "",
          "type": "uint256"
        }
      ],
      "name": "groupIds",
      "outputs": [
        {
          "internalType": "string",
          "name": "",
          "type": "string"
        }
      ],
      "stateMutability": "view",
      "type": "function"
    },
    {
      "inputs": [
        {
          "internalType": "string",
          "name": "",
          "type": "string"
        }
      ],
      "name": "groups",
      "outputs": [
        {
          "internalType": "string",
          "name": "groupId",
          "type": "string"
        },
        {
          "internalType": "uint256",
          "name": "createdAt",
          "type": "uint256"
        },
        {
          "internalType": "bool",
          "name": "exists",
          "type": "bool"
        }
      ],
      "stateMutability": "view",
      "type": "function"
    },
    {
      "inputs": [
        {
          "internalType": "string",
          "name": "groupId",
          "type": "string"
        },
        {
          "internalType": "address",
          "name": "user",
          "type": "address"
        }
      ],
      "name": "isGroupMember",
      "outputs": [
        {
          "internalType": "bool",
          "name": "",
          "type": "bool"
        }
      ],
      "stateMutability": "view",
      "type": "function"
    },
    {
      "inputs": [
        {
          "internalType": "address",
          "name": "forwarder",
          "type": "address"
        }
      ],
      "name": "isTrustedForwarder",
      "outputs": [
        {
          "internalType": "bool",
          "name": "",
          "type": "bool"
        }
      ],
      "stateMutability": "view",
      "type": "function"
    },
    {
      "inputs": [
        {
          "internalType": "uint256",
          "name": "expenseId",
          "type": "uint256"
        },
        {
          "internalType": "address",
          "name": "creditor",
          "type": "address"
        }
      ],
      "name": "markAsPaid",
      "outputs": [],
      "stateMutability": "nonpayable",
      "type": "function"
    },
    {
      "inputs": [],
      "name": "paymentCounter",
      "outputs": [
        {
          "internalType": "uint256",
          "name": "",
          "type": "uint256"
        }
      ],
      "stateMutability": "view",
      "type": "function"
    },
    {
      "inputs": [
        {
          "internalType": "uint256",
          "name": "",
          "type": "uint256"
        }
      ],
      "name": "payments",
      "outputs": [
        {
          "internalType": "uint256",
          "name": "expenseId",
          "type": "uint256"
        },
        {
          "internalType": "address",
          "name": "from",
          "type": "address"
        },
        {
          "internalType": "address",
          "name": "to",
          "type": "address"
        },
        {
          "internalType": "uint256",
          "name": "amount",
          "type": "uint256"
        },
        {
          "internalType": "uint256",
          "name": "timestamp",
          "type": "uint256"
        },
        {
          "internalType": "bool",
          "name": "gasless",
          "type": "bool"
        }
      ],
      "stateMutability": "view",
      "type": "function"
    },
    {
      "inputs": [],
      "name": "trustedForwarder",
      "outputs": [
        {
          "internalType": "address",
          "name": "",
          "type": "address"
        }
      ],
      "stateMutability": "view",
      "type": "function"
    },
    {
      "inputs": [
        {
          "internalType": "address",
          "name": "",
          "type": "address"
        },
        {
          "internalType": "uint256",
          "name": "",
          "type": "uint256"
        }
      ],
      "name": "userGroups",
      "outputs": [
        {
          "internalType": "string",
          "name": "",
          "type": "string"
        }
      ],
      "stateMutability": "view",
      "type": "function"
    }
  ],
  "bytecode": "0x60a03461008757601f61271338819003918201601f19168301916001600160401b0383118484101761008c5780849260209460405283398101031261008757516001600160a01b03811681036100875760805260016000556001600455600160075560405161267090816100a38239608051818181610fd9015281816113fc01526125cc0152f35b600080fd5b634e487b7160e01b600052604160045260246000fdfe6080604052600436101561001257600080fd5b60003560e01c80630245d03614611a5057806302750201146119c057806306545a93146119a257806307edffe0146117ed57806315b3671d146117ca5780633da04e4a146116e15780634093d7a11461166f57806340be33e81461163857806345e39705146114fb5780634bd4622c14611430578063572b6c05146113dc5780635768a3151461137457806360a9e0971461130d5780636b52230b1461127c578063735e5db61461102657806376840b60146110085780637da0a87714610fc357806387d8178914610f4b57806393537dd814610ed1578063af4afe0a14610dce578063bef9f7a414610700578063cdc88e02146104f5578063cfbe575c146101475763ddcad2ae1461012457600080fd5b34610142576000366003190112610142576020600454604051908152f35b600080fd5b34610142576040366003190112610142576004356001600160401b03811161014257610177903690600401611ef8565b602435906001600160401b03821161014257366023830112156101425781600401356101a2816121df565b926101b06040519485611ed7565b8184526024602085019260051b8201019036821161014257602401915b8183106104d55750505060405160ff6003835192602081818701956101f3818389612028565b81016001815203019020015416610499578251156104485761021c6102166125a1565b846125fa565b15610403576040519061022e82611ebc565b8282526020820184815260408301904282526102746102626020606087019560018752604051809381928b51928391612028565b81016001815203019020945185612452565b5180519060018501906001600160401b0383116103b357600160401b83116103b35760209082548484558085106103e6575b500190600052602060002060005b8381106103c95788886102e18960038a8a51600284015551151591019060ff801983541691151516179055565b600254600160401b8110156103b35780600161030292016002556002612070565b61039d578161031091612452565b60005b825181101561034f576001906001600160a01b036103318286612342565b51166000526009602052610349836040600020612552565b01610313565b5061039261037d7f3599f24e25095535210b1b8ca48fba46c30fcd53bdb6cef3a68a38a4ad265337926122df565b92604051918291604083526040830190611f4e565b4260208301520390a2005b634e487b7160e01b600052600060045260246000fd5b634e487b7160e01b600052604160045260246000fd5b82516001600160a01b0316818301556020909201916001016102b4565b6103fd90846000528584600020918201910161243b565b896102a6565b60405162461bcd60e51b815260206004820152601860248201527f43726561746f72206d7573742062652061206d656d62657200000000000000006044820152606490fd5b60405162461bcd60e51b815260206004820152602360248201527f47726f7570206d7573742068617665206174206c65617374206f6e65206d656d6044820152623132b960e91b6064820152608490fd5b60405162461bcd60e51b815260206004820152601460248201527347726f757020616c72656164792065786973747360601b6044820152606490fd5b82356001600160a01b0381168103610142578152602092830192016101cd565b346101425761050336611f8b565b9060405161053560ff60038451936020818188019661052381838a612028565b810160018152030190200154166122ff565b6040516020818451610548818387612028565b8101600181520301902060405161055e81611ebc565b610567826120d8565b8152606060ff600361057b6001860161223b565b946020850195865260028101546040860152015416151591015260009160005b82515181101561062157604080805160208189516105ba81838a612028565b8101600881520301902060009060018060a01b038a1682526020522060018060a01b036105e8848751612342565b51166001600160a01b03166000908152602091909152205461060d575b60010161059b565b926106196001916122d0565b939050610605565b509061063561062f84612356565b93612356565b9260009260005b8351518110156106ed5760408080516020818b5161065b81838a612028565b8101600881520301902060009060018060a01b038c1682526020522060018060a01b03610689848851612342565b51166001600160a01b031660009081526020919091522054806106b0575b5060010161063c565b600191956106e691838060a01b036106c9898951612342565b51166106d58388612342565b526106e0828a612342565b526122d0565b94906106a7565b604051806106fc888683612000565b0390f35b346101425760e0366003190112610142576004356001600160401b03811161014257610730903690600401611ef8565b6024356001600160401b0381116101425761074f903690600401611ef8565b9060443591606435906084356001600160401b03811161014257610777903690600401611ef8565b9260a4356001600160401b03811161014257610797903690600401611ef8565b60c4356001600160401b038111610142576107b6903690600401611ef8565b90604051946107d660ff600388602081895161052381848d019e8f612028565b6107ef6107ea6107e46125a1565b86612388565b61228f565b6107f761257f565b8715610d7d578015610d2757845115610ce957815115610caf576004549661081e886122d0565b6004556108296125a1565b976001604051602081806108418d8c51928391612028565b81018481520301902001546000198101908111610bed579961086689969a989b612356565b9a8b60009960016108906020600093838060a01b03169b5b8d604051938492839251928391612028565b8101848152030190200154811015610946579081896108cf8e9460018e60206040518092516108c081838d612028565b81018481520301902001612070565b905460039190911b1c6001600160a01b0316036108f8575b61089060206001809301939461087e565b9a6108906020600161093b8f948f8396846108c0878c61092395604051938492839251928391612028565b848060a01b0391549060031b1c166106e08289612342565b9e93505050506108e7565b509996979598508a8a6040519261095c84611ea0565b8584528b60208501918a835260408601908d8252606087019081526080870188815260a08801918c835260c08901938c855260e08a019586526101008a01964288526101208b019889526101408b01998a528c600052600360205260406000209a518b555160018b01906109cf91612452565b5160028a0180546001600160a01b0319166001600160a01b039290921691909117905551610a009060038a01612452565b51600488015551600587015551610a1a9060068701612452565b51610a289060078601612452565b5160088401555180519060098401906001600160401b0383116103b357600160401b83116103b3576020908254848455808510610c92575b500190600052602060002060005b838110610c75575050505090600a610a8892519101612452565b6040516020818751610a9b81838c612028565b810160058152030190208054600160401b8110156103b357610ac291600182018155612070565b81549060031b9084821b91600019901b191617905560005b8951811015610c0357604080805160208180610afa8d8d51928391612028565b6008908201908152030190206001600160a01b03610b18858f612342565b51169060009160018060a01b03168252602052206000908a825260205220908154868101809111610bed5790915560019088876040808e610b7a60208e6001600160a01b03610b678a86612342565b5116968551938492839251928391612028565b8101600881520301902090610b9587898060a01b0392612342565b511690600091888060a01b031682526020522060009084825260205220547fc247df220fd28f38c52084b08c97414ffcb3c5f5a3a6c1bbb17745bb3e8cfb0a6020610bdf8c6122df565b92604051908152a401610ada565b634e487b7160e01b600052601160045260246000fd5b5086937fcc762af87a9e4b178c686ac9675008ff8324a12ceb2e2a23052e2186bb184c1491610c658a610c57610c388a6122df565b976040519586958652602086015260a0604086015260a085019061204b565b90838203606085015261204b565b4260808301520390a46001600055005b82516001600160a01b031681830155602090920191600101610a6e565b610ca990846000528584600020918201910161243b565b8f610a60565b60405162461bcd60e51b815260206004820152601260248201527112541194c81a185cda081c995c5d5a5c995960721b6044820152606490fd5b60405162461bcd60e51b815260206004820152601660248201527513595c98da185b9d081b985b59481c995c5d5a5c995960521b6044820152606490fd5b60405162461bcd60e51b815260206004820152602860248201527f50657220706572736f6e20616d6f756e74206d75737420626520677265617465604482015267072207468616e20360c41b6064820152608490fd5b60405162461bcd60e51b815260206004820152602360248201527f546f74616c20616d6f756e74206d75737420626520677265617465722074686160448201526206e20360ec1b6064820152608490fd5b346101425760203660031901126101425760043560005260036020526040600020805460018201610dfe906120d8565b600283015490926001600160a01b0390911690610e1d600382016120d8565b6004820154600583015490610e34600685016120d8565b91610e41600786016120d8565b93600886015495600a01610e54906120d8565b96604051998a998a5260208a0161014090526101408a01610e749161204b565b9060408a015288810360608a0152610e8b9161204b565b91608088015260a087015285810360c0870152610ea79161204b565b84810360e0860152610eb89161204b565b906101008401528281036101208401526106fc9161204b565b34610142576040366003190112610142576004356001600160401b03811161014257610f01903690600401611ef8565b610f1d6020602435928160405193828580945193849201612028565b81016005815203019020805482101561014257602091610f3c91612070565b90549060031b1c604051908152f35b3461014257602036600319011261014257600435600052600660205260c0604060002080549060018060a01b036001820154169060018060a01b0360028201541660038201549060ff6005600485015494015416936040519586526020860152604085015260608401526080830152151560a0820152f35b34610142576000366003190112610142576040517f00000000000000000000000000000000000000000000000000000000000000006001600160a01b03168152602090f35b34610142576000366003190112610142576020600754604051908152f35b346101425760203660031901126101425760043560405161104681611ea0565b60008152602081016060905260408101600090526060810160609052608081016000905260a081016000905260c081016060905260e0810160609052610100810160009052610120810160609052610140016060905280600052600360205280604060002054146110b6906121f6565b600052600360205260406000206040516110cf81611ea0565b815481526110df600183016120d8565b6020820190815260028301546001600160a01b03166040830190815292611108600382016120d8565b9360608401948552600482015460808501908152600583015460a0860190815260068401611135906120d8565b60c0870190815290611149600786016120d8565b9360e088019485526008860154986101008901998a526009870161116c9061223b565b966101208a01978852600a01611181906120d8565b976101408a019889526040519960208b525160208b01525160408a0161016090526101808a016111b09161204b565b91516001600160a01b031660608a015251888203601f190160808a01526111d7919061204b565b925160a08801525160c087015251858203601f190160e08701526111fb919061204b565b9051848203601f1901610100860152611214919061204b565b93516101208401525192601f1983820301610140840152835190818152602001936020019060005b81811061125d5784806106fc888751601f198483030161016085015261204b565b82516001600160a01b031686526020958601959092019160010161123c565b34610142576020366003190112610142576004356001600160401b038111610142576112c760206112b46112fc933690600401611ef8565b8160405193828580945193849201612028565b810160018152030190206112da816120d8565b9060ff600360028301549201541660405193849360608552606085019061204b565b916020840152151560408301520390f35b3461014257604036600319011261014257611326611e8a565b6001600160a01b031660009081526009602052604090208054602435908110156101425761135a611360916106fc93612070565b9061217c565b60405191829160208352602083019061204b565b346101425761139f60206113873661218a565b93918360409492945193828580945193849201612028565b810160088152030190209060018060a01b031660005260205260406000209060018060a01b03166000526020526020604060002054604051908152f35b346101425760203660031901126101425760206113f7611e8a565b6040517f00000000000000000000000000000000000000000000000000000000000000006001600160a01b039081169216919091148152f35b34610142576020366003190112610142576004356001600160401b038111610142576020611465611495923690600401611ef8565b6040519061148460ff600383519486818187019761052381838b612028565b604051938492839251928391612028565b8101600581520301902060405190816020825491828152019160005260206000209060005b8181106114e5576106fc856114d181870382611ed7565b604051918291602083526020830190611fcc565b82548452602090930192600192830192016114ba565b346101425761150936611f8b565b9060405161152960ff60038451936020818188019661052381838a612028565b61153d6107ea6115376125a1565b84612388565b6115478383612388565b611600576115646020600192604051809381928751928391612028565b810184815203019020018054600160401b8110156103b3577f51cfabebb274a439fc348592eb455cc20eb9d20c36329f87592dadc611a1dff3926115b38260409460016115f195018155612070565b81546001600160a01b0397881660039290921b82811b98901b1916969096179055600085815260096020528390206115ec908290612552565b6122df565b928151908152426020820152a2005b60405162461bcd60e51b815260206004820152601060248201526f20b63932b0b23c90309036b2b6b132b960811b6044820152606490fd5b346101425761139f602061164b3661218a565b93916040939193519061148460ff600383519486818187019761052381838b612028565b34610142576020366003190112610142576004356002548110156101425760006002548210156116cd57600290527f405787fa12a823e0f2b7631cc41b3ba8828b3321ca811111fa75cd3aa3bb5ace0160006106fc611360836120d8565b634e487b7160e01b81526032600452602490fd5b34610142576020366003190112610142576001600160a01b03611702611e8a565b166000526009602052604060002080549061171c826121df565b9161172a6040519384611ed7565b80835260208301809260005260206000206000915b8383106117ad57848660405191829160208301906020845251809152604083019060408160051b85010192916000905b82821061177e57505050500390f35b9193600191939550602061179d8192603f198a8203018652885161204b565b960192019201859493919261176f565b6001602081926117bc856120d8565b81520192019201919061173f565b346101425760206117e36117dd36611f8b565b90612388565b6040519015158152f35b34610142576117fb36611f8b565b9060405161181b60ff60038451936020818188019661052381838a612028565b604051602081845161182e818387612028565b8101600181520301902060405161184481611ebc565b61184d826120d8565b8152606060ff60036118616001860161223b565b946020850195865260028101546040860152015416151591015260009160005b82515181101561190057604080805160208189516118a081838a612028565b8101600881520301902060018060a01b036118bc858851612342565b516001600160a01b039116811660009081526020928352928320908a168352905220546118ec575b600101611881565b926118f86001916122d0565b9390506118e4565b509061190e61062f84612356565b9260009260005b8351518110156106ed5760408080516020818b5161193481838a612028565b8101600881520301902060018060a01b03611950858951612342565b516001600160a01b039116811660009081526020928352928320908c1683529052205480611982575b50600101611915565b6001919561199b91838060a01b036106c9898951612342565b9490611979565b34610142576000366003190112610142576020600254604051908152f35b34610142576020366003190112610142576004356001600160401b03811161014257611a3c6001611a2d60206119fd6106fc953690600401611ef8565b6040519061148460ff6003835194868181870197611a1c81838b612028565b81018b8152030190200154166122ff565b8101848152030190200161223b565b604051918291602083526020830190611f4e565b34610142576040366003190112610142576024356001600160a01b038116906004359082900361014257611a8261257f565b806000526003602052611a9b81604060002054146121f6565b806000526003602052604060002060405191611ab683611ea0565b81548352611ac6600183016120d8565b6020840190815260028301546001600160a01b0316604085015292611aed600384016120d8565b606082015260048301546080820152610140611b56600a60058601549560a08501968752611b1d600682016120d8565b60c0860152611b2e600782016120d8565b60e08601526008810154610100860152611b4a6009820161223b565b610120860152016120d8565b910152611b616125a1565b925191611b716107ea8585612388565b6040519083519160208181870194611b8a818388612028565b8101600881520301902060018060a01b03861660005260205260406000208660005260205260406000205415611e455751906040516020818651611bcf818387612028565b8101600881520301902060018060a01b0386166000526020526040600020866000526020528160406000205410611e09576040516020818651611c13818387612028565b8101600881520301902060018060a01b0386166000526020526040600020866000526020526040600020805490838203918211610bed575560075492611c58846122d0565b600755611c636125a1565b604051946001600160a01b03909116321415919060c086016001600160401b038111878210176103b35760806020968b95611d83611dab9a7fc2fbb7f1ca94ac6e3e6a91e666986ddcf7fa936faa9ef0aa29f4403f98af09ed9560405287815260058b82019e60018060a01b03169e8f9a8b825260408401908152606084018781528885019142835260a08601938885528c60005260206006905260406000209651875560018060a01b03905116600187019060018060a01b03166bffffffffffffffffffffffff60a01b82541617905560018060a01b03905116600286019060018060a01b03166bffffffffffffffffffffffff60a01b82541617905551600385015551600484015551151591019060ff801983541691151516179055565b604051918d8352898301526040820152426060820152a4604051809381928651928391612028565b81016008815203019020826000526020526040600020836000526020527fc247df220fd28f38c52084b08c97414ffcb3c5f5a3a6c1bbb17745bb3e8cfb0a6020611dfa604060002054936122df565b92604051908152a46001600055005b60405162461bcd60e51b8152602060048201526014602482015273088cac4e840c2dadeeadce840dad2e6dac2e8c6d60631b6044820152606490fd5b60405162461bcd60e51b815260206004820152601860248201527f4e6f206465627420746f2074686973206372656469746f7200000000000000006044820152606490fd5b600435906001600160a01b038216820361014257565b61016081019081106001600160401b038211176103b357604052565b608081019081106001600160401b038211176103b357604052565b90601f801991011681019081106001600160401b038211176103b357604052565b81601f82011215610142578035906001600160401b0382116103b35760405192611f2c601f8401601f191660200185611ed7565b8284526020838301011161014257816000926020809301838601378301015290565b906020808351928381520192019060005b818110611f6c5750505090565b82516001600160a01b0316845260209384019390920191600101611f5f565b604060031982011261014257600435906001600160401b03821161014257611fb591600401611ef8565b906024356001600160a01b03811681036101425790565b906020808351928381520192019060005b818110611fea5750505090565b8251845260209384019390920191600101611fdd565b909161201761202593604084526040840190611f4e565b916020818403910152611fcc565b90565b60005b83811061203b5750506000910152565b818101518382015260200161202b565b9060209161206481518092818552858086019101612028565b601f01601f1916010190565b80548210156120885760005260206000200190600090565b634e487b7160e01b600052603260045260246000fd5b90600182811c921680156120ce575b60208310146120b857565b634e487b7160e01b600052602260045260246000fd5b91607f16916120ad565b90604051918260008254926120ec8461209e565b808452936001811690811561215a5750600114612113575b5061211192500383611ed7565b565b90506000929192526020600020906000915b81831061213e5750509060206121119282010138612104565b6020919350806001915483858901015201910190918492612125565b90506020925061211194915060ff191682840152151560051b82010138612104565b9061039d57612025906120d8565b606060031982011261014257600435906001600160401b038211610142576121b491600401611ef8565b906024356001600160a01b038116810361014257906044356001600160a01b03811681036101425790565b6001600160401b0381116103b35760051b60200190565b156121fd57565b60405162461bcd60e51b8152602060048201526016602482015275115e1c195b9cd948191bd95cc81b9bdd08195e1a5cdd60521b6044820152606490fd5b906040519182815491828252602082019060005260206000209260005b81811061226d57505061211192500383611ed7565b84546001600160a01b0316835260019485019487945060209093019201612258565b1561229657565b60405162461bcd60e51b81526020600482015260126024820152712737ba10309033b937bab81036b2b6b132b960711b6044820152606490fd5b6000198114610bed5760010190565b6122f790602060405192828480945193849201612028565b810103902090565b1561230657565b60405162461bcd60e51b815260206004820152601460248201527311dc9bdd5c08191bd95cc81b9bdd08195e1a5cdd60621b6044820152606490fd5b80518210156120885760209160051b010190565b90612360826121df565b61236d6040519182611ed7565b828152809261237e601f19916121df565b0190602036910137565b60206123a1918160405193828580945193849201612028565b81016001815203019020906040516123b881611ebc565b6123c1836120d8565b8152606060ff60036123d56001870161223b565b956020850196875260028101546040860152015416151591015260005b82518051821015612432576001600160a01b0390612411908390612342565b51166001600160a01b0383161461242a576001016123f2565b505050600190565b50505050600090565b818110612446575050565b6000815560010161243b565b91909182516001600160401b0381116103b35761246f825461209e565b601f8111612515575b506020601f82116001146124b357819293946000926124a8575b50508160011b916000199060031b1c1916179055565b015190503880612492565b601f1982169083600052806000209160005b8181106124fd575095836001959697106124e4575b505050811b019055565b015160001960f88460031b161c191690553880806124da565b9192602060018192868b0151815501940192016124c5565b61254290836000526020600020601f840160051c81019160208510612548575b601f0160051c019061243b565b38612478565b9091508190612535565b8054600160401b8110156103b35761256f91600182018155612070565b91909161039d5761211191612452565b600260005414612590576002600055565b633ee5aeb560e01b60005260046000fd5b6014361015806125c8575b156125c4576013193601368111610142573560601c90565b3390565b50337f00000000000000000000000000000000000000000000000000000000000000006001600160a01b0316146125ac565b9060005b8251811015612632576001600160a01b036126198285612342565b51166001600160a01b0383161461242a576001016125fe565b50505060009056fea26469706673582212202403e61d006dd9dd7d4f6388a0c47e72d0a9a921ef1fcdcf533e488b8343c9c564736f6c634300081b0033",
  "linkReferences": {},
  "deployedLinkReferences": {}
}